{
  "_format": "hh-sol-artifact-1",
  "contractName": "TestZone",
  "sourceName": "contracts/BeezCube.sol",
  "abi": [
    {
      "inputs": [
        {
          "internalType": "address",
          "name": "_ogNFBeezContract",
          "type": "address"
        },
        {
          "internalType": "address",
          "name": "_airnodeRrp",
          "type": "address"
        },
        {
          "internalType": "address",
          "name": "_royalty",
          "type": "address"
        },
        {
          "internalType": "string",
          "name": "_cubeNFT",
          "type": "string"
        },
        {
          "internalType": "address",
          "name": "_artist",
          "type": "address"
        },
        {
          "internalType": "address",
          "name": "_beezSafe",
          "type": "address"
        },
        {
          "internalType": "address",
          "name": "_donation",
          "type": "address"
        }
      ],
      "stateMutability": "nonpayable",
      "type": "constructor"
    },
    {
      "anonymous": false,
      "inputs": [
        {
          "indexed": true,
          "internalType": "address",
          "name": "account",
          "type": "address"
        },
        {
          "indexed": true,
          "internalType": "address",
          "name": "operator",
          "type": "address"
        },
        {
          "indexed": false,
          "internalType": "bool",
          "name": "approved",
          "type": "bool"
        }
      ],
      "name": "ApprovalForAll",
      "type": "event"
    },
    {
      "anonymous": false,
      "inputs": [
        {
          "indexed": true,
          "internalType": "address",
          "name": "previousOwner",
          "type": "address"
        },
        {
          "indexed": true,
          "internalType": "address",
          "name": "newOwner",
          "type": "address"
        }
      ],
      "name": "OwnershipTransferred",
      "type": "event"
    },
    {
      "anonymous": false,
      "inputs": [
        {
          "indexed": true,
          "internalType": "bytes32",
          "name": "requestId",
          "type": "bytes32"
        },
        {
          "indexed": false,
          "internalType": "uint256",
          "name": "response",
          "type": "uint256"
        }
      ],
      "name": "ReceivedUint256",
      "type": "event"
    },
    {
      "anonymous": false,
      "inputs": [
        {
          "indexed": true,
          "internalType": "bytes32",
          "name": "requestId",
          "type": "bytes32"
        }
      ],
      "name": "RequestedUint256",
      "type": "event"
    },
    {
      "anonymous": false,
      "inputs": [
        {
          "indexed": true,
          "internalType": "address",
          "name": "operator",
          "type": "address"
        },
        {
          "indexed": true,
          "internalType": "address",
          "name": "from",
          "type": "address"
        },
        {
          "indexed": true,
          "internalType": "address",
          "name": "to",
          "type": "address"
        },
        {
          "indexed": false,
          "internalType": "uint256[]",
          "name": "ids",
          "type": "uint256[]"
        },
        {
          "indexed": false,
          "internalType": "uint256[]",
          "name": "values",
          "type": "uint256[]"
        }
      ],
      "name": "TransferBatch",
      "type": "event"
    },
    {
      "anonymous": false,
      "inputs": [
        {
          "indexed": true,
          "internalType": "address",
          "name": "operator",
          "type": "address"
        },
        {
          "indexed": true,
          "internalType": "address",
          "name": "from",
          "type": "address"
        },
        {
          "indexed": true,
          "internalType": "address",
          "name": "to",
          "type": "address"
        },
        {
          "indexed": false,
          "internalType": "uint256",
          "name": "id",
          "type": "uint256"
        },
        {
          "indexed": false,
          "internalType": "uint256",
          "name": "value",
          "type": "uint256"
        }
      ],
      "name": "TransferSingle",
      "type": "event"
    },
    {
      "anonymous": false,
      "inputs": [
        {
          "indexed": false,
          "internalType": "string",
          "name": "value",
          "type": "string"
        },
        {
          "indexed": true,
          "internalType": "uint256",
          "name": "id",
          "type": "uint256"
        }
      ],
      "name": "URI",
      "type": "event"
    },
    {
      "stateMutability": "payable",
      "type": "fallback"
    },
    {
      "inputs": [],
      "name": "CubeNFT",
      "outputs": [
        {
          "internalType": "string",
          "name": "",
          "type": "string"
        }
      ],
      "stateMutability": "view",
      "type": "function"
    },
    {
      "inputs": [],
      "name": "DAOCubesMinted",
      "outputs": [
        {
          "internalType": "uint256",
          "name": "",
          "type": "uint256"
        }
      ],
      "stateMutability": "view",
      "type": "function"
    },
    {
      "inputs": [
        {
          "internalType": "uint256",
          "name": "_amount",
          "type": "uint256"
        },
        {
          "internalType": "uint256",
          "name": "_tokenId",
          "type": "uint256"
        }
      ],
      "name": "adminMint",
      "outputs": [],
      "stateMutability": "nonpayable",
      "type": "function"
    },
    {
      "inputs": [],
      "name": "airnode",
      "outputs": [
        {
          "internalType": "address",
          "name": "",
          "type": "address"
        }
      ],
      "stateMutability": "view",
      "type": "function"
    },
    {
      "inputs": [],
      "name": "airnodeRrp",
      "outputs": [
        {
          "internalType": "contract IAirnodeRrpV0",
          "name": "",
          "type": "address"
        }
      ],
      "stateMutability": "view",
      "type": "function"
    },
    {
      "inputs": [],
      "name": "artist",
      "outputs": [
        {
          "internalType": "address",
          "name": "",
          "type": "address"
        }
      ],
      "stateMutability": "view",
      "type": "function"
    },
    {
      "inputs": [
        {
          "internalType": "address",
          "name": "account",
          "type": "address"
        },
        {
          "internalType": "uint256",
          "name": "id",
          "type": "uint256"
        }
      ],
      "name": "balanceOf",
      "outputs": [
        {
          "internalType": "uint256",
          "name": "",
          "type": "uint256"
        }
      ],
      "stateMutability": "view",
      "type": "function"
    },
    {
      "inputs": [
        {
          "internalType": "address[]",
          "name": "accounts",
          "type": "address[]"
        },
        {
          "internalType": "uint256[]",
          "name": "ids",
          "type": "uint256[]"
        }
      ],
      "name": "balanceOfBatch",
      "outputs": [
        {
          "internalType": "uint256[]",
          "name": "",
          "type": "uint256[]"
        }
      ],
      "stateMutability": "view",
      "type": "function"
    },
    {
      "inputs": [],
      "name": "beezSafe",
      "outputs": [
        {
          "internalType": "address",
          "name": "",
          "type": "address"
        }
      ],
      "stateMutability": "view",
      "type": "function"
    },
    {
      "inputs": [],
      "name": "breakOpen",
      "outputs": [],
      "stateMutability": "nonpayable",
      "type": "function"
    },
    {
      "inputs": [
        {
          "internalType": "uint256",
          "name": "_amount",
          "type": "uint256"
        }
      ],
      "name": "bulkBreakOpen",
      "outputs": [],
      "stateMutability": "nonpayable",
      "type": "function"
    },
    {
      "inputs": [],
      "name": "bulkBreakOpenAll",
      "outputs": [],
      "stateMutability": "nonpayable",
      "type": "function"
    },
    {
      "inputs": [],
      "name": "claim",
      "outputs": [],
      "stateMutability": "nonpayable",
      "type": "function"
    },
    {
      "inputs": [],
      "name": "createDAOCube",
      "outputs": [],
      "stateMutability": "nonpayable",
      "type": "function"
    },
    {
      "inputs": [],
      "name": "cubesClaimed",
      "outputs": [
        {
          "internalType": "uint256",
          "name": "",
          "type": "uint256"
        }
      ],
      "stateMutability": "view",
      "type": "function"
    },
    {
      "inputs": [],
      "name": "cubesMinted",
      "outputs": [
        {
          "internalType": "uint256",
          "name": "",
          "type": "uint256"
        }
      ],
      "stateMutability": "view",
      "type": "function"
    },
    {
      "inputs": [],
      "name": "cubesPurchased",
      "outputs": [
        {
          "internalType": "uint256",
          "name": "",
          "type": "uint256"
        }
      ],
      "stateMutability": "view",
      "type": "function"
    },
    {
      "inputs": [],
      "name": "donation",
      "outputs": [
        {
          "internalType": "address",
          "name": "",
          "type": "address"
        }
      ],
      "stateMutability": "view",
      "type": "function"
    },
    {
      "inputs": [],
      "name": "endpointIdUint256",
      "outputs": [
        {
          "internalType": "bytes32",
          "name": "",
          "type": "bytes32"
        }
      ],
      "stateMutability": "view",
      "type": "function"
    },
    {
      "inputs": [
        {
          "internalType": "uint256",
          "name": "id",
          "type": "uint256"
        }
      ],
      "name": "exists",
      "outputs": [
        {
          "internalType": "bool",
          "name": "",
          "type": "bool"
        }
      ],
      "stateMutability": "view",
      "type": "function"
    },
    {
      "inputs": [
        {
          "internalType": "bytes32",
          "name": "",
          "type": "bytes32"
        }
      ],
      "name": "expectingRequestWithIdToBeFulfilled",
      "outputs": [
        {
          "internalType": "bool",
          "name": "",
          "type": "bool"
        }
      ],
      "stateMutability": "view",
      "type": "function"
    },
    {
      "inputs": [
        {
          "internalType": "bytes32",
          "name": "requestId",
          "type": "bytes32"
        },
        {
          "internalType": "bytes",
          "name": "data",
          "type": "bytes"
        }
      ],
      "name": "fulfillUint256",
      "outputs": [],
      "stateMutability": "nonpayable",
      "type": "function"
    },
    {
      "inputs": [
        {
          "internalType": "address",
          "name": "account",
          "type": "address"
        },
        {
          "internalType": "address",
          "name": "operator",
          "type": "address"
        }
      ],
      "name": "isApprovedForAll",
      "outputs": [
        {
          "internalType": "bool",
          "name": "",
          "type": "bool"
        }
      ],
      "stateMutability": "view",
      "type": "function"
    },
    {
      "inputs": [],
      "name": "maxClaims",
      "outputs": [
        {
          "internalType": "uint256",
          "name": "",
          "type": "uint256"
        }
      ],
      "stateMutability": "view",
      "type": "function"
    },
    {
      "inputs": [],
      "name": "maxDAOCube",
      "outputs": [
        {
          "internalType": "uint256",
          "name": "",
          "type": "uint256"
        }
      ],
      "stateMutability": "view",
      "type": "function"
    },
    {
      "inputs": [],
      "name": "maxPurchaseSupply",
      "outputs": [
        {
          "internalType": "uint256",
          "name": "",
          "type": "uint256"
        }
      ],
      "stateMutability": "view",
      "type": "function"
    },
    {
      "inputs": [],
      "name": "maxTotalSupply",
      "outputs": [
        {
          "internalType": "uint256",
          "name": "",
          "type": "uint256"
        }
      ],
      "stateMutability": "view",
      "type": "function"
    },
    {
      "inputs": [
        {
          "internalType": "uint256",
          "name": "amount",
          "type": "uint256"
        }
      ],
      "name": "mint",
      "outputs": [],
      "stateMutability": "payable",
      "type": "function"
    },
    {
      "inputs": [],
      "name": "name",
      "outputs": [
        {
          "internalType": "string",
          "name": "",
          "type": "string"
        }
      ],
      "stateMutability": "pure",
      "type": "function"
    },
    {
      "inputs": [
        {
          "internalType": "uint256",
          "name": "",
          "type": "uint256"
        }
      ],
      "name": "nfbeezClaimed",
      "outputs": [
        {
          "internalType": "bool",
          "name": "",
          "type": "bool"
        }
      ],
      "stateMutability": "view",
      "type": "function"
    },
    {
      "inputs": [],
      "name": "owner",
      "outputs": [
        {
          "internalType": "address",
          "name": "",
          "type": "address"
        }
      ],
      "stateMutability": "view",
      "type": "function"
    },
    {
      "inputs": [],
      "name": "paused",
      "outputs": [
        {
          "internalType": "bool",
          "name": "",
          "type": "bool"
        }
      ],
      "stateMutability": "view",
      "type": "function"
    },
    {
      "inputs": [],
      "name": "renounceOwnership",
      "outputs": [],
      "stateMutability": "nonpayable",
      "type": "function"
    },
    {
      "inputs": [
        {
          "internalType": "uint256",
          "name": "_tokenId",
          "type": "uint256"
        },
        {
          "internalType": "uint256",
          "name": "_salePrice",
          "type": "uint256"
        }
      ],
      "name": "royaltyInfo",
      "outputs": [
        {
          "internalType": "address",
          "name": "",
          "type": "address"
        },
        {
          "internalType": "uint256",
          "name": "",
          "type": "uint256"
        }
      ],
      "stateMutability": "view",
      "type": "function"
    },
    {
      "inputs": [
        {
          "internalType": "address",
          "name": "from",
          "type": "address"
        },
        {
          "internalType": "address",
          "name": "to",
          "type": "address"
        },
        {
          "internalType": "uint256[]",
          "name": "ids",
          "type": "uint256[]"
        },
        {
          "internalType": "uint256[]",
          "name": "amounts",
          "type": "uint256[]"
        },
        {
          "internalType": "bytes",
          "name": "data",
          "type": "bytes"
        }
      ],
      "name": "safeBatchTransferFrom",
      "outputs": [],
      "stateMutability": "nonpayable",
      "type": "function"
    },
    {
      "inputs": [
        {
          "internalType": "address",
          "name": "from",
          "type": "address"
        },
        {
          "internalType": "address",
          "name": "to",
          "type": "address"
        },
        {
          "internalType": "uint256",
          "name": "id",
          "type": "uint256"
        },
        {
          "internalType": "uint256",
          "name": "amount",
          "type": "uint256"
        },
        {
          "internalType": "bytes",
          "name": "data",
          "type": "bytes"
        }
      ],
      "name": "safeTransferFrom",
      "outputs": [],
      "stateMutability": "nonpayable",
      "type": "function"
    },
    {
      "inputs": [
        {
          "internalType": "address",
          "name": "operator",
          "type": "address"
        },
        {
          "internalType": "bool",
          "name": "approved",
          "type": "bool"
        }
      ],
      "name": "setApprovalForAll",
      "outputs": [],
      "stateMutability": "nonpayable",
      "type": "function"
    },
    {
      "inputs": [
        {
          "internalType": "string",
          "name": "_newBaseURI",
          "type": "string"
        }
      ],
      "name": "setBaseURI",
      "outputs": [],
      "stateMutability": "nonpayable",
      "type": "function"
    },
    {
      "inputs": [
        {
          "internalType": "uint256",
          "name": "_newMax",
          "type": "uint256"
        }
      ],
      "name": "setNewDAOCubeMax",
      "outputs": [],
      "stateMutability": "nonpayable",
      "type": "function"
    },
    {
      "inputs": [
        {
          "internalType": "address",
          "name": "_airnode",
          "type": "address"
        },
        {
          "internalType": "bytes32",
          "name": "_endpointIdUint256",
          "type": "bytes32"
        },
        {
          "internalType": "address",
          "name": "_sponsorWallet",
          "type": "address"
        }
      ],
      "name": "setRequestParameters",
      "outputs": [],
      "stateMutability": "nonpayable",
      "type": "function"
    },
    {
      "inputs": [
        {
          "internalType": "address",
          "name": "_receiver",
          "type": "address"
        },
        {
          "internalType": "uint96",
          "name": "_royaltyFeesInBips",
          "type": "uint96"
        }
      ],
      "name": "setRoyaltyInfo",
      "outputs": [],
      "stateMutability": "nonpayable",
      "type": "function"
    },
    {
      "inputs": [],
      "name": "sponsorWallet",
      "outputs": [
        {
          "internalType": "address",
          "name": "",
          "type": "address"
        }
      ],
      "stateMutability": "view",
      "type": "function"
    },
    {
      "inputs": [
        {
          "internalType": "bytes4",
          "name": "interfaceId",
          "type": "bytes4"
        }
      ],
      "name": "supportsInterface",
      "outputs": [
        {
          "internalType": "bool",
          "name": "",
          "type": "bool"
        }
      ],
      "stateMutability": "view",
      "type": "function"
    },
    {
      "inputs": [],
      "name": "symbol",
      "outputs": [
        {
          "internalType": "string",
          "name": "",
          "type": "string"
        }
      ],
      "stateMutability": "pure",
      "type": "function"
    },
    {
      "inputs": [],
      "name": "togglePause",
      "outputs": [],
      "stateMutability": "nonpayable",
      "type": "function"
    },
    {
      "inputs": [],
      "name": "tokenPrice",
      "outputs": [
        {
          "internalType": "uint256",
          "name": "",
          "type": "uint256"
        }
      ],
      "stateMutability": "view",
      "type": "function"
    },
    {
      "inputs": [
        {
          "internalType": "uint256",
          "name": "",
          "type": "uint256"
        }
      ],
      "name": "tokensMinted",
      "outputs": [
        {
          "internalType": "uint256",
          "name": "",
          "type": "uint256"
        }
      ],
      "stateMutability": "view",
      "type": "function"
    },
    {
      "inputs": [
        {
          "internalType": "uint256",
          "name": "id",
          "type": "uint256"
        }
      ],
      "name": "totalSupply",
      "outputs": [
        {
          "internalType": "uint256",
          "name": "",
          "type": "uint256"
        }
      ],
      "stateMutability": "view",
      "type": "function"
    },
    {
      "inputs": [
        {
          "internalType": "address",
          "name": "newOwner",
          "type": "address"
        }
      ],
      "name": "transferOwnership",
      "outputs": [],
      "stateMutability": "nonpayable",
      "type": "function"
    },
    {
      "inputs": [
        {
          "internalType": "uint256",
          "name": "_tokenId",
          "type": "uint256"
        }
      ],
      "name": "uri",
      "outputs": [
        {
          "internalType": "string",
          "name": "",
          "type": "string"
        }
      ],
      "stateMutability": "view",
      "type": "function"
    },
    {
      "inputs": [],
      "name": "withdraw",
      "outputs": [],
      "stateMutability": "nonpayable",
      "type": "function"
    },
    {
      "inputs": [
        {
          "internalType": "contract IERC20",
          "name": "token",
          "type": "address"
        }
      ],
      "name": "withdrawToken",
      "outputs": [],
      "stateMutability": "nonpayable",
      "type": "function"
    },
    {
      "stateMutability": "payable",
      "type": "receive"
    }
  ],
  "bytecode": "0x60a060405266038d7ea4c68000600d556109ab600e556109dd600f5560c86010553480156200002d57600080fd5b506040516200404338038062004043833981016040819052620000509162000412565b8580856200005e8162000167565b506200006a3362000180565b600160078190556001600160a01b0382166080819052604051632b77c09f60e21b815230600482015260248101929092529063addf027c90604401600060405180830381600087803b158015620000c057600080fd5b505af1158015620000d5573d6000803e3d6000fd5b5050601b80546001600160a01b0319166001600160a01b038d16179055506101f4925062000108915087905082620001d2565b84516200011d90601a90602088019062000339565b5050601780546001600160a01b039485166001600160a01b031991821617909155601880549385169382169390931790925560198054919093169116179055506200059e92505050565b80516200017c90600290602084019062000339565b5050565b600680546001600160a01b038381166001600160a01b0319831681179093556040519116919082907f8be0079c531659141344cd1fd0a4f28419497f9722a3daafe3b4186f6b6457e090600090a35050565b6006546001600160a01b03163314620002325760405162461bcd60e51b815260206004820181905260248201527f4f776e61626c653a2063616c6c6572206973206e6f7420746865206f776e657260448201526064015b60405180910390fd5b6200017c82826127106001600160601b0382161115620002a85760405162461bcd60e51b815260206004820152602a60248201527f455243323938313a20726f79616c7479206665652077696c6c206578636565646044820152692073616c65507269636560b01b606482015260840162000229565b6001600160a01b038216620003005760405162461bcd60e51b815260206004820152601960248201527f455243323938313a20696e76616c696420726563656976657200000000000000604482015260640162000229565b604080518082019091526001600160a01b039092168083526001600160601b039091166020909201829052600160a01b90910217600455565b828054620003479062000561565b90600052602060002090601f0160209004810192826200036b5760008555620003b6565b82601f106200038657805160ff1916838001178555620003b6565b82800160010185558215620003b6579182015b82811115620003b657825182559160200191906001019062000399565b50620003c4929150620003c8565b5090565b5b80821115620003c45760008155600101620003c9565b80516001600160a01b0381168114620003f757600080fd5b919050565b634e487b7160e01b600052604160045260246000fd5b600080600080600080600060e0888a0312156200042e57600080fd5b6200043988620003df565b965060206200044a818a01620003df565b96506200045a60408a01620003df565b60608a01519096506001600160401b03808211156200047857600080fd5b818b0191508b601f8301126200048d57600080fd5b815181811115620004a257620004a2620003fc565b604051601f8201601f19908116603f01168101908382118183101715620004cd57620004cd620003fc565b816040528281528e86848701011115620004e657600080fd5b600093505b828410156200050a5784840186015181850187015292850192620004eb565b828411156200051c5760008684830101525b8099505050505050506200053360808901620003df565b92506200054360a08901620003df565b91506200055360c08901620003df565b905092959891949750929550565b600181811c908216806200057657607f821691505b602082108114156200059857634e487b7160e01b600052602260045260246000fd5b50919050565b608051613a7b620005c86000396000818161063801528181610e690152612a730152613a7b6000f3fe6080604052600436106102de5760003560e01c80637bdf25251161017e578063a36ff4d8116100d3578063cf5380b41161008f578063e985e9c51161006c578063e985e9c514610913578063f242432a1461095c578063f2fde38b1461097c578063f710ee5f1461099c57005b8063cf5380b4146108c7578063d00e40ce146108dd578063d870b230146108fd57005b8063a36ff4d8146107f5578063bba8bba414610815578063bd85b03914610835578063bf90fb4e14610862578063c4ae316814610882578063cab3a16b1461089757005b80638da5cb5b1161013a57806395d89b411161011757806395d89b411461078057806396b8c990146107ad578063a0712d68146107c2578063a22cb465146107d557005b80638da5cb5b146107225780638edeb15d1461074057806390e414e31461076057005b80637bdf25251461065a5780637f74cde21461067a5780637ff9b596146106a7578063805e5c67146106bd578063851244f7146106d2578063894760691461070257005b80632f1bbbb3116102345780634e71d92d116101f057806355f804b3116101cd57806355f804b3146105d05780635c975abb146105f0578063715018a61461061157806371bab6661461062657005b80634e71d92d146105775780634f558e791461058c57806351b323f0146105bb57005b80632f1bbbb3146104b15780633718d90a146104c75780633ccfd60b146104e757806340a1706f146104fc57806343bc1612146105125780634e1273f41461054a57005b80630e89341c1161029b578063232a7f6011610278578063232a7f60146104275780632a55205a1461043c5780632ab4d0521461047b5780632eb2c2d61461049157005b80630e89341c146103db57806313c1fa31146103fb5780631bb47c531461041157005b8062fdd58e146102e757806301ffc9a71461031a578063027b955c1461034a57806302fa7c471461036a57806306fdde031461038a57806307b9fc57146103c557005b366102e557005b005b3480156102f357600080fd5b50610307610302366004612e1a565b6109b2565b6040519081526020015b60405180910390f35b34801561032657600080fd5b5061033a610335366004612e5c565b610a49565b6040519015158152602001610311565b34801561035657600080fd5b506102e5610365366004612e80565b610a5a565b34801561037657600080fd5b506102e5610385366004612e99565b610bad565b34801561039657600080fd5b5060408051808201909152600981526854455354205a4f4e4560b81b60208201525b6040516103119190612f3a565b3480156103d157600080fd5b50610307600a5481565b3480156103e757600080fd5b506103b86103f6366004612e80565b610be5565b34801561040757600080fd5b5061030760135481565b34801561041d57600080fd5b50610307600e5481565b34801561043357600080fd5b506102e5610c19565b34801561044857600080fd5b5061045c610457366004612f4d565b610d1b565b604080516001600160a01b039093168352602083019190915201610311565b34801561048757600080fd5b5061030761138881565b34801561049d57600080fd5b506102e56104ac3660046130c5565b610dc7565b3480156104bd57600080fd5b5061030760145481565b3480156104d357600080fd5b506102e56104e2366004613173565b610e5e565b3480156104f357600080fd5b506102e5610f91565b34801561050857600080fd5b5061030760125481565b34801561051e57600080fd5b50601754610532906001600160a01b031681565b6040516001600160a01b039091168152602001610311565b34801561055657600080fd5b5061056a6105653660046131ef565b611171565b60405161031191906132f7565b34801561058357600080fd5b506102e561129b565b34801561059857600080fd5b5061033a6105a7366004612e80565b600090815260036020526040902054151590565b3480156105c757600080fd5b506103b861158a565b3480156105dc57600080fd5b506102e56105eb36600461330a565b611618565b3480156105fc57600080fd5b5060195461033a90600160a01b900460ff1681565b34801561061d57600080fd5b506102e5611655565b34801561063257600080fd5b506105327f000000000000000000000000000000000000000000000000000000000000000081565b34801561066657600080fd5b506102e5610675366004613353565b61168b565b34801561068657600080fd5b50610307610695366004612e80565b601d6020526000908152604090205481565b3480156106b357600080fd5b50610307600d5481565b3480156106c957600080fd5b506102e56116e9565b3480156106de57600080fd5b5061033a6106ed366004612e80565b600c6020526000908152604090205460ff1681565b34801561070e57600080fd5b506102e561071d366004613395565b6117e2565b34801561072e57600080fd5b506006546001600160a01b0316610532565b34801561074c57600080fd5b50601954610532906001600160a01b031681565b34801561076c57600080fd5b506102e561077b366004612e80565b61194f565b34801561078c57600080fd5b50604080518082019091526004815263151154d560e21b60208201526103b8565b3480156107b957600080fd5b506102e561197e565b6102e56107d0366004612e80565b611ad7565b3480156107e157600080fd5b506102e56107f03660046133c0565b611c23565b34801561080157600080fd5b50600854610532906001600160a01b031681565b34801561082157600080fd5b50601854610532906001600160a01b031681565b34801561084157600080fd5b50610307610850366004612e80565b60009081526003602052604090205490565b34801561086e57600080fd5b50600954610532906001600160a01b031681565b34801561088e57600080fd5b506102e5611c2e565b3480156108a357600080fd5b5061033a6108b2366004612e80565b601c6020526000908152604090205460ff1681565b3480156108d357600080fd5b50610307600f5481565b3480156108e957600080fd5b506102e56108f8366004612f4d565b611c79565b34801561090957600080fd5b5061030760115481565b34801561091f57600080fd5b5061033a61092e3660046133ee565b6001600160a01b03918216600090815260016020908152604080832093909416825291909152205460ff1690565b34801561096857600080fd5b506102e561097736600461341c565b611d46565b34801561098857600080fd5b506102e5610997366004613395565b611dcd565b3480156109a857600080fd5b5061030760105481565b60006001600160a01b038316610a235760405162461bcd60e51b815260206004820152602b60248201527f455243313135353a2062616c616e636520717565727920666f7220746865207a60448201526a65726f206164647265737360a81b60648201526084015b60405180910390fd5b506000908152602081815260408083206001600160a01b03949094168352929052205490565b6000610a5482611e65565b92915050565b60026007541415610a7d5760405162461bcd60e51b8152600401610a1a90613485565b6002600755601954600160a01b900460ff1615610aac5760405162461bcd60e51b8152600401610a1a906134bc565b6000610ab93360016109b2565b905060008111610adb5760405162461bcd60e51b8152600401610a1a906134e5565b80821115610b2b5760405162461bcd60e51b815260206004820152601d60248201527f52657175657374696e67206d6f7265207468616e20796f7520686176650000006044820152606401610a1a565b610b3733600184611e8a565b60005b82811015610ba3576000610b4c61201f565b9050610b6a3382600160405180602001604052806000815250612091565b6000818152601d60205260408120805460019290610b89908490613520565b90915550829150610b9b905081613538565b915050610b3a565b5050600160075550565b6006546001600160a01b03163314610bd75760405162461bcd60e51b8152600401610a1a90613553565b610be182826121ab565b5050565b6060601a610bf2836122a8565b604051602001610c039291906135df565b6040516020818303038152906040529050919050565b60026007541415610c3c5760405162461bcd60e51b8152600401610a1a90613485565b6002600755601954600160a01b900460ff1615610c6b5760405162461bcd60e51b8152600401610a1a906134bc565b6000610c783360016109b2565b905060008111610c9a5760405162461bcd60e51b8152600401610a1a906134e5565b610ca633600183611e8a565b60005b81811015610d12576000610cbb61201f565b9050610cd93382600160405180602001604052806000815250612091565b6000818152601d60205260408120805460019290610cf8908490613520565b90915550829150610d0a905081613538565b915050610ca9565b50506001600755565b60008281526005602090815260408083208151808301909252546001600160a01b038116808352600160a01b9091046001600160601b0316928201929092528291610d905750604080518082019091526004546001600160a01b0381168252600160a01b90046001600160601b031660208201525b602081015160009061271090610daf906001600160601b03168761369a565b610db991906136cf565b915196919550909350505050565b6001600160a01b038516331480610de35750610de3853361092e565b610e4a5760405162461bcd60e51b815260206004820152603260248201527f455243313135353a207472616e736665722063616c6c6572206973206e6f74206044820152711bdddb995c881b9bdc88185c1c1c9bdd995960721b6064820152608401610a1a565b610e5785858585856123ae565b5050505050565b336001600160a01b037f00000000000000000000000000000000000000000000000000000000000000001614610ecf5760405162461bcd60e51b8152602060048201526016602482015275043616c6c6572206e6f74204169726e6f6465205252560541b6044820152606401610a1a565b6000838152600c602052604090205460ff16610f245760405162461bcd60e51b81526020600482015260146024820152732932b8bab2b9ba1024a2103737ba1035b737bbb760611b6044820152606401610a1a565b6000838152600c60205260408120805460ff19169055610f4682840184612e80565b9050610f536019826136e3565b600b5560405181815284907f1ca47bacd454c26163f84eff4aa514e291ba9fa67ad6029e39567c122bbed30f9060200160405180910390a250505050565b6006546001600160a01b03163314610fbb5760405162461bcd60e51b8152600401610a1a90613553565b60006064610fca47600561369a565b610fd491906136cf565b905060006064610fe547601461369a565b610fef91906136cf565b6017546040519192506000916001600160a01b039091169083908381818185875af1925050503d8060008114611041576040519150601f19603f3d011682016040523d82523d6000602084013e611046565b606091505b505090508061105457600080fd5b6018546040516000916001600160a01b03169084908381818185875af1925050503d80600081146110a1576040519150601f19603f3d011682016040523d82523d6000602084013e6110a6565b606091505b50509050806110b457600080fd5b6019546040516000916001600160a01b03169086908381818185875af1925050503d8060008114611101576040519150601f19603f3d011682016040523d82523d6000602084013e611106565b606091505b505090508061111457600080fd5b604051600090339047908381818185875af1925050503d8060008114611156576040519150601f19603f3d011682016040523d82523d6000602084013e61115b565b606091505b505090508061116957600080fd5b505050505050565b606081518351146111d65760405162461bcd60e51b815260206004820152602960248201527f455243313135353a206163636f756e747320616e6420696473206c656e677468604482015268040dad2e6dac2e8c6d60bb1b6064820152608401610a1a565b6000835167ffffffffffffffff8111156111f2576111f2612f6f565b60405190808252806020026020018201604052801561121b578160200160208202803683370190505b50905060005b84518110156112935761126685828151811061123f5761123f6136f7565b6020026020010151858381518110611259576112596136f7565b60200260200101516109b2565b828281518110611278576112786136f7565b602090810291909101015261128c81613538565b9050611221565b509392505050565b600260075414156112be5760405162461bcd60e51b8152600401610a1a90613485565b6002600755601954600160a01b900460ff16156112ed5760405162461bcd60e51b8152600401610a1a906134bc565b601b546040516370a0823160e01b81523360048201819052916000916001600160a01b03909116906370a082319060240160206040518083038186803b15801561133657600080fd5b505afa15801561134a573d6000803e3d6000fd5b505050506040513d601f19601f8201168201806040525081019061136e919061370d565b9050600081116113c05760405162461bcd60e51b815260206004820152601d60248201527f596f7520646f6e74206f776e20616e79204e464265657a204e465427730000006044820152606401610a1a565b6000805b828110156114a457601b54604051632f745c5960e01b81526001600160a01b038681166004830152602482018490526000921690632f745c599060440160206040518083038186803b15801561141957600080fd5b505afa15801561142d573d6000803e3d6000fd5b505050506040513d601f19601f82011682018060405250810190611451919061370d565b6000818152601c602052604090205490915060ff1661149157611475600184613520565b6000828152601c60205260409020805460ff1916600117905592505b508061149c81613538565b9150506113c4565b50600081116115055760405162461bcd60e51b815260206004820152602760248201527f596f75206861766520616c726561647920636c61696d656420616c6c2074686560448201526620746f6b656e7360c81b6064820152608401610a1a565b600f54816014546115169190613520565b11156115345760405162461bcd60e51b8152600401610a1a90613726565b6115503360018360405180602001604052806000815250612091565b80601160008282546115629190613520565b92505081905550806014600082825461157b9190613520565b90915550506001600755505050565b601a805461159790613588565b80601f01602080910402602001604051908101604052809291908181526020018280546115c390613588565b80156116105780601f106115e557610100808354040283529160200191611610565b820191906000526020600020905b8154815290600101906020018083116115f357829003601f168201915b505050505081565b6006546001600160a01b031633146116425760405162461bcd60e51b8152600401610a1a90613553565b8051610be190601a906020840190612d6c565b6006546001600160a01b0316331461167f5760405162461bcd60e51b8152600401610a1a90613553565b6116896000612591565b565b6006546001600160a01b031633146116b55760405162461bcd60e51b8152600401610a1a90613553565b600880546001600160a01b039485166001600160a01b031991821617909155600a9290925560098054919093169116179055565b6002600754141561170c5760405162461bcd60e51b8152600401610a1a90613485565b6002600755601954600160a01b900460ff161561173b5760405162461bcd60e51b8152600401610a1a906134bc565b60006117483360016109b2565b90506000811161176a5760405162461bcd60e51b8152600401610a1a906134e5565b61177633600180611e8a565b600061178061201f565b90506016548114156117975761179461201f565b90505b6117b33382600160405180602001604052806000815250612091565b6000818152601d602052604081208054600192906117d2908490613520565b9091555050601655506001600755565b6006546001600160a01b0316331461180c5760405162461bcd60e51b8152600401610a1a90613553565b6040516370a0823160e01b81523060048201526001600160a01b0382169063a9059cbb90339083906370a082319060240160206040518083038186803b15801561185557600080fd5b505afa158015611869573d6000803e3d6000fd5b505050506040513d601f19601f8201168201806040525081019061188d919061370d565b6040516001600160e01b031960e085901b1681526001600160a01b0390921660048301526024820152604401602060405180830381600087803b1580156118d357600080fd5b505af11580156118e7573d6000803e3d6000fd5b505050506040513d601f19601f8201168201806040525081019061190b919061375a565b61194c5760405162461bcd60e51b81526020600482015260126024820152712ab730b13632903a37903a3930b739b332b960711b6044820152606401610a1a565b50565b6006546001600160a01b031633146119795760405162461bcd60e51b8152600401610a1a90613553565b601055565b600260075414156119a15760405162461bcd60e51b8152600401610a1a90613485565b60026007556010546012546119b7906001613520565b11156119d55760405162461bcd60e51b8152600401610a1a90613726565b601954600160a01b900460ff16156119ff5760405162461bcd60e51b8152600401610a1a906134bc565b60025b601b811015611a6f576000611a1733836109b2565b905060008111611a5c5760405162461bcd60e51b815260206004820152601060248201526f139bdd0810dbdb5c1b195d194814d95d60821b6044820152606401610a1a565b5080611a6781613538565b915050611a02565b5060025b601b811015611a9a57611a8833826001611e8a565b80611a9281613538565b915050611a73565b50611ab833601b600160405180602001604052806000815250612091565b600160126000828254611acb9190613520565b90915550506001600755565b601954600160a01b900460ff1615611b015760405162461bcd60e51b8152600401610a1a906134bc565b600081600d54611b11919061369a565b905061138882601154611b249190613520565b1115611b735760405162461bcd60e51b815260206004820152602a6024820152600080516020613a2683398151915260448201526934b630b13632902a299760b11b6064820152608401610a1a565b600e5482601154611b849190613520565b1115611bd35760405162461bcd60e51b815260206004820152602a6024820152600080516020613a2683398151915260448201526934b630b136329028299760b11b6064820152608401610a1a565b611bef3360018460405180602001604052806000815250612091565b8160116000828254611c019190613520565b925050819055508160136000828254611c1a9190613520565b90915550505050565b610be13383836125e3565b6006546001600160a01b03163314611c585760405162461bcd60e51b8152600401610a1a90613553565b6019805460ff60a01b198116600160a01b9182900460ff1615909102179055565b6006546001600160a01b03163314611ca35760405162461bcd60e51b8152600401610a1a90613553565b601954600160a01b900460ff1615611ccd5760405162461bcd60e51b8152600401610a1a906134bc565b61138882601154611cde9190613520565b1115611cfc5760405162461bcd60e51b8152600401610a1a90613777565b600e5482601154611d0d9190613520565b1115611d2b5760405162461bcd60e51b8152600401610a1a90613777565b611bef33828460405180602001604052806000815250612091565b6001600160a01b038516331480611d625750611d62853361092e565b611dc05760405162461bcd60e51b815260206004820152602960248201527f455243313135353a2063616c6c6572206973206e6f74206f776e6572206e6f7260448201526808185c1c1c9bdd995960ba1b6064820152608401610a1a565b610e5785858585856126c4565b6006546001600160a01b03163314611df75760405162461bcd60e51b8152600401610a1a90613553565b6001600160a01b038116611e5c5760405162461bcd60e51b815260206004820152602660248201527f4f776e61626c653a206e6577206f776e657220697320746865207a65726f206160448201526564647265737360d01b6064820152608401610a1a565b61194c81612591565b60006001600160e01b0319821663152a902d60e11b1480610a545750610a54826127fc565b6001600160a01b038316611eec5760405162461bcd60e51b815260206004820152602360248201527f455243313135353a206275726e2066726f6d20746865207a65726f206164647260448201526265737360e81b6064820152608401610a1a565b336000611ef88461284c565b90506000611f058461284c565b9050611f2583876000858560405180602001604052806000815250612897565b6000858152602081815260408083206001600160a01b038a16845290915290205484811015611fa25760405162461bcd60e51b8152602060048201526024808201527f455243313135353a206275726e20616d6f756e7420657863656564732062616c604482015263616e636560e01b6064820152608401610a1a565b6000868152602081815260408083206001600160a01b038b81168086529184528285208a8703905582518b81529384018a90529092908816917fc3d58168c5ae7397731d063d5bbf3d657854427343f4c083240f7aacaa2d0f62910160405180910390a46040805160208101909152600090525b50505050505050565b6000612029612a10565b60006019601554424461203c9190613520565b6120469190613520565b61205091906136e3565b9050600061205d600b5490565b90506000601961206d8385613520565b61207791906136e3565b9050612084816002613520565b6015819055949350505050565b6001600160a01b0384166120f15760405162461bcd60e51b815260206004820152602160248201527f455243313135353a206d696e7420746f20746865207a65726f206164647265736044820152607360f81b6064820152608401610a1a565b3360006120fd8561284c565b9050600061210a8561284c565b905061211b83600089858589612897565b6000868152602081815260408083206001600160a01b038b1684529091528120805487929061214b908490613520565b909155505060408051878152602081018790526001600160a01b03808a1692600092918716917fc3d58168c5ae7397731d063d5bbf3d657854427343f4c083240f7aacaa2d0f62910160405180910390a461201683600089898989612b37565b6127106001600160601b03821611156122195760405162461bcd60e51b815260206004820152602a60248201527f455243323938313a20726f79616c7479206665652077696c6c206578636565646044820152692073616c65507269636560b01b6064820152608401610a1a565b6001600160a01b03821661226f5760405162461bcd60e51b815260206004820152601960248201527f455243323938313a20696e76616c6964207265636569766572000000000000006044820152606401610a1a565b604080518082019091526001600160a01b039092168083526001600160601b039091166020909201829052600160a01b90910217600455565b6060816122cc5750506040805180820190915260018152600360fc1b602082015290565b8160005b81156122f657806122e081613538565b91506122ef9050600a836136cf565b91506122d0565b60008167ffffffffffffffff81111561231157612311612f6f565b6040519080825280601f01601f19166020018201604052801561233b576020820181803683370190505b5090505b84156123a6576123506001836137ac565b915061235d600a866136e3565b612368906030613520565b60f81b81838151811061237d5761237d6136f7565b60200101906001600160f81b031916908160001a90535061239f600a866136cf565b945061233f565b949350505050565b81518351146124105760405162461bcd60e51b815260206004820152602860248201527f455243313135353a2069647320616e6420616d6f756e7473206c656e677468206044820152670dad2e6dac2e8c6d60c31b6064820152608401610a1a565b6001600160a01b0384166124365760405162461bcd60e51b8152600401610a1a906137c3565b33612445818787878787612897565b60005b845181101561252b576000858281518110612465576124656136f7565b602002602001015190506000858381518110612483576124836136f7565b602090810291909101810151600084815280835260408082206001600160a01b038e1683529093529190912054909150818110156124d35760405162461bcd60e51b8152600401610a1a90613808565b6000838152602081815260408083206001600160a01b038e8116855292528083208585039055908b16825281208054849290612510908490613520565b925050819055505050508061252490613538565b9050612448565b50846001600160a01b0316866001600160a01b0316826001600160a01b03167f4a39dc06d4c0dbc64b70af90fd698a233a518aa5d07e595d983b8c0526c8f7fb878760405161257b929190613852565b60405180910390a4611169818787878787612ca2565b600680546001600160a01b038381166001600160a01b0319831681179093556040519116919082907f8be0079c531659141344cd1fd0a4f28419497f9722a3daafe3b4186f6b6457e090600090a35050565b816001600160a01b0316836001600160a01b031614156126575760405162461bcd60e51b815260206004820152602960248201527f455243313135353a2073657474696e6720617070726f76616c20737461747573604482015268103337b91039b2b63360b91b6064820152608401610a1a565b6001600160a01b03838116600081815260016020908152604080832094871680845294825291829020805460ff191686151590811790915591519182527f17307eab39ab6107e8899845ad3d59bd9653f200f220920489ca2b5937696c31910160405180910390a3505050565b6001600160a01b0384166126ea5760405162461bcd60e51b8152600401610a1a906137c3565b3360006126f68561284c565b905060006127038561284c565b9050612713838989858589612897565b6000868152602081815260408083206001600160a01b038c168452909152902054858110156127545760405162461bcd60e51b8152600401610a1a90613808565b6000878152602081815260408083206001600160a01b038d8116855292528083208985039055908a16825281208054889290612791908490613520565b909155505060408051888152602081018890526001600160a01b03808b16928c821692918816917fc3d58168c5ae7397731d063d5bbf3d657854427343f4c083240f7aacaa2d0f62910160405180910390a46127f1848a8a8a8a8a612b37565b505050505050505050565b60006001600160e01b03198216636cdb3d1360e11b148061282d57506001600160e01b031982166303a24d0760e21b145b80610a5457506301ffc9a760e01b6001600160e01b0319831614610a54565b60408051600180825281830190925260609160009190602080830190803683370190505090508281600081518110612886576128866136f7565b602090810291909101015292915050565b6001600160a01b03851661291e5760005b835181101561291c578281815181106128c3576128c36136f7565b6020026020010151600360008684815181106128e1576128e16136f7565b6020026020010151815260200190815260200160002060008282546129069190613520565b90915550612915905081613538565b90506128a8565b505b6001600160a01b0384166111695760005b835181101561201657600084828151811061294c5761294c6136f7565b60200260200101519050600084838151811061296a5761296a6136f7565b60200260200101519050600060036000848152602001908152602001600020549050818110156129ed5760405162461bcd60e51b815260206004820152602860248201527f455243313135353a206275726e20616d6f756e74206578636565647320746f74604482015267616c537570706c7960c01b6064820152608401610a1a565b60009283526003602052604090922091039055612a0981613538565b905061292f565b600854600a54600954604051636e6be03f60e01b81526001600160a01b0393841660048201526024810192909252306044830181905290831660648301526084820152631b8c6c8560e11b60a482015260e060c4820152600060e48201819052917f00000000000000000000000000000000000000000000000000000000000000001690636e6be03f9061010401602060405180830381600087803b158015612ab857600080fd5b505af1158015612acc573d6000803e3d6000fd5b505050506040513d601f19601f82011682018060405250810190612af0919061370d565b6000818152600c6020526040808220805460ff191660011790555191925082917fcba2da2f3c0c732a104019a3104936397dde7343964c1518ceb760052e4537b19190a250565b6001600160a01b0384163b156111695760405163f23a6e6160e01b81526001600160a01b0385169063f23a6e6190612b7b9089908990889088908890600401613877565b602060405180830381600087803b158015612b9557600080fd5b505af1925050508015612bc5575060408051601f3d908101601f19168201909252612bc2918101906138bc565b60015b612c7257612bd16138d9565b806308c379a01415612c0b5750612be66138f5565b80612bf15750612c0d565b8060405162461bcd60e51b8152600401610a1a9190612f3a565b505b60405162461bcd60e51b815260206004820152603460248201527f455243313135353a207472616e7366657220746f206e6f6e20455243313135356044820152732932b1b2b4bb32b91034b6b83632b6b2b73a32b960611b6064820152608401610a1a565b6001600160e01b0319811663f23a6e6160e01b146120165760405162461bcd60e51b8152600401610a1a9061397f565b6001600160a01b0384163b156111695760405163bc197c8160e01b81526001600160a01b0385169063bc197c8190612ce690899089908890889088906004016139c7565b602060405180830381600087803b158015612d0057600080fd5b505af1925050508015612d30575060408051601f3d908101601f19168201909252612d2d918101906138bc565b60015b612d3c57612bd16138d9565b6001600160e01b0319811663bc197c8160e01b146120165760405162461bcd60e51b8152600401610a1a9061397f565b828054612d7890613588565b90600052602060002090601f016020900481019282612d9a5760008555612de0565b82601f10612db357805160ff1916838001178555612de0565b82800160010185558215612de0579182015b82811115612de0578251825591602001919060010190612dc5565b50612dec929150612df0565b5090565b5b80821115612dec5760008155600101612df1565b6001600160a01b038116811461194c57600080fd5b60008060408385031215612e2d57600080fd5b8235612e3881612e05565b946020939093013593505050565b6001600160e01b03198116811461194c57600080fd5b600060208284031215612e6e57600080fd5b8135612e7981612e46565b9392505050565b600060208284031215612e9257600080fd5b5035919050565b60008060408385031215612eac57600080fd5b8235612eb781612e05565b915060208301356001600160601b0381168114612ed357600080fd5b809150509250929050565b60005b83811015612ef9578181015183820152602001612ee1565b83811115612f08576000848401525b50505050565b60008151808452612f26816020860160208601612ede565b601f01601f19169290920160200192915050565b602081526000612e796020830184612f0e565b60008060408385031215612f6057600080fd5b50508035926020909101359150565b634e487b7160e01b600052604160045260246000fd5b601f8201601f1916810167ffffffffffffffff81118282101715612fab57612fab612f6f565b6040525050565b600067ffffffffffffffff821115612fcc57612fcc612f6f565b5060051b60200190565b600082601f830112612fe757600080fd5b81356020612ff482612fb2565b6040516130018282612f85565b83815260059390931b850182019282810191508684111561302157600080fd5b8286015b8481101561303c5780358352918301918301613025565b509695505050505050565b600067ffffffffffffffff83111561306157613061612f6f565b604051613078601f8501601f191660200182612f85565b80915083815284848401111561308d57600080fd5b83836020830137600060208583010152509392505050565b600082601f8301126130b657600080fd5b612e7983833560208501613047565b600080600080600060a086880312156130dd57600080fd5b85356130e881612e05565b945060208601356130f881612e05565b9350604086013567ffffffffffffffff8082111561311557600080fd5b61312189838a01612fd6565b9450606088013591508082111561313757600080fd5b61314389838a01612fd6565b9350608088013591508082111561315957600080fd5b50613166888289016130a5565b9150509295509295909350565b60008060006040848603121561318857600080fd5b83359250602084013567ffffffffffffffff808211156131a757600080fd5b818601915086601f8301126131bb57600080fd5b8135818111156131ca57600080fd5b8760208285010111156131dc57600080fd5b6020830194508093505050509250925092565b6000806040838503121561320257600080fd5b823567ffffffffffffffff8082111561321a57600080fd5b818501915085601f83011261322e57600080fd5b8135602061323b82612fb2565b6040516132488282612f85565b83815260059390931b850182019282810191508984111561326857600080fd5b948201945b8386101561328f57853561328081612e05565b8252948201949082019061326d565b965050860135925050808211156132a557600080fd5b506132b285828601612fd6565b9150509250929050565b600081518084526020808501945080840160005b838110156132ec578151875295820195908201906001016132d0565b509495945050505050565b602081526000612e7960208301846132bc565b60006020828403121561331c57600080fd5b813567ffffffffffffffff81111561333357600080fd5b8201601f8101841361334457600080fd5b6123a684823560208401613047565b60008060006060848603121561336857600080fd5b833561337381612e05565b925060208401359150604084013561338a81612e05565b809150509250925092565b6000602082840312156133a757600080fd5b8135612e7981612e05565b801515811461194c57600080fd5b600080604083850312156133d357600080fd5b82356133de81612e05565b91506020830135612ed3816133b2565b6000806040838503121561340157600080fd5b823561340c81612e05565b91506020830135612ed381612e05565b600080600080600060a0868803121561343457600080fd5b853561343f81612e05565b9450602086013561344f81612e05565b93506040860135925060608601359150608086013567ffffffffffffffff81111561347957600080fd5b613166888289016130a5565b6020808252601f908201527f5265656e7472616e637947756172643a207265656e7472616e742063616c6c00604082015260600190565b6020808252600f908201526e10dbdb9d1c9858dd0814185d5cd959608a1b604082015260600190565b6020808252600b908201526a4e6565642061206375626560a81b604082015260600190565b634e487b7160e01b600052601160045260246000fd5b600082198211156135335761353361350a565b500190565b600060001982141561354c5761354c61350a565b5060010190565b6020808252818101527f4f776e61626c653a2063616c6c6572206973206e6f7420746865206f776e6572604082015260600190565b600181811c9082168061359c57607f821691505b602082108114156135bd57634e487b7160e01b600052602260045260246000fd5b50919050565b600081516135d5818560208601612ede565b9290920192915050565b600080845481600182811c9150808316806135fb57607f831692505b602080841082141561361b57634e487b7160e01b86526022600452602486fd5b81801561362f57600181146136405761366d565b60ff1986168952848901965061366d565b60008b81526020902060005b868110156136655781548b82015290850190830161364c565b505084890196505b50505050505061369161368082866135c3565b64173539b7b760d91b815260050190565b95945050505050565b60008160001904831182151516156136b4576136b461350a565b500290565b634e487b7160e01b600052601260045260246000fd5b6000826136de576136de6136b9565b500490565b6000826136f2576136f26136b9565b500690565b634e487b7160e01b600052603260045260246000fd5b60006020828403121561371f57600080fd5b5051919050565b6020808252602690820152600080516020613a26833981519152604082015265696c61626c6560d01b606082015260800190565b60006020828403121561376c57600080fd5b8151612e79816133b2565b6020808252602790820152600080516020613a2683398151915260408201526634b630b136329760c91b606082015260800190565b6000828210156137be576137be61350a565b500390565b60208082526025908201527f455243313135353a207472616e7366657220746f20746865207a65726f206164604082015264647265737360d81b606082015260800190565b6020808252602a908201527f455243313135353a20696e73756666696369656e742062616c616e636520666f60408201526939103a3930b739b332b960b11b606082015260800190565b60408152600061386560408301856132bc565b828103602084015261369181856132bc565b6001600160a01b03868116825285166020820152604081018490526060810183905260a0608082018190526000906138b190830184612f0e565b979650505050505050565b6000602082840312156138ce57600080fd5b8151612e7981612e46565b600060033d11156138f25760046000803e5060005160e01c5b90565b600060443d10156139035790565b6040516003193d81016004833e81513d67ffffffffffffffff816024840111818411171561393357505050505090565b828501915081518181111561394b5750505050505090565b843d87010160208285010111156139655750505050505090565b61397460208286010187612f85565b509095945050505050565b60208082526028908201527f455243313135353a204552433131353552656365697665722072656a656374656040820152676420746f6b656e7360c01b606082015260800190565b6001600160a01b0386811682528516602082015260a0604082018190526000906139f3908301866132bc565b8281036060840152613a0581866132bc565b90508281036080840152613a198185612f0e565b9897505050505050505056fe4578636565647320746865206d617820746f74616c20737570706c7920617661a26469706673582212206878cdd904dc229e98452c2d98d625d761ca2df153ee1034582fb711578b373164736f6c63430008090033",
  "linkReferences": {},
  "deployedLinkReferences": {}
}