{
  "_format": "hh-sol-artifact-1",
  "contractName": "TestZone",
  "sourceName": "contracts/BeezCube.sol",
  "abi": [
    {
      "inputs": [
        {
          "internalType": "address",
          "name": "_ogNFBeezContract",
          "type": "address"
        },
        {
          "internalType": "address",
          "name": "_airnodeRrp",
          "type": "address"
        },
        {
          "internalType": "address",
          "name": "_royalty",
          "type": "address"
        },
        {
          "internalType": "string",
          "name": "_cubeNFT",
          "type": "string"
        },
        {
          "internalType": "address",
          "name": "_beezSafe",
          "type": "address"
        }
      ],
      "stateMutability": "nonpayable",
      "type": "constructor"
    },
    {
      "anonymous": false,
      "inputs": [
        {
          "indexed": false,
          "internalType": "address",
          "name": "reciever",
          "type": "address"
        },
        {
          "indexed": false,
          "internalType": "uint256",
          "name": "_amount",
          "type": "uint256"
        },
        {
          "indexed": false,
          "internalType": "uint256",
          "name": "_id",
          "type": "uint256"
        }
      ],
      "name": "AdminMinted",
      "type": "event"
    },
    {
      "anonymous": false,
      "inputs": [
        {
          "indexed": true,
          "internalType": "address",
          "name": "account",
          "type": "address"
        },
        {
          "indexed": true,
          "internalType": "address",
          "name": "operator",
          "type": "address"
        },
        {
          "indexed": false,
          "internalType": "bool",
          "name": "approved",
          "type": "bool"
        }
      ],
      "name": "ApprovalForAll",
      "type": "event"
    },
    {
      "anonymous": false,
      "inputs": [
        {
          "indexed": false,
          "internalType": "address",
          "name": "minter",
          "type": "address"
        },
        {
          "indexed": false,
          "internalType": "uint256",
          "name": "_amount",
          "type": "uint256"
        }
      ],
      "name": "CubeBroken",
      "type": "event"
    },
    {
      "anonymous": false,
      "inputs": [
        {
          "indexed": false,
          "internalType": "address",
          "name": "minter",
          "type": "address"
        },
        {
          "indexed": false,
          "internalType": "uint256",
          "name": "_amount",
          "type": "uint256"
        }
      ],
      "name": "CubeClaimed",
      "type": "event"
    },
    {
      "anonymous": false,
      "inputs": [
        {
          "indexed": false,
          "internalType": "address",
          "name": "minter",
          "type": "address"
        },
        {
          "indexed": false,
          "internalType": "uint256",
          "name": "_amount",
          "type": "uint256"
        }
      ],
      "name": "CubeMinted",
      "type": "event"
    },
    {
      "anonymous": false,
      "inputs": [
        {
          "indexed": false,
          "internalType": "address",
          "name": "minter",
          "type": "address"
        }
      ],
      "name": "DaoCubeCreated",
      "type": "event"
    },
    {
      "anonymous": false,
      "inputs": [
        {
          "indexed": true,
          "internalType": "address",
          "name": "previousOwner",
          "type": "address"
        },
        {
          "indexed": true,
          "internalType": "address",
          "name": "newOwner",
          "type": "address"
        }
      ],
      "name": "OwnershipTransferred",
      "type": "event"
    },
    {
      "anonymous": false,
      "inputs": [
        {
          "indexed": true,
          "internalType": "bytes32",
          "name": "requestId",
          "type": "bytes32"
        },
        {
          "indexed": false,
          "internalType": "uint256",
          "name": "response",
          "type": "uint256"
        }
      ],
      "name": "ReceivedUint256",
      "type": "event"
    },
    {
      "anonymous": false,
      "inputs": [
        {
          "indexed": true,
          "internalType": "bytes32",
          "name": "requestId",
          "type": "bytes32"
        }
      ],
      "name": "RequestedUint256",
      "type": "event"
    },
    {
      "anonymous": false,
      "inputs": [
        {
          "indexed": true,
          "internalType": "address",
          "name": "operator",
          "type": "address"
        },
        {
          "indexed": true,
          "internalType": "address",
          "name": "from",
          "type": "address"
        },
        {
          "indexed": true,
          "internalType": "address",
          "name": "to",
          "type": "address"
        },
        {
          "indexed": false,
          "internalType": "uint256[]",
          "name": "ids",
          "type": "uint256[]"
        },
        {
          "indexed": false,
          "internalType": "uint256[]",
          "name": "values",
          "type": "uint256[]"
        }
      ],
      "name": "TransferBatch",
      "type": "event"
    },
    {
      "anonymous": false,
      "inputs": [
        {
          "indexed": true,
          "internalType": "address",
          "name": "operator",
          "type": "address"
        },
        {
          "indexed": true,
          "internalType": "address",
          "name": "from",
          "type": "address"
        },
        {
          "indexed": true,
          "internalType": "address",
          "name": "to",
          "type": "address"
        },
        {
          "indexed": false,
          "internalType": "uint256",
          "name": "id",
          "type": "uint256"
        },
        {
          "indexed": false,
          "internalType": "uint256",
          "name": "value",
          "type": "uint256"
        }
      ],
      "name": "TransferSingle",
      "type": "event"
    },
    {
      "anonymous": false,
      "inputs": [
        {
          "indexed": false,
          "internalType": "string",
          "name": "value",
          "type": "string"
        },
        {
          "indexed": true,
          "internalType": "uint256",
          "name": "id",
          "type": "uint256"
        }
      ],
      "name": "URI",
      "type": "event"
    },
    {
      "stateMutability": "payable",
      "type": "fallback"
    },
    {
      "inputs": [],
      "name": "CubeNFT",
      "outputs": [
        {
          "internalType": "string",
          "name": "",
          "type": "string"
        }
      ],
      "stateMutability": "view",
      "type": "function"
    },
    {
      "inputs": [],
      "name": "DAOCubesMinted",
      "outputs": [
        {
          "internalType": "uint256",
          "name": "",
          "type": "uint256"
        }
      ],
      "stateMutability": "view",
      "type": "function"
    },
    {
      "inputs": [
        {
          "internalType": "address",
          "name": "_reciever",
          "type": "address"
        },
        {
          "internalType": "uint256",
          "name": "_amount",
          "type": "uint256"
        },
        {
          "internalType": "uint256",
          "name": "_tokenId",
          "type": "uint256"
        }
      ],
      "name": "adminMint",
      "outputs": [],
      "stateMutability": "nonpayable",
      "type": "function"
    },
    {
      "inputs": [],
      "name": "airnode",
      "outputs": [
        {
          "internalType": "address",
          "name": "",
          "type": "address"
        }
      ],
      "stateMutability": "view",
      "type": "function"
    },
    {
      "inputs": [],
      "name": "airnodeRrp",
      "outputs": [
        {
          "internalType": "contract IAirnodeRrpV0",
          "name": "",
          "type": "address"
        }
      ],
      "stateMutability": "view",
      "type": "function"
    },
    {
      "inputs": [
        {
          "internalType": "address",
          "name": "account",
          "type": "address"
        },
        {
          "internalType": "uint256",
          "name": "id",
          "type": "uint256"
        }
      ],
      "name": "balanceOf",
      "outputs": [
        {
          "internalType": "uint256",
          "name": "",
          "type": "uint256"
        }
      ],
      "stateMutability": "view",
      "type": "function"
    },
    {
      "inputs": [
        {
          "internalType": "address[]",
          "name": "accounts",
          "type": "address[]"
        },
        {
          "internalType": "uint256[]",
          "name": "ids",
          "type": "uint256[]"
        }
      ],
      "name": "balanceOfBatch",
      "outputs": [
        {
          "internalType": "uint256[]",
          "name": "",
          "type": "uint256[]"
        }
      ],
      "stateMutability": "view",
      "type": "function"
    },
    {
      "inputs": [],
      "name": "beezSafe",
      "outputs": [
        {
          "internalType": "address",
          "name": "",
          "type": "address"
        }
      ],
      "stateMutability": "view",
      "type": "function"
    },
    {
      "inputs": [],
      "name": "breakOpen",
      "outputs": [],
      "stateMutability": "nonpayable",
      "type": "function"
    },
    {
      "inputs": [
        {
          "internalType": "uint256",
          "name": "_amount",
          "type": "uint256"
        }
      ],
      "name": "bulkBreakOpen",
      "outputs": [],
      "stateMutability": "nonpayable",
      "type": "function"
    },
    {
      "inputs": [],
      "name": "bulkBreakOpenAll",
      "outputs": [],
      "stateMutability": "nonpayable",
      "type": "function"
    },
    {
      "inputs": [],
      "name": "claim",
      "outputs": [],
      "stateMutability": "nonpayable",
      "type": "function"
    },
    {
      "inputs": [],
      "name": "createDAOCube",
      "outputs": [],
      "stateMutability": "nonpayable",
      "type": "function"
    },
    {
      "inputs": [],
      "name": "cubesClaimed",
      "outputs": [
        {
          "internalType": "uint256",
          "name": "",
          "type": "uint256"
        }
      ],
      "stateMutability": "view",
      "type": "function"
    },
    {
      "inputs": [],
      "name": "cubesMinted",
      "outputs": [
        {
          "internalType": "uint256",
          "name": "",
          "type": "uint256"
        }
      ],
      "stateMutability": "view",
      "type": "function"
    },
    {
      "inputs": [],
      "name": "cubesPurchased",
      "outputs": [
        {
          "internalType": "uint256",
          "name": "",
          "type": "uint256"
        }
      ],
      "stateMutability": "view",
      "type": "function"
    },
    {
      "inputs": [],
      "name": "endpointIdUint256",
      "outputs": [
        {
          "internalType": "bytes32",
          "name": "",
          "type": "bytes32"
        }
      ],
      "stateMutability": "view",
      "type": "function"
    },
    {
      "inputs": [
        {
          "internalType": "uint256",
          "name": "id",
          "type": "uint256"
        }
      ],
      "name": "exists",
      "outputs": [
        {
          "internalType": "bool",
          "name": "",
          "type": "bool"
        }
      ],
      "stateMutability": "view",
      "type": "function"
    },
    {
      "inputs": [
        {
          "internalType": "bytes32",
          "name": "",
          "type": "bytes32"
        }
      ],
      "name": "expectingRequestWithIdToBeFulfilled",
      "outputs": [
        {
          "internalType": "bool",
          "name": "",
          "type": "bool"
        }
      ],
      "stateMutability": "view",
      "type": "function"
    },
    {
      "inputs": [
        {
          "internalType": "bytes32",
          "name": "requestId",
          "type": "bytes32"
        },
        {
          "internalType": "bytes",
          "name": "data",
          "type": "bytes"
        }
      ],
      "name": "fulfillUint256",
      "outputs": [],
      "stateMutability": "nonpayable",
      "type": "function"
    },
    {
      "inputs": [
        {
          "internalType": "address",
          "name": "account",
          "type": "address"
        },
        {
          "internalType": "address",
          "name": "operator",
          "type": "address"
        }
      ],
      "name": "isApprovedForAll",
      "outputs": [
        {
          "internalType": "bool",
          "name": "",
          "type": "bool"
        }
      ],
      "stateMutability": "view",
      "type": "function"
    },
    {
      "inputs": [],
      "name": "maxClaims",
      "outputs": [
        {
          "internalType": "uint256",
          "name": "",
          "type": "uint256"
        }
      ],
      "stateMutability": "view",
      "type": "function"
    },
    {
      "inputs": [],
      "name": "maxDAOCube",
      "outputs": [
        {
          "internalType": "uint256",
          "name": "",
          "type": "uint256"
        }
      ],
      "stateMutability": "view",
      "type": "function"
    },
    {
      "inputs": [],
      "name": "maxPurchaseSupply",
      "outputs": [
        {
          "internalType": "uint256",
          "name": "",
          "type": "uint256"
        }
      ],
      "stateMutability": "view",
      "type": "function"
    },
    {
      "inputs": [],
      "name": "maxTotalSupply",
      "outputs": [
        {
          "internalType": "uint256",
          "name": "",
          "type": "uint256"
        }
      ],
      "stateMutability": "view",
      "type": "function"
    },
    {
      "inputs": [
        {
          "internalType": "uint256",
          "name": "amount",
          "type": "uint256"
        }
      ],
      "name": "mint",
      "outputs": [],
      "stateMutability": "payable",
      "type": "function"
    },
    {
      "inputs": [],
      "name": "name",
      "outputs": [
        {
          "internalType": "string",
          "name": "",
          "type": "string"
        }
      ],
      "stateMutability": "pure",
      "type": "function"
    },
    {
      "inputs": [
        {
          "internalType": "uint256",
          "name": "",
          "type": "uint256"
        }
      ],
      "name": "nfbeezClaimed",
      "outputs": [
        {
          "internalType": "bool",
          "name": "",
          "type": "bool"
        }
      ],
      "stateMutability": "view",
      "type": "function"
    },
    {
      "inputs": [],
      "name": "owner",
      "outputs": [
        {
          "internalType": "address",
          "name": "",
          "type": "address"
        }
      ],
      "stateMutability": "view",
      "type": "function"
    },
    {
      "inputs": [],
      "name": "paused",
      "outputs": [
        {
          "internalType": "bool",
          "name": "",
          "type": "bool"
        }
      ],
      "stateMutability": "view",
      "type": "function"
    },
    {
      "inputs": [],
      "name": "renounceOwnership",
      "outputs": [],
      "stateMutability": "nonpayable",
      "type": "function"
    },
    {
      "inputs": [
        {
          "internalType": "uint256",
          "name": "_tokenId",
          "type": "uint256"
        },
        {
          "internalType": "uint256",
          "name": "_salePrice",
          "type": "uint256"
        }
      ],
      "name": "royaltyInfo",
      "outputs": [
        {
          "internalType": "address",
          "name": "",
          "type": "address"
        },
        {
          "internalType": "uint256",
          "name": "",
          "type": "uint256"
        }
      ],
      "stateMutability": "view",
      "type": "function"
    },
    {
      "inputs": [
        {
          "internalType": "address",
          "name": "from",
          "type": "address"
        },
        {
          "internalType": "address",
          "name": "to",
          "type": "address"
        },
        {
          "internalType": "uint256[]",
          "name": "ids",
          "type": "uint256[]"
        },
        {
          "internalType": "uint256[]",
          "name": "amounts",
          "type": "uint256[]"
        },
        {
          "internalType": "bytes",
          "name": "data",
          "type": "bytes"
        }
      ],
      "name": "safeBatchTransferFrom",
      "outputs": [],
      "stateMutability": "nonpayable",
      "type": "function"
    },
    {
      "inputs": [
        {
          "internalType": "address",
          "name": "from",
          "type": "address"
        },
        {
          "internalType": "address",
          "name": "to",
          "type": "address"
        },
        {
          "internalType": "uint256",
          "name": "id",
          "type": "uint256"
        },
        {
          "internalType": "uint256",
          "name": "amount",
          "type": "uint256"
        },
        {
          "internalType": "bytes",
          "name": "data",
          "type": "bytes"
        }
      ],
      "name": "safeTransferFrom",
      "outputs": [],
      "stateMutability": "nonpayable",
      "type": "function"
    },
    {
      "inputs": [
        {
          "internalType": "address",
          "name": "operator",
          "type": "address"
        },
        {
          "internalType": "bool",
          "name": "approved",
          "type": "bool"
        }
      ],
      "name": "setApprovalForAll",
      "outputs": [],
      "stateMutability": "nonpayable",
      "type": "function"
    },
    {
      "inputs": [
        {
          "internalType": "string",
          "name": "_newBaseURI",
          "type": "string"
        }
      ],
      "name": "setBaseURI",
      "outputs": [],
      "stateMutability": "nonpayable",
      "type": "function"
    },
    {
      "inputs": [
        {
          "internalType": "uint256",
          "name": "_newMax",
          "type": "uint256"
        }
      ],
      "name": "setNewDAOCubeMax",
      "outputs": [],
      "stateMutability": "nonpayable",
      "type": "function"
    },
    {
      "inputs": [
        {
          "internalType": "address",
          "name": "_airnode",
          "type": "address"
        },
        {
          "internalType": "bytes32",
          "name": "_endpointIdUint256",
          "type": "bytes32"
        },
        {
          "internalType": "address",
          "name": "_sponsorWallet",
          "type": "address"
        }
      ],
      "name": "setRequestParameters",
      "outputs": [],
      "stateMutability": "nonpayable",
      "type": "function"
    },
    {
      "inputs": [
        {
          "internalType": "address",
          "name": "_receiver",
          "type": "address"
        },
        {
          "internalType": "uint96",
          "name": "_royaltyFeesInBips",
          "type": "uint96"
        }
      ],
      "name": "setRoyaltyInfo",
      "outputs": [],
      "stateMutability": "nonpayable",
      "type": "function"
    },
    {
      "inputs": [],
      "name": "sponsorWallet",
      "outputs": [
        {
          "internalType": "address",
          "name": "",
          "type": "address"
        }
      ],
      "stateMutability": "view",
      "type": "function"
    },
    {
      "inputs": [
        {
          "internalType": "bytes4",
          "name": "interfaceId",
          "type": "bytes4"
        }
      ],
      "name": "supportsInterface",
      "outputs": [
        {
          "internalType": "bool",
          "name": "",
          "type": "bool"
        }
      ],
      "stateMutability": "view",
      "type": "function"
    },
    {
      "inputs": [],
      "name": "symbol",
      "outputs": [
        {
          "internalType": "string",
          "name": "",
          "type": "string"
        }
      ],
      "stateMutability": "pure",
      "type": "function"
    },
    {
      "inputs": [],
      "name": "togglePause",
      "outputs": [],
      "stateMutability": "nonpayable",
      "type": "function"
    },
    {
      "inputs": [],
      "name": "tokenPrice",
      "outputs": [
        {
          "internalType": "uint256",
          "name": "",
          "type": "uint256"
        }
      ],
      "stateMutability": "view",
      "type": "function"
    },
    {
      "inputs": [
        {
          "internalType": "uint256",
          "name": "",
          "type": "uint256"
        }
      ],
      "name": "tokensMinted",
      "outputs": [
        {
          "internalType": "uint256",
          "name": "",
          "type": "uint256"
        }
      ],
      "stateMutability": "view",
      "type": "function"
    },
    {
      "inputs": [
        {
          "internalType": "uint256",
          "name": "id",
          "type": "uint256"
        }
      ],
      "name": "totalSupply",
      "outputs": [
        {
          "internalType": "uint256",
          "name": "",
          "type": "uint256"
        }
      ],
      "stateMutability": "view",
      "type": "function"
    },
    {
      "inputs": [
        {
          "internalType": "address",
          "name": "newOwner",
          "type": "address"
        }
      ],
      "name": "transferOwnership",
      "outputs": [],
      "stateMutability": "nonpayable",
      "type": "function"
    },
    {
      "inputs": [
        {
          "internalType": "address",
          "name": "_beezSafe",
          "type": "address"
        }
      ],
      "name": "updateBeezWallet",
      "outputs": [],
      "stateMutability": "nonpayable",
      "type": "function"
    },
    {
      "inputs": [
        {
          "internalType": "uint256",
          "name": "_tokenId",
          "type": "uint256"
        }
      ],
      "name": "uri",
      "outputs": [
        {
          "internalType": "string",
          "name": "",
          "type": "string"
        }
      ],
      "stateMutability": "view",
      "type": "function"
    },
    {
      "inputs": [],
      "name": "withdraw",
      "outputs": [],
      "stateMutability": "nonpayable",
      "type": "function"
    },
    {
      "inputs": [
        {
          "internalType": "contract IERC20",
          "name": "token",
          "type": "address"
        }
      ],
      "name": "withdrawToken",
      "outputs": [],
      "stateMutability": "nonpayable",
      "type": "function"
    },
    {
      "stateMutability": "payable",
      "type": "receive"
    }
  ],
  "bytecode": "0x655af3107a4000600d9081556109ab600e9081556109dd600f90815560c860109081556103e0604052600260a0908152600360c052600460e052600561010052600661012052600761014052600861016052600961018052600a6101a052600b6101c052600c6101e0526102009490945261022092909252610240526102605260116102805260126102a05260136102c05260146102e0526015610300526016610320526017610340526018610360819052601961038052601a6103a0819052601b6103c052620000d192906200051b565b506040805161034081018252600180825260208201819052918101829052606081018290526080810182905260a0810182905260c0810182905260e08101829052610100810182905261012081018290526101408101829052610160810182905261018081018290526101a081018290526101c081018290526101e08101829052610200810182905261022081018290526102408101829052610260810182905261028081018290526102a081018290526102c081018290526102e081018290526103008101829052610320810191909152620001b390601990601a6200051b565b5060408051608081018252601c8152601d6020820152601e91810191909152601f6060820152620001e990601a9060046200051b565b506040805160808101825260018082526020820181905291810182905260608101919091526200021e90601b9060046200051b565b503480156200022c57600080fd5b50604051620048e8380380620048e88339810160408190526200024f9162000637565b8380836200025d8162000349565b50620002693362000362565b600160078190556001600160a01b0382166080819052604051632b77c09f60e21b815230600482015260248101929092529063addf027c90604401600060405180830381600087803b158015620002bf57600080fd5b505af1158015620002d4573d6000803e3d6000fd5b5050601d80546001600160a01b0319166001600160a01b038b16179055506101f4925062000307915085905082620003b4565b82516200031c90601c90602086019062000570565b5050601780546001600160a01b0319166001600160a01b0392909216919091179055506200079e92505050565b80516200035e90600290602084019062000570565b5050565b600680546001600160a01b038381166001600160a01b0319831681179093556040519116919082907f8be0079c531659141344cd1fd0a4f28419497f9722a3daafe3b4186f6b6457e090600090a35050565b6006546001600160a01b03163314620004145760405162461bcd60e51b815260206004820181905260248201527f4f776e61626c653a2063616c6c6572206973206e6f7420746865206f776e657260448201526064015b60405180910390fd5b6200035e82826127106001600160601b03821611156200048a5760405162461bcd60e51b815260206004820152602a60248201527f455243323938313a20726f79616c7479206665652077696c6c206578636565646044820152692073616c65507269636560b01b60648201526084016200040b565b6001600160a01b038216620004e25760405162461bcd60e51b815260206004820152601960248201527f455243323938313a20696e76616c69642072656365697665720000000000000060448201526064016200040b565b604080518082019091526001600160a01b039092168083526001600160601b039091166020909201829052600160a01b90910217600455565b8280548282559060005260206000209081019282156200055e579160200282015b828111156200055e578251829060ff169055916020019190600101906200053c565b506200056c929150620005ed565b5090565b8280546200057e9062000761565b90600052602060002090601f016020900481019282620005a257600085556200055e565b82601f10620005bd57805160ff19168380011785556200055e565b828001600101855582156200055e579182015b828111156200055e578251825591602001919060010190620005d0565b5b808211156200056c5760008155600101620005ee565b80516001600160a01b03811681146200061c57600080fd5b919050565b634e487b7160e01b600052604160045260246000fd5b600080600080600060a086880312156200065057600080fd5b6200065b8662000604565b945060206200066c81880162000604565b94506200067c6040880162000604565b60608801519094506001600160401b03808211156200069a57600080fd5b818901915089601f830112620006af57600080fd5b815181811115620006c457620006c462000621565b604051601f8201601f19908116603f01168101908382118183101715620006ef57620006ef62000621565b816040528281528c868487010111156200070857600080fd5b600093505b828410156200072c57848401860151818501870152928501926200070d565b828411156200073e5760008684830101525b809750505050505050620007556080870162000604565b90509295509295909350565b600181811c908216806200077657607f821691505b602082108114156200079857634e487b7160e01b600052602260045260246000fd5b50919050565b608051614120620007c8600039600081816106070152818161107f01526124b301526141206000f3fe6080604052600436106102c55760003560e01c806371bab6661161017e578063a36ff4d8116100d3578063cf5380b41161008f578063f242432a1161006c578063f242432a14610903578063f2fde38b14610923578063f710ee5f14610943578063ff1240211461095957005b8063cf5380b41461088e578063d870b230146108a4578063e985e9c5146108ba57005b8063a36ff4d8146107bc578063bba8bba4146107dc578063bd85b039146107fc578063bf90fb4e14610829578063c4ae316814610849578063cab3a16b1461085e57005b8063894760691161013a57806395d89b411161011757806395d89b411461074757806396b8c99014610774578063a0712d6814610789578063a22cb4651461079c57005b806389476069146106e95780638da5cb5b1461070957806390e414e31461072757005b806371bab666146105f55780637bdf2525146106415780637f74cde2146106615780637ff9b5961461068e578063805e5c67146106a4578063851244f7146106b957005b80632ab4d052116102345780634e1273f4116101f057806351b323f0116101cd57806351b323f01461058a57806355f804b31461059f5780635c975abb146105bf578063715018a6146105e057005b80634e1273f4146105195780634e71d92d146105465780634f558e791461055b57005b80632ab4d052146104825780632eb2c2d6146104985780632f1bbbb3146104b85780633718d90a146104ce5780633ccfd60b146104ee57806340a1706f1461050357005b806307b9fc571161028357806307b9fc57146103cc5780630e89341c146103e257806313c1fa31146104025780631bb47c5314610418578063232a7f601461042e5780632a55205a1461044357005b80624a84cb146102ce578062fdd58e146102ee57806301ffc9a714610321578063027b955c1461035157806302fa7c471461037157806306fdde031461039157005b366102cc57005b005b3480156102da57600080fd5b506102cc6102e936600461337e565b610979565b3480156102fa57600080fd5b5061030e6103093660046133b3565b610ad8565b6040519081526020015b60405180910390f35b34801561032d57600080fd5b5061034161033c3660046133f5565b610b6a565b6040519015158152602001610318565b34801561035d57600080fd5b506102cc61036c366004613419565b610b7b565b34801561037d57600080fd5b506102cc61038c366004613432565b610d49565b34801561039d57600080fd5b5060408051808201909152600981526854455354205a4f4e4560b81b60208201525b60405161031891906134cf565b3480156103d857600080fd5b5061030e600a5481565b3480156103ee57600080fd5b506103bf6103fd366004613419565b610d81565b34801561040e57600080fd5b5061030e60135481565b34801561042457600080fd5b5061030e600e5481565b34801561043a57600080fd5b506102cc610db5565b34801561044f57600080fd5b5061046361045e3660046134e2565b610f31565b604080516001600160a01b039093168352602083019190915201610318565b34801561048e57600080fd5b5061030e61138881565b3480156104a457600080fd5b506102cc6104b336600461365a565b610fdd565b3480156104c457600080fd5b5061030e60145481565b3480156104da57600080fd5b506102cc6104e9366004613708565b611074565b3480156104fa57600080fd5b506102cc61119f565b34801561050f57600080fd5b5061030e60125481565b34801561052557600080fd5b50610539610534366004613784565b61130b565b604051610318919061388c565b34801561055257600080fd5b506102cc611435565b34801561056757600080fd5b50610341610576366004613419565b600090815260036020526040902054151590565b34801561059657600080fd5b506103bf611750565b3480156105ab57600080fd5b506102cc6105ba36600461389f565b6117de565b3480156105cb57600080fd5b5060175461034190600160a01b900460ff1681565b3480156105ec57600080fd5b506102cc61181b565b34801561060157600080fd5b506106297f000000000000000000000000000000000000000000000000000000000000000081565b6040516001600160a01b039091168152602001610318565b34801561064d57600080fd5b506102cc61065c3660046138e8565b611851565b34801561066d57600080fd5b5061030e61067c366004613419565b601f6020526000908152604090205481565b34801561069a57600080fd5b5061030e600d5481565b3480156106b057600080fd5b506102cc6118af565b3480156106c557600080fd5b506103416106d4366004613419565b600c6020526000908152604090205460ff1681565b3480156106f557600080fd5b506102cc61070436600461392a565b611a0b565b34801561071557600080fd5b506006546001600160a01b0316610629565b34801561073357600080fd5b506102cc610742366004613419565b611b78565b34801561075357600080fd5b50604080518082019091526004815263151154d560e21b60208201526103bf565b34801561078057600080fd5b506102cc611ba7565b6102cc610797366004613419565b611e51565b3480156107a857600080fd5b506102cc6107b7366004613955565b612020565b3480156107c857600080fd5b50600854610629906001600160a01b031681565b3480156107e857600080fd5b50601754610629906001600160a01b031681565b34801561080857600080fd5b5061030e610817366004613419565b60009081526003602052604090205490565b34801561083557600080fd5b50600954610629906001600160a01b031681565b34801561085557600080fd5b506102cc61202b565b34801561086a57600080fd5b50610341610879366004613419565b601e6020526000908152604090205460ff1681565b34801561089a57600080fd5b5061030e600f5481565b3480156108b057600080fd5b5061030e60115481565b3480156108c657600080fd5b506103416108d5366004613983565b6001600160a01b03918216600090815260016020908152604080832093909416825291909152205460ff1690565b34801561090f57600080fd5b506102cc61091e3660046139b1565b612076565b34801561092f57600080fd5b506102cc61093e36600461392a565b6120fd565b34801561094f57600080fd5b5061030e60105481565b34801561096557600080fd5b506102cc61097436600461392a565b612195565b6006546001600160a01b031633146109ac5760405162461bcd60e51b81526004016109a390613a1a565b60405180910390fd5b601754600160a01b900460ff16156109d65760405162461bcd60e51b81526004016109a390613a4f565b611388826011546109e79190613a8e565b1115610a055760405162461bcd60e51b81526004016109a390613aa6565b600e5482601154610a169190613a8e565b1115610a345760405162461bcd60e51b81526004016109a390613aa6565b610a4f838284604051806020016040528060008152506121e1565b8060011415610a89578160116000828254610a6a9190613a8e565b925050819055508160136000828254610a839190613a8e565b90915550505b604080516001600160a01b0385168152602081018490529081018290527f9ea69fe563383aa6c77c5d921052ea81ff8e9bbdcc9aa2bfebfa25a014d3a7f09060600160405180910390a1505050565b60006001600160a01b038316610b445760405162461bcd60e51b815260206004820152602b60248201527f455243313135353a2062616c616e636520717565727920666f7220746865207a60448201526a65726f206164647265737360a81b60648201526084016109a3565b506000908152602081815260408083206001600160a01b03949094168352929052205490565b6000610b75826122ca565b92915050565b60026007541415610b9e5760405162461bcd60e51b81526004016109a390613adb565b6002600755601754600160a01b900460ff1615610bcd5760405162461bcd60e51b81526004016109a390613a4f565b6000610bda336001610ad8565b905060008111610bfc5760405162461bcd60e51b81526004016109a390613b12565b80821115610c4c5760405162461bcd60e51b815260206004820152601d60248201527f52657175657374696e67206d6f7265207468616e20796f75206861766500000060448201526064016109a3565b610c58336001846122ef565b6000610c62612407565b905060005b83811015610cfc576000610c7961241c565b90506000601a610c898386613a8e565b610c939190613b4d565b90506000610ca2826002613a8e565b9050610cc033826001604051806020016040528060008152506121e1565b6000818152601f60205260408120805460019290610cdf908490613a8e565b925050819055505050508080610cf490613b61565b915050610c67565b50610d05612450565b60408051338152602081018590527ff275159ffe8a469d860cee2da4889e6860cdcc657577ff70a4323b91f48ee2a491015b60405180910390a15050600160075550565b6006546001600160a01b03163314610d735760405162461bcd60e51b81526004016109a390613a1a565b610d7d8282612577565b5050565b6060601c610d8e83612674565b604051602001610d9f929190613bd3565b6040516020818303038152906040529050919050565b60026007541415610dd85760405162461bcd60e51b81526004016109a390613adb565b6002600755601754600160a01b900460ff1615610e075760405162461bcd60e51b81526004016109a390613a4f565b6000610e14336001610ad8565b905060008111610e365760405162461bcd60e51b81526004016109a390613b12565b610e42336001836122ef565b6000610e4c612407565b905060005b82811015610ee6576000610e6361241c565b90506000601a610e738386613a8e565b610e7d9190613b4d565b90506000610e8c826002613a8e565b9050610eaa33826001604051806020016040528060008152506121e1565b6000818152601f60205260408120805460019290610ec9908490613a8e565b925050819055505050508080610ede90613b61565b915050610e51565b50610eef612450565b60408051338152602081018490527ff275159ffe8a469d860cee2da4889e6860cdcc657577ff70a4323b91f48ee2a4910160405180910390a150506001600755565b60008281526005602090815260408083208151808301909252546001600160a01b038116808352600160a01b9091046001600160601b0316928201929092528291610fa65750604080518082019091526004546001600160a01b0381168252600160a01b90046001600160601b031660208201525b602081015160009061271090610fc5906001600160601b031687613c8e565b610fcf9190613cad565b915196919550909350505050565b6001600160a01b038516331480610ff95750610ff985336108d5565b6110605760405162461bcd60e51b815260206004820152603260248201527f455243313135353a207472616e736665722063616c6c6572206973206e6f74206044820152711bdddb995c881b9bdc88185c1c1c9bdd995960721b60648201526084016109a3565b61106d858585858561277a565b5050505050565b336001600160a01b037f000000000000000000000000000000000000000000000000000000000000000016146110e55760405162461bcd60e51b8152602060048201526016602482015275043616c6c6572206e6f74204169726e6f6465205252560541b60448201526064016109a3565b6000838152600c602052604090205460ff1661113a5760405162461bcd60e51b81526020600482015260146024820152732932b8bab2b9ba1024a2103737ba1035b737bbb760611b60448201526064016109a3565b6000838152600c60205260408120805460ff1916905561115c82840184613419565b600b81905560405181815290915084907f1ca47bacd454c26163f84eff4aa514e291ba9fa67ad6029e39567c122bbed30f9060200160405180910390a250505050565b6006546001600160a01b031633146111c95760405162461bcd60e51b81526004016109a390613a1a565b600060646111d8476019613c8e565b6111e29190613cad565b6017546040519192506000916001600160a01b039091169083908381818185875af1925050503d8060008114611234576040519150601f19603f3d011682016040523d82523d6000602084013e611239565b606091505b505090508061127e5760405162461bcd60e51b81526020600482015260116024820152701899595e9cd85999481b9bdd081cd95b9d607a1b60448201526064016109a3565b604051600090339047908381818185875af1925050503d80600081146112c0576040519150601f19603f3d011682016040523d82523d6000602084013e6112c5565b606091505b50509050806113065760405162461bcd60e51b815260206004820152600d60248201526c14d85999481b9bdd081cd95b9d609a1b60448201526064016109a3565b505050565b606081518351146113705760405162461bcd60e51b815260206004820152602960248201527f455243313135353a206163636f756e747320616e6420696473206c656e677468604482015268040dad2e6dac2e8c6d60bb1b60648201526084016109a3565b6000835167ffffffffffffffff81111561138c5761138c613504565b6040519080825280602002602001820160405280156113b5578160200160208202803683370190505b50905060005b845181101561142d576114008582815181106113d9576113d9613cc1565b60200260200101518583815181106113f3576113f3613cc1565b6020026020010151610ad8565b82828151811061141257611412613cc1565b602090810291909101015261142681613b61565b90506113bb565b509392505050565b600260075414156114585760405162461bcd60e51b81526004016109a390613adb565b6002600755601754600160a01b900460ff16156114875760405162461bcd60e51b81526004016109a390613a4f565b601d546040516370a0823160e01b81523360048201819052916000916001600160a01b03909116906370a082319060240160206040518083038186803b1580156114d057600080fd5b505afa1580156114e4573d6000803e3d6000fd5b505050506040513d601f19601f820116820180604052508101906115089190613cd7565b90506000811161155a5760405162461bcd60e51b815260206004820152601d60248201527f596f7520646f6e74206f776e20616e79204e464265657a204e4654277300000060448201526064016109a3565b6000805b8281101561163e57601d54604051632f745c5960e01b81526001600160a01b038681166004830152602482018490526000921690632f745c599060440160206040518083038186803b1580156115b357600080fd5b505afa1580156115c7573d6000803e3d6000fd5b505050506040513d601f19601f820116820180604052508101906115eb9190613cd7565b6000818152601e602052604090205490915060ff1661162b5761160f600184613a8e565b6000828152601e60205260409020805460ff1916600117905592505b508061163681613b61565b91505061155e565b506000811161169f5760405162461bcd60e51b815260206004820152602760248201527f596f75206861766520616c726561647920636c61696d656420616c6c2074686560448201526620746f6b656e7360c81b60648201526084016109a3565b600f54816014546116b09190613a8e565b11156116ce5760405162461bcd60e51b81526004016109a390613cf0565b6116ea33600183604051806020016040528060008152506121e1565b80601160008282546116fc9190613a8e565b9250508190555080601460008282546117159190613a8e565b909155505060408051338152602081018490527fdb478bc9d0bc424f3c7966499d4c03f4f2ef75ccf9228d0cdbfc3c03827ae7c69101610d37565b601c805461175d90613b7c565b80601f016020809104026020016040519081016040528092919081815260200182805461178990613b7c565b80156117d65780601f106117ab576101008083540402835291602001916117d6565b820191906000526020600020905b8154815290600101906020018083116117b957829003601f168201915b505050505081565b6006546001600160a01b031633146118085760405162461bcd60e51b81526004016109a390613a1a565b8051610d7d90601c9060208401906132d0565b6006546001600160a01b031633146118455760405162461bcd60e51b81526004016109a390613a1a565b61184f6000612924565b565b6006546001600160a01b0316331461187b5760405162461bcd60e51b81526004016109a390613a1a565b600880546001600160a01b039485166001600160a01b031991821617909155600a9290925560098054919093169116179055565b600260075414156118d25760405162461bcd60e51b81526004016109a390613adb565b6002600755601754600160a01b900460ff16156119015760405162461bcd60e51b81526004016109a390613a4f565b600061190e336001610ad8565b9050600081116119305760405162461bcd60e51b81526004016109a390613b12565b61193c336001806122ef565b6000611946612407565b9050600061195261241c565b90506000601a6119628385613a8e565b61196c9190613b4d565b9050600061197b826002613a8e565b905061199933826001604051806020016040528060008152506121e1565b6000818152601f602052604081208054600192906119b8908490613a8e565b909155506119c69050612450565b60408051338152600160208201527ff275159ffe8a469d860cee2da4889e6860cdcc657577ff70a4323b91f48ee2a4910160405180910390a150506001600755505050565b6006546001600160a01b03163314611a355760405162461bcd60e51b81526004016109a390613a1a565b6040516370a0823160e01b81523060048201526001600160a01b0382169063a9059cbb90339083906370a082319060240160206040518083038186803b158015611a7e57600080fd5b505afa158015611a92573d6000803e3d6000fd5b505050506040513d601f19601f82011682018060405250810190611ab69190613cd7565b6040516001600160e01b031960e085901b1681526001600160a01b0390921660048301526024820152604401602060405180830381600087803b158015611afc57600080fd5b505af1158015611b10573d6000803e3d6000fd5b505050506040513d601f19601f82011682018060405250810190611b349190613d24565b611b755760405162461bcd60e51b81526020600482015260126024820152712ab730b13632903a37903a3930b739b332b960711b60448201526064016109a3565b50565b6006546001600160a01b03163314611ba25760405162461bcd60e51b81526004016109a390613a1a565b601055565b60026007541415611bca5760405162461bcd60e51b81526004016109a390613adb565b6002600755601054601254611be0906001613a8e565b1115611bfe5760405162461bcd60e51b81526004016109a390613cf0565b601754600160a01b900460ff1615611c285760405162461bcd60e51b81526004016109a390613a4f565b60025b601c811015611c98576000611c403383610ad8565b905060008111611c855760405162461bcd60e51b815260206004820152601060248201526f139bdd0810dbdb5c1b195d194814d95d60821b60448201526064016109a3565b5080611c9081613b61565b915050611c2b565b50611d44336018805480602002602001604051908101604052809291908181526020018280548015611ce957602002820191906000526020600020905b815481526020019060010190808311611cd5575b50505050506019805480602002602001604051908101604052809291908181526020018280548015611d3a57602002820191906000526020600020905b815481526020019060010190808311611d26575b5050505050612976565b611dff33601a805480602002602001604051908101604052809291908181526020018280548015611d9457602002820191906000526020600020905b815481526020019060010190808311611d80575b5050505050601b805480602002602001604051908101604052809291908181526020018280548015611de557602002820191906000526020600020905b815481526020019060010190808311611dd1575b505050505060405180602001604052806000815250612b14565b600160126000828254611e129190613a8e565b90915550506040513381527ff555eaf682c6afc0c1cc66c3332c79c5316a2b21513d8166350c02ce98d04d659060200160405180910390a16001600755565b601754600160a01b900460ff1615611e7b5760405162461bcd60e51b81526004016109a390613a4f565b80600d54611e899190613c8e565b341015611ed85760405162461bcd60e51b815260206004820152601760248201527f45746865722073656e7420697320696e636f727265637400000000000000000060448201526064016109a3565b61138881601154611ee99190613a8e565b1115611f385760405162461bcd60e51b815260206004820152602a60248201526000805160206140cb83398151915260448201526934b630b13632902a299760b11b60648201526084016109a3565b600e5481601154611f499190613a8e565b1115611f985760405162461bcd60e51b815260206004820152602a60248201526000805160206140cb83398151915260448201526934b630b136329028299760b11b60648201526084016109a3565b611fb433600183604051806020016040528060008152506121e1565b8060116000828254611fc69190613a8e565b925050819055508060136000828254611fdf9190613a8e565b909155505060408051338152602081018390527f2d98f59443907c51521f9022d4c683f324b9cc5f1a30ea370edaa8ebe9d31bbd910160405180910390a150565b610d7d338383612c6e565b6006546001600160a01b031633146120555760405162461bcd60e51b81526004016109a390613a1a565b6017805460ff60a01b198116600160a01b9182900460ff1615909102179055565b6001600160a01b038516331480612092575061209285336108d5565b6120f05760405162461bcd60e51b815260206004820152602960248201527f455243313135353a2063616c6c6572206973206e6f74206f776e6572206e6f7260448201526808185c1c1c9bdd995960ba1b60648201526084016109a3565b61106d8585858585612d4f565b6006546001600160a01b031633146121275760405162461bcd60e51b81526004016109a390613a1a565b6001600160a01b03811661218c5760405162461bcd60e51b815260206004820152602660248201527f4f776e61626c653a206e6577206f776e657220697320746865207a65726f206160448201526564647265737360d01b60648201526084016109a3565b611b7581612924565b6006546001600160a01b031633146121bf5760405162461bcd60e51b81526004016109a390613a1a565b601780546001600160a01b0319166001600160a01b0392909216919091179055565b6001600160a01b0384166122075760405162461bcd60e51b81526004016109a390613d41565b33600061221385612e87565b9050600061222085612e87565b905061223183600089858589612ed2565b6000868152602081815260408083206001600160a01b038b16845290915281208054879290612261908490613a8e565b909155505060408051878152602081018790526001600160a01b03808a1692600092918716917fc3d58168c5ae7397731d063d5bbf3d657854427343f4c083240f7aacaa2d0f62910160405180910390a46122c18360008989898961304b565b50505050505050565b60006001600160e01b0319821663152a902d60e11b1480610b755750610b75826131b6565b6001600160a01b0383166123155760405162461bcd60e51b81526004016109a390613d82565b33600061232184612e87565b9050600061232e84612e87565b905061234e83876000858560405180602001604052806000815250612ed2565b6000858152602081815260408083206001600160a01b038a1684529091529020548481101561238f5760405162461bcd60e51b81526004016109a390613dc5565b6000868152602081815260408083206001600160a01b038b81168086529184528285208a8703905582518b81529384018a90529092908816917fc3d58168c5ae7397731d063d5bbf3d657854427343f4c083240f7aacaa2d0f62910160405180910390a46040805160208101909152600090526122c1565b6000612412600b5490565b6015819055919050565b600080611e6160165442446124319190613a8e565b61243b9190613a8e565b6124459190613b4d565b601681905592915050565b600854600a54600954604051636e6be03f60e01b81526001600160a01b0393841660048201526024810192909252306044830181905290831660648301526084820152631b8c6c8560e11b60a482015260e060c4820152600060e48201819052917f00000000000000000000000000000000000000000000000000000000000000001690636e6be03f9061010401602060405180830381600087803b1580156124f857600080fd5b505af115801561250c573d6000803e3d6000fd5b505050506040513d601f19601f820116820180604052508101906125309190613cd7565b6000818152600c6020526040808220805460ff191660011790555191925082917fcba2da2f3c0c732a104019a3104936397dde7343964c1518ceb760052e4537b19190a250565b6127106001600160601b03821611156125e55760405162461bcd60e51b815260206004820152602a60248201527f455243323938313a20726f79616c7479206665652077696c6c206578636565646044820152692073616c65507269636560b01b60648201526084016109a3565b6001600160a01b03821661263b5760405162461bcd60e51b815260206004820152601960248201527f455243323938313a20696e76616c69642072656365697665720000000000000060448201526064016109a3565b604080518082019091526001600160a01b039092168083526001600160601b039091166020909201829052600160a01b90910217600455565b6060816126985750506040805180820190915260018152600360fc1b602082015290565b8160005b81156126c257806126ac81613b61565b91506126bb9050600a83613cad565b915061269c565b60008167ffffffffffffffff8111156126dd576126dd613504565b6040519080825280601f01601f191660200182016040528015612707576020820181803683370190505b5090505b84156127725761271c600183613e09565b9150612729600a86613b4d565b612734906030613a8e565b60f81b81838151811061274957612749613cc1565b60200101906001600160f81b031916908160001a90535061276b600a86613cad565b945061270b565b949350505050565b815183511461279b5760405162461bcd60e51b81526004016109a390613e20565b6001600160a01b0384166127c15760405162461bcd60e51b81526004016109a390613e68565b336127d0818787878787612ed2565b60005b84518110156128b65760008582815181106127f0576127f0613cc1565b60200260200101519050600085838151811061280e5761280e613cc1565b602090810291909101810151600084815280835260408082206001600160a01b038e16835290935291909120549091508181101561285e5760405162461bcd60e51b81526004016109a390613ead565b6000838152602081815260408083206001600160a01b038e8116855292528083208585039055908b1682528120805484929061289b908490613a8e565b92505081905550505050806128af90613b61565b90506127d3565b50846001600160a01b0316866001600160a01b0316826001600160a01b03167f4a39dc06d4c0dbc64b70af90fd698a233a518aa5d07e595d983b8c0526c8f7fb8787604051612906929190613ef7565b60405180910390a461291c818787878787613206565b505050505050565b600680546001600160a01b038381166001600160a01b0319831681179093556040519116919082907f8be0079c531659141344cd1fd0a4f28419497f9722a3daafe3b4186f6b6457e090600090a35050565b6001600160a01b03831661299c5760405162461bcd60e51b81526004016109a390613d82565b80518251146129bd5760405162461bcd60e51b81526004016109a390613e20565b60003390506129e081856000868660405180602001604052806000815250612ed2565b60005b8351811015612aa5576000848281518110612a0057612a00613cc1565b602002602001015190506000848381518110612a1e57612a1e613cc1565b602090810291909101810151600084815280835260408082206001600160a01b038c168352909352919091205490915081811015612a6e5760405162461bcd60e51b81526004016109a390613dc5565b6000928352602083815260408085206001600160a01b038b1686529091529092209103905580612a9d81613b61565b9150506129e3565b5060006001600160a01b0316846001600160a01b0316826001600160a01b03167f4a39dc06d4c0dbc64b70af90fd698a233a518aa5d07e595d983b8c0526c8f7fb8686604051612af6929190613ef7565b60405180910390a46040805160208101909152600090525b50505050565b6001600160a01b038416612b3a5760405162461bcd60e51b81526004016109a390613d41565b8151835114612b5b5760405162461bcd60e51b81526004016109a390613e20565b33612b6b81600087878787612ed2565b60005b8451811015612c0657838181518110612b8957612b89613cc1565b6020026020010151600080878481518110612ba657612ba6613cc1565b602002602001015181526020019081526020016000206000886001600160a01b03166001600160a01b031681526020019081526020016000206000828254612bee9190613a8e565b90915550819050612bfe81613b61565b915050612b6e565b50846001600160a01b031660006001600160a01b0316826001600160a01b03167f4a39dc06d4c0dbc64b70af90fd698a233a518aa5d07e595d983b8c0526c8f7fb8787604051612c57929190613ef7565b60405180910390a461106d81600087878787613206565b816001600160a01b0316836001600160a01b03161415612ce25760405162461bcd60e51b815260206004820152602960248201527f455243313135353a2073657474696e6720617070726f76616c20737461747573604482015268103337b91039b2b63360b91b60648201526084016109a3565b6001600160a01b03838116600081815260016020908152604080832094871680845294825291829020805460ff191686151590811790915591519182527f17307eab39ab6107e8899845ad3d59bd9653f200f220920489ca2b5937696c31910160405180910390a3505050565b6001600160a01b038416612d755760405162461bcd60e51b81526004016109a390613e68565b336000612d8185612e87565b90506000612d8e85612e87565b9050612d9e838989858589612ed2565b6000868152602081815260408083206001600160a01b038c16845290915290205485811015612ddf5760405162461bcd60e51b81526004016109a390613ead565b6000878152602081815260408083206001600160a01b038d8116855292528083208985039055908a16825281208054889290612e1c908490613a8e565b909155505060408051888152602081018890526001600160a01b03808b16928c821692918816917fc3d58168c5ae7397731d063d5bbf3d657854427343f4c083240f7aacaa2d0f62910160405180910390a4612e7c848a8a8a8a8a61304b565b505050505050505050565b60408051600180825281830190925260609160009190602080830190803683370190505090508281600081518110612ec157612ec1613cc1565b602090810291909101015292915050565b6001600160a01b038516612f595760005b8351811015612f5757828181518110612efe57612efe613cc1565b602002602001015160036000868481518110612f1c57612f1c613cc1565b602002602001015181526020019081526020016000206000828254612f419190613a8e565b90915550612f50905081613b61565b9050612ee3565b505b6001600160a01b03841661291c5760005b83518110156122c1576000848281518110612f8757612f87613cc1565b602002602001015190506000848381518110612fa557612fa5613cc1565b60200260200101519050600060036000848152602001908152602001600020549050818110156130285760405162461bcd60e51b815260206004820152602860248201527f455243313135353a206275726e20616d6f756e74206578636565647320746f74604482015267616c537570706c7960c01b60648201526084016109a3565b6000928352600360205260409092209103905561304481613b61565b9050612f6a565b6001600160a01b0384163b1561291c5760405163f23a6e6160e01b81526001600160a01b0385169063f23a6e619061308f9089908990889088908890600401613f1c565b602060405180830381600087803b1580156130a957600080fd5b505af19250505080156130d9575060408051601f3d908101601f191682019092526130d691810190613f61565b60015b613186576130e5613f7e565b806308c379a0141561311f57506130fa613f9a565b806131055750613121565b8060405162461bcd60e51b81526004016109a391906134cf565b505b60405162461bcd60e51b815260206004820152603460248201527f455243313135353a207472616e7366657220746f206e6f6e20455243313135356044820152732932b1b2b4bb32b91034b6b83632b6b2b73a32b960611b60648201526084016109a3565b6001600160e01b0319811663f23a6e6160e01b146122c15760405162461bcd60e51b81526004016109a390614024565b60006001600160e01b03198216636cdb3d1360e11b14806131e757506001600160e01b031982166303a24d0760e21b145b80610b7557506301ffc9a760e01b6001600160e01b0319831614610b75565b6001600160a01b0384163b1561291c5760405163bc197c8160e01b81526001600160a01b0385169063bc197c819061324a908990899088908890889060040161406c565b602060405180830381600087803b15801561326457600080fd5b505af1925050508015613294575060408051601f3d908101601f1916820190925261329191810190613f61565b60015b6132a0576130e5613f7e565b6001600160e01b0319811663bc197c8160e01b146122c15760405162461bcd60e51b81526004016109a390614024565b8280546132dc90613b7c565b90600052602060002090601f0160209004810192826132fe5760008555613344565b82601f1061331757805160ff1916838001178555613344565b82800160010185558215613344579182015b82811115613344578251825591602001919060010190613329565b50613350929150613354565b5090565b5b808211156133505760008155600101613355565b6001600160a01b0381168114611b7557600080fd5b60008060006060848603121561339357600080fd5b833561339e81613369565b95602085013595506040909401359392505050565b600080604083850312156133c657600080fd5b82356133d181613369565b946020939093013593505050565b6001600160e01b031981168114611b7557600080fd5b60006020828403121561340757600080fd5b8135613412816133df565b9392505050565b60006020828403121561342b57600080fd5b5035919050565b6000806040838503121561344557600080fd5b823561345081613369565b915060208301356001600160601b038116811461346c57600080fd5b809150509250929050565b60005b8381101561349257818101518382015260200161347a565b83811115612b0e5750506000910152565b600081518084526134bb816020860160208601613477565b601f01601f19169290920160200192915050565b60208152600061341260208301846134a3565b600080604083850312156134f557600080fd5b50508035926020909101359150565b634e487b7160e01b600052604160045260246000fd5b601f8201601f1916810167ffffffffffffffff8111828210171561354057613540613504565b6040525050565b600067ffffffffffffffff82111561356157613561613504565b5060051b60200190565b600082601f83011261357c57600080fd5b8135602061358982613547565b604051613596828261351a565b83815260059390931b85018201928281019150868411156135b657600080fd5b8286015b848110156135d157803583529183019183016135ba565b509695505050505050565b600067ffffffffffffffff8311156135f6576135f6613504565b60405161360d601f8501601f19166020018261351a565b80915083815284848401111561362257600080fd5b83836020830137600060208583010152509392505050565b600082601f83011261364b57600080fd5b613412838335602085016135dc565b600080600080600060a0868803121561367257600080fd5b853561367d81613369565b9450602086013561368d81613369565b9350604086013567ffffffffffffffff808211156136aa57600080fd5b6136b689838a0161356b565b945060608801359150808211156136cc57600080fd5b6136d889838a0161356b565b935060808801359150808211156136ee57600080fd5b506136fb8882890161363a565b9150509295509295909350565b60008060006040848603121561371d57600080fd5b83359250602084013567ffffffffffffffff8082111561373c57600080fd5b818601915086601f83011261375057600080fd5b81358181111561375f57600080fd5b87602082850101111561377157600080fd5b6020830194508093505050509250925092565b6000806040838503121561379757600080fd5b823567ffffffffffffffff808211156137af57600080fd5b818501915085601f8301126137c357600080fd5b813560206137d082613547565b6040516137dd828261351a565b83815260059390931b85018201928281019150898411156137fd57600080fd5b948201945b8386101561382457853561381581613369565b82529482019490820190613802565b9650508601359250508082111561383a57600080fd5b506138478582860161356b565b9150509250929050565b600081518084526020808501945080840160005b8381101561388157815187529582019590820190600101613865565b509495945050505050565b6020815260006134126020830184613851565b6000602082840312156138b157600080fd5b813567ffffffffffffffff8111156138c857600080fd5b8201601f810184136138d957600080fd5b612772848235602084016135dc565b6000806000606084860312156138fd57600080fd5b833561390881613369565b925060208401359150604084013561391f81613369565b809150509250925092565b60006020828403121561393c57600080fd5b813561341281613369565b8015158114611b7557600080fd5b6000806040838503121561396857600080fd5b823561397381613369565b9150602083013561346c81613947565b6000806040838503121561399657600080fd5b82356139a181613369565b9150602083013561346c81613369565b600080600080600060a086880312156139c957600080fd5b85356139d481613369565b945060208601356139e481613369565b93506040860135925060608601359150608086013567ffffffffffffffff811115613a0e57600080fd5b6136fb8882890161363a565b6020808252818101527f4f776e61626c653a2063616c6c6572206973206e6f7420746865206f776e6572604082015260600190565b6020808252600f908201526e10dbdb9d1c9858dd0814185d5cd959608a1b604082015260600190565b634e487b7160e01b600052601160045260246000fd5b60008219821115613aa157613aa1613a78565b500190565b60208082526027908201526000805160206140cb83398151915260408201526634b630b136329760c91b606082015260800190565b6020808252601f908201527f5265656e7472616e637947756172643a207265656e7472616e742063616c6c00604082015260600190565b6020808252600b908201526a4e6565642061206375626560a81b604082015260600190565b634e487b7160e01b600052601260045260246000fd5b600082613b5c57613b5c613b37565b500690565b6000600019821415613b7557613b75613a78565b5060010190565b600181811c90821680613b9057607f821691505b60208210811415613bb157634e487b7160e01b600052602260045260246000fd5b50919050565b60008151613bc9818560208601613477565b9290920192915050565b600080845481600182811c915080831680613bef57607f831692505b6020808410821415613c0f57634e487b7160e01b86526022600452602486fd5b818015613c235760018114613c3457613c61565b60ff19861689528489019650613c61565b60008b81526020902060005b86811015613c595781548b820152908501908301613c40565b505084890196505b505050505050613c85613c748286613bb7565b64173539b7b760d91b815260050190565b95945050505050565b6000816000190483118215151615613ca857613ca8613a78565b500290565b600082613cbc57613cbc613b37565b500490565b634e487b7160e01b600052603260045260246000fd5b600060208284031215613ce957600080fd5b5051919050565b60208082526026908201526000805160206140cb833981519152604082015265696c61626c6560d01b606082015260800190565b600060208284031215613d3657600080fd5b815161341281613947565b60208082526021908201527f455243313135353a206d696e7420746f20746865207a65726f206164647265736040820152607360f81b606082015260800190565b60208082526023908201527f455243313135353a206275726e2066726f6d20746865207a65726f206164647260408201526265737360e81b606082015260800190565b60208082526024908201527f455243313135353a206275726e20616d6f756e7420657863656564732062616c604082015263616e636560e01b606082015260800190565b600082821015613e1b57613e1b613a78565b500390565b60208082526028908201527f455243313135353a2069647320616e6420616d6f756e7473206c656e677468206040820152670dad2e6dac2e8c6d60c31b606082015260800190565b60208082526025908201527f455243313135353a207472616e7366657220746f20746865207a65726f206164604082015264647265737360d81b606082015260800190565b6020808252602a908201527f455243313135353a20696e73756666696369656e742062616c616e636520666f60408201526939103a3930b739b332b960b11b606082015260800190565b604081526000613f0a6040830185613851565b8281036020840152613c858185613851565b6001600160a01b03868116825285166020820152604081018490526060810183905260a060808201819052600090613f56908301846134a3565b979650505050505050565b600060208284031215613f7357600080fd5b8151613412816133df565b600060033d1115613f975760046000803e5060005160e01c5b90565b600060443d1015613fa85790565b6040516003193d81016004833e81513d67ffffffffffffffff8160248401118184111715613fd857505050505090565b8285019150815181811115613ff05750505050505090565b843d870101602082850101111561400a5750505050505090565b6140196020828601018761351a565b509095945050505050565b60208082526028908201527f455243313135353a204552433131353552656365697665722072656a656374656040820152676420746f6b656e7360c01b606082015260800190565b6001600160a01b0386811682528516602082015260a06040820181905260009061409890830186613851565b82810360608401526140aa8186613851565b905082810360808401526140be81856134a3565b9897505050505050505056fe4578636565647320746865206d617820746f74616c20737570706c7920617661a2646970667358221220a1cc5a67eedf4851c3ab8c4350409dfa7f03565860bb239695a72b9bc89927c564736f6c63430008090033",
  "linkReferences": {},
  "deployedLinkReferences": {}
}