{
  "_format": "hh-sol-artifact-1",
  "contractName": "TestZone",
  "sourceName": "contracts/BeezCube.sol",
  "abi": [
    {
      "inputs": [
        {
          "internalType": "address",
          "name": "_ogNFBeezContract",
          "type": "address"
        },
        {
          "internalType": "address",
          "name": "_airnodeRrp",
          "type": "address"
        },
        {
          "internalType": "address",
          "name": "_royalty",
          "type": "address"
        },
        {
          "internalType": "string",
          "name": "_cubeNFT",
          "type": "string"
        },
        {
          "internalType": "address",
          "name": "_beezSafe",
          "type": "address"
        }
      ],
      "stateMutability": "nonpayable",
      "type": "constructor"
    },
    {
      "anonymous": false,
      "inputs": [
        {
          "indexed": false,
          "internalType": "address[]",
          "name": "reciever",
          "type": "address[]"
        },
        {
          "indexed": false,
          "internalType": "uint256",
          "name": "_amount",
          "type": "uint256"
        },
        {
          "indexed": false,
          "internalType": "uint256",
          "name": "_id",
          "type": "uint256"
        }
      ],
      "name": "AdminMinted",
      "type": "event"
    },
    {
      "anonymous": false,
      "inputs": [
        {
          "indexed": true,
          "internalType": "address",
          "name": "account",
          "type": "address"
        },
        {
          "indexed": true,
          "internalType": "address",
          "name": "operator",
          "type": "address"
        },
        {
          "indexed": false,
          "internalType": "bool",
          "name": "approved",
          "type": "bool"
        }
      ],
      "name": "ApprovalForAll",
      "type": "event"
    },
    {
      "anonymous": false,
      "inputs": [
        {
          "indexed": false,
          "internalType": "address",
          "name": "minter",
          "type": "address"
        },
        {
          "indexed": false,
          "internalType": "uint256",
          "name": "_amount",
          "type": "uint256"
        }
      ],
      "name": "CubeBroken",
      "type": "event"
    },
    {
      "anonymous": false,
      "inputs": [
        {
          "indexed": false,
          "internalType": "address",
          "name": "minter",
          "type": "address"
        },
        {
          "indexed": false,
          "internalType": "uint256",
          "name": "_amount",
          "type": "uint256"
        }
      ],
      "name": "CubeClaimed",
      "type": "event"
    },
    {
      "anonymous": false,
      "inputs": [
        {
          "indexed": false,
          "internalType": "address",
          "name": "minter",
          "type": "address"
        },
        {
          "indexed": false,
          "internalType": "uint256",
          "name": "_amount",
          "type": "uint256"
        }
      ],
      "name": "CubeMinted",
      "type": "event"
    },
    {
      "anonymous": false,
      "inputs": [
        {
          "indexed": false,
          "internalType": "address",
          "name": "minter",
          "type": "address"
        },
        {
          "indexed": false,
          "internalType": "uint256[]",
          "name": "_daoTokens",
          "type": "uint256[]"
        },
        {
          "indexed": false,
          "internalType": "uint256[]",
          "name": "_amount",
          "type": "uint256[]"
        }
      ],
      "name": "DaoCubeCreated",
      "type": "event"
    },
    {
      "anonymous": false,
      "inputs": [
        {
          "indexed": true,
          "internalType": "address",
          "name": "previousOwner",
          "type": "address"
        },
        {
          "indexed": true,
          "internalType": "address",
          "name": "newOwner",
          "type": "address"
        }
      ],
      "name": "OwnershipTransferred",
      "type": "event"
    },
    {
      "anonymous": false,
      "inputs": [
        {
          "indexed": true,
          "internalType": "bytes32",
          "name": "requestId",
          "type": "bytes32"
        },
        {
          "indexed": false,
          "internalType": "uint256",
          "name": "response",
          "type": "uint256"
        }
      ],
      "name": "ReceivedUint256",
      "type": "event"
    },
    {
      "anonymous": false,
      "inputs": [
        {
          "indexed": true,
          "internalType": "bytes32",
          "name": "requestId",
          "type": "bytes32"
        }
      ],
      "name": "RequestedUint256",
      "type": "event"
    },
    {
      "anonymous": false,
      "inputs": [
        {
          "indexed": true,
          "internalType": "address",
          "name": "operator",
          "type": "address"
        },
        {
          "indexed": true,
          "internalType": "address",
          "name": "from",
          "type": "address"
        },
        {
          "indexed": true,
          "internalType": "address",
          "name": "to",
          "type": "address"
        },
        {
          "indexed": false,
          "internalType": "uint256[]",
          "name": "ids",
          "type": "uint256[]"
        },
        {
          "indexed": false,
          "internalType": "uint256[]",
          "name": "values",
          "type": "uint256[]"
        }
      ],
      "name": "TransferBatch",
      "type": "event"
    },
    {
      "anonymous": false,
      "inputs": [
        {
          "indexed": true,
          "internalType": "address",
          "name": "operator",
          "type": "address"
        },
        {
          "indexed": true,
          "internalType": "address",
          "name": "from",
          "type": "address"
        },
        {
          "indexed": true,
          "internalType": "address",
          "name": "to",
          "type": "address"
        },
        {
          "indexed": false,
          "internalType": "uint256",
          "name": "id",
          "type": "uint256"
        },
        {
          "indexed": false,
          "internalType": "uint256",
          "name": "value",
          "type": "uint256"
        }
      ],
      "name": "TransferSingle",
      "type": "event"
    },
    {
      "anonymous": false,
      "inputs": [
        {
          "indexed": false,
          "internalType": "string",
          "name": "value",
          "type": "string"
        },
        {
          "indexed": true,
          "internalType": "uint256",
          "name": "id",
          "type": "uint256"
        }
      ],
      "name": "URI",
      "type": "event"
    },
    {
      "inputs": [],
      "name": "CubeNFT",
      "outputs": [
        {
          "internalType": "string",
          "name": "",
          "type": "string"
        }
      ],
      "stateMutability": "view",
      "type": "function"
    },
    {
      "inputs": [],
      "name": "DAOCubesMinted",
      "outputs": [
        {
          "internalType": "uint256",
          "name": "",
          "type": "uint256"
        }
      ],
      "stateMutability": "view",
      "type": "function"
    },
    {
      "inputs": [
        {
          "internalType": "address[]",
          "name": "_reciever",
          "type": "address[]"
        },
        {
          "internalType": "uint256",
          "name": "_amount",
          "type": "uint256"
        },
        {
          "internalType": "uint256",
          "name": "_tokenId",
          "type": "uint256"
        }
      ],
      "name": "adminMint",
      "outputs": [],
      "stateMutability": "nonpayable",
      "type": "function"
    },
    {
      "inputs": [],
      "name": "airnode",
      "outputs": [
        {
          "internalType": "address",
          "name": "",
          "type": "address"
        }
      ],
      "stateMutability": "view",
      "type": "function"
    },
    {
      "inputs": [],
      "name": "airnodeRrp",
      "outputs": [
        {
          "internalType": "contract IAirnodeRrpV0",
          "name": "",
          "type": "address"
        }
      ],
      "stateMutability": "view",
      "type": "function"
    },
    {
      "inputs": [
        {
          "internalType": "address",
          "name": "account",
          "type": "address"
        },
        {
          "internalType": "uint256",
          "name": "id",
          "type": "uint256"
        }
      ],
      "name": "balanceOf",
      "outputs": [
        {
          "internalType": "uint256",
          "name": "",
          "type": "uint256"
        }
      ],
      "stateMutability": "view",
      "type": "function"
    },
    {
      "inputs": [
        {
          "internalType": "address[]",
          "name": "accounts",
          "type": "address[]"
        },
        {
          "internalType": "uint256[]",
          "name": "ids",
          "type": "uint256[]"
        }
      ],
      "name": "balanceOfBatch",
      "outputs": [
        {
          "internalType": "uint256[]",
          "name": "",
          "type": "uint256[]"
        }
      ],
      "stateMutability": "view",
      "type": "function"
    },
    {
      "inputs": [],
      "name": "beezSafe",
      "outputs": [
        {
          "internalType": "address",
          "name": "",
          "type": "address"
        }
      ],
      "stateMutability": "view",
      "type": "function"
    },
    {
      "inputs": [],
      "name": "breakOpen",
      "outputs": [],
      "stateMutability": "nonpayable",
      "type": "function"
    },
    {
      "inputs": [
        {
          "internalType": "uint256",
          "name": "_amount",
          "type": "uint256"
        }
      ],
      "name": "bulkBreakOpen",
      "outputs": [],
      "stateMutability": "nonpayable",
      "type": "function"
    },
    {
      "inputs": [],
      "name": "bulkBreakOpenAll",
      "outputs": [],
      "stateMutability": "nonpayable",
      "type": "function"
    },
    {
      "inputs": [],
      "name": "claim",
      "outputs": [],
      "stateMutability": "nonpayable",
      "type": "function"
    },
    {
      "inputs": [],
      "name": "createDAOCube",
      "outputs": [],
      "stateMutability": "nonpayable",
      "type": "function"
    },
    {
      "inputs": [],
      "name": "cubesClaimed",
      "outputs": [
        {
          "internalType": "uint256",
          "name": "",
          "type": "uint256"
        }
      ],
      "stateMutability": "view",
      "type": "function"
    },
    {
      "inputs": [],
      "name": "cubesMinted",
      "outputs": [
        {
          "internalType": "uint256",
          "name": "",
          "type": "uint256"
        }
      ],
      "stateMutability": "view",
      "type": "function"
    },
    {
      "inputs": [],
      "name": "cubesPurchased",
      "outputs": [
        {
          "internalType": "uint256",
          "name": "",
          "type": "uint256"
        }
      ],
      "stateMutability": "view",
      "type": "function"
    },
    {
      "inputs": [],
      "name": "endpointIdUint256",
      "outputs": [
        {
          "internalType": "bytes32",
          "name": "",
          "type": "bytes32"
        }
      ],
      "stateMutability": "view",
      "type": "function"
    },
    {
      "inputs": [
        {
          "internalType": "uint256",
          "name": "id",
          "type": "uint256"
        }
      ],
      "name": "exists",
      "outputs": [
        {
          "internalType": "bool",
          "name": "",
          "type": "bool"
        }
      ],
      "stateMutability": "view",
      "type": "function"
    },
    {
      "inputs": [
        {
          "internalType": "bytes32",
          "name": "",
          "type": "bytes32"
        }
      ],
      "name": "expectingRequestWithIdToBeFulfilled",
      "outputs": [
        {
          "internalType": "bool",
          "name": "",
          "type": "bool"
        }
      ],
      "stateMutability": "view",
      "type": "function"
    },
    {
      "inputs": [
        {
          "internalType": "bytes32",
          "name": "requestId",
          "type": "bytes32"
        },
        {
          "internalType": "bytes",
          "name": "data",
          "type": "bytes"
        }
      ],
      "name": "fulfillUint256",
      "outputs": [],
      "stateMutability": "nonpayable",
      "type": "function"
    },
    {
      "inputs": [
        {
          "internalType": "address",
          "name": "account",
          "type": "address"
        },
        {
          "internalType": "address",
          "name": "operator",
          "type": "address"
        }
      ],
      "name": "isApprovedForAll",
      "outputs": [
        {
          "internalType": "bool",
          "name": "",
          "type": "bool"
        }
      ],
      "stateMutability": "view",
      "type": "function"
    },
    {
      "inputs": [],
      "name": "maxClaims",
      "outputs": [
        {
          "internalType": "uint256",
          "name": "",
          "type": "uint256"
        }
      ],
      "stateMutability": "view",
      "type": "function"
    },
    {
      "inputs": [],
      "name": "maxDAOCube",
      "outputs": [
        {
          "internalType": "uint256",
          "name": "",
          "type": "uint256"
        }
      ],
      "stateMutability": "view",
      "type": "function"
    },
    {
      "inputs": [],
      "name": "maxPurchaseSupply",
      "outputs": [
        {
          "internalType": "uint256",
          "name": "",
          "type": "uint256"
        }
      ],
      "stateMutability": "view",
      "type": "function"
    },
    {
      "inputs": [],
      "name": "maxTotalSupply",
      "outputs": [
        {
          "internalType": "uint256",
          "name": "",
          "type": "uint256"
        }
      ],
      "stateMutability": "view",
      "type": "function"
    },
    {
      "inputs": [
        {
          "internalType": "uint256",
          "name": "amount",
          "type": "uint256"
        }
      ],
      "name": "mint",
      "outputs": [],
      "stateMutability": "payable",
      "type": "function"
    },
    {
      "inputs": [],
      "name": "name",
      "outputs": [
        {
          "internalType": "string",
          "name": "",
          "type": "string"
        }
      ],
      "stateMutability": "pure",
      "type": "function"
    },
    {
      "inputs": [
        {
          "internalType": "uint256",
          "name": "",
          "type": "uint256"
        }
      ],
      "name": "nfbeezClaimed",
      "outputs": [
        {
          "internalType": "bool",
          "name": "",
          "type": "bool"
        }
      ],
      "stateMutability": "view",
      "type": "function"
    },
    {
      "inputs": [],
      "name": "owner",
      "outputs": [
        {
          "internalType": "address",
          "name": "",
          "type": "address"
        }
      ],
      "stateMutability": "view",
      "type": "function"
    },
    {
      "inputs": [],
      "name": "paused",
      "outputs": [
        {
          "internalType": "bool",
          "name": "",
          "type": "bool"
        }
      ],
      "stateMutability": "view",
      "type": "function"
    },
    {
      "inputs": [],
      "name": "renounceOwnership",
      "outputs": [],
      "stateMutability": "nonpayable",
      "type": "function"
    },
    {
      "inputs": [
        {
          "internalType": "uint256",
          "name": "_tokenId",
          "type": "uint256"
        },
        {
          "internalType": "uint256",
          "name": "_salePrice",
          "type": "uint256"
        }
      ],
      "name": "royaltyInfo",
      "outputs": [
        {
          "internalType": "address",
          "name": "",
          "type": "address"
        },
        {
          "internalType": "uint256",
          "name": "",
          "type": "uint256"
        }
      ],
      "stateMutability": "view",
      "type": "function"
    },
    {
      "inputs": [
        {
          "internalType": "address",
          "name": "from",
          "type": "address"
        },
        {
          "internalType": "address",
          "name": "to",
          "type": "address"
        },
        {
          "internalType": "uint256[]",
          "name": "ids",
          "type": "uint256[]"
        },
        {
          "internalType": "uint256[]",
          "name": "amounts",
          "type": "uint256[]"
        },
        {
          "internalType": "bytes",
          "name": "data",
          "type": "bytes"
        }
      ],
      "name": "safeBatchTransferFrom",
      "outputs": [],
      "stateMutability": "nonpayable",
      "type": "function"
    },
    {
      "inputs": [
        {
          "internalType": "address",
          "name": "from",
          "type": "address"
        },
        {
          "internalType": "address",
          "name": "to",
          "type": "address"
        },
        {
          "internalType": "uint256",
          "name": "id",
          "type": "uint256"
        },
        {
          "internalType": "uint256",
          "name": "amount",
          "type": "uint256"
        },
        {
          "internalType": "bytes",
          "name": "data",
          "type": "bytes"
        }
      ],
      "name": "safeTransferFrom",
      "outputs": [],
      "stateMutability": "nonpayable",
      "type": "function"
    },
    {
      "inputs": [
        {
          "internalType": "address",
          "name": "operator",
          "type": "address"
        },
        {
          "internalType": "bool",
          "name": "approved",
          "type": "bool"
        }
      ],
      "name": "setApprovalForAll",
      "outputs": [],
      "stateMutability": "nonpayable",
      "type": "function"
    },
    {
      "inputs": [
        {
          "internalType": "string",
          "name": "_newBaseURI",
          "type": "string"
        }
      ],
      "name": "setBaseURI",
      "outputs": [],
      "stateMutability": "nonpayable",
      "type": "function"
    },
    {
      "inputs": [
        {
          "internalType": "uint256",
          "name": "_newMax",
          "type": "uint256"
        }
      ],
      "name": "setNewDAOCubeMax",
      "outputs": [],
      "stateMutability": "nonpayable",
      "type": "function"
    },
    {
      "inputs": [
        {
          "internalType": "address",
          "name": "_airnode",
          "type": "address"
        },
        {
          "internalType": "bytes32",
          "name": "_endpointIdUint256",
          "type": "bytes32"
        },
        {
          "internalType": "address",
          "name": "_sponsorWallet",
          "type": "address"
        }
      ],
      "name": "setRequestParameters",
      "outputs": [],
      "stateMutability": "nonpayable",
      "type": "function"
    },
    {
      "inputs": [
        {
          "internalType": "address",
          "name": "_receiver",
          "type": "address"
        },
        {
          "internalType": "uint96",
          "name": "_royaltyFeesInBips",
          "type": "uint96"
        }
      ],
      "name": "setRoyaltyInfo",
      "outputs": [],
      "stateMutability": "nonpayable",
      "type": "function"
    },
    {
      "inputs": [],
      "name": "sponsorWallet",
      "outputs": [
        {
          "internalType": "address",
          "name": "",
          "type": "address"
        }
      ],
      "stateMutability": "view",
      "type": "function"
    },
    {
      "inputs": [
        {
          "internalType": "bytes4",
          "name": "interfaceId",
          "type": "bytes4"
        }
      ],
      "name": "supportsInterface",
      "outputs": [
        {
          "internalType": "bool",
          "name": "",
          "type": "bool"
        }
      ],
      "stateMutability": "view",
      "type": "function"
    },
    {
      "inputs": [],
      "name": "symbol",
      "outputs": [
        {
          "internalType": "string",
          "name": "",
          "type": "string"
        }
      ],
      "stateMutability": "pure",
      "type": "function"
    },
    {
      "inputs": [],
      "name": "togglePause",
      "outputs": [],
      "stateMutability": "nonpayable",
      "type": "function"
    },
    {
      "inputs": [],
      "name": "tokenPrice",
      "outputs": [
        {
          "internalType": "uint256",
          "name": "",
          "type": "uint256"
        }
      ],
      "stateMutability": "view",
      "type": "function"
    },
    {
      "inputs": [
        {
          "internalType": "uint256",
          "name": "",
          "type": "uint256"
        }
      ],
      "name": "tokensMinted",
      "outputs": [
        {
          "internalType": "uint256",
          "name": "",
          "type": "uint256"
        }
      ],
      "stateMutability": "view",
      "type": "function"
    },
    {
      "inputs": [
        {
          "internalType": "uint256",
          "name": "id",
          "type": "uint256"
        }
      ],
      "name": "totalSupply",
      "outputs": [
        {
          "internalType": "uint256",
          "name": "",
          "type": "uint256"
        }
      ],
      "stateMutability": "view",
      "type": "function"
    },
    {
      "inputs": [
        {
          "internalType": "address",
          "name": "newOwner",
          "type": "address"
        }
      ],
      "name": "transferOwnership",
      "outputs": [],
      "stateMutability": "nonpayable",
      "type": "function"
    },
    {
      "inputs": [
        {
          "internalType": "address",
          "name": "_beezSafe",
          "type": "address"
        }
      ],
      "name": "updateBeezWallet",
      "outputs": [],
      "stateMutability": "nonpayable",
      "type": "function"
    },
    {
      "inputs": [
        {
          "internalType": "uint256",
          "name": "_tokenId",
          "type": "uint256"
        }
      ],
      "name": "uri",
      "outputs": [
        {
          "internalType": "string",
          "name": "",
          "type": "string"
        }
      ],
      "stateMutability": "view",
      "type": "function"
    },
    {
      "inputs": [],
      "name": "withdraw",
      "outputs": [],
      "stateMutability": "nonpayable",
      "type": "function"
    },
    {
      "inputs": [
        {
          "internalType": "contract IERC20",
          "name": "token",
          "type": "address"
        }
      ],
      "name": "withdrawToken",
      "outputs": [],
      "stateMutability": "nonpayable",
      "type": "function"
    }
  ],
  "bytecode": "0x655af3107a4000600d9081556109ab600e9081556109dd600f90815560e160109081556103e0604052600260a0908152600360c052600460e052600561010052600661012052600761014052600861016052600961018052600a6101a052600b6101c052600c6101e0526102009490945261022092909252610240526102605260116102805260126102a05260136102c05260146102e0526015610300526016610320526017610340526018610360819052601961038052601a6103a0819052601b6103c052620000d192906200051b565b506040805161034081018252600180825260208201819052918101829052606081018290526080810182905260a0810182905260c0810182905260e08101829052610100810182905261012081018290526101408101829052610160810182905261018081018290526101a081018290526101c081018290526101e08101829052610200810182905261022081018290526102408101829052610260810182905261028081018290526102a081018290526102c081018290526102e081018290526103008101829052610320810191909152620001b390601990601a6200051b565b5060408051608081018252601c8152601d6020820152601e91810191909152601f6060820152620001e990601a9060046200051b565b506040805160808101825260018082526020820181905291810182905260608101919091526200021e90601b9060046200051b565b503480156200022c57600080fd5b506040516200496a3803806200496a8339810160408190526200024f9162000637565b8380836200025d8162000349565b50620002693362000362565b600160078190556001600160a01b0382166080819052604051632b77c09f60e21b815230600482015260248101929092529063addf027c90604401600060405180830381600087803b158015620002bf57600080fd5b505af1158015620002d4573d6000803e3d6000fd5b5050601d80546001600160a01b0319166001600160a01b038b16179055506101f4925062000307915085905082620003b4565b82516200031c90601c90602086019062000570565b5050601780546001600160a01b0319166001600160a01b0392909216919091179055506200079e92505050565b80516200035e90600290602084019062000570565b5050565b600680546001600160a01b038381166001600160a01b0319831681179093556040519116919082907f8be0079c531659141344cd1fd0a4f28419497f9722a3daafe3b4186f6b6457e090600090a35050565b6006546001600160a01b03163314620004145760405162461bcd60e51b815260206004820181905260248201527f4f776e61626c653a2063616c6c6572206973206e6f7420746865206f776e657260448201526064015b60405180910390fd5b6200035e82826127106001600160601b03821611156200048a5760405162461bcd60e51b815260206004820152602a60248201527f455243323938313a20726f79616c7479206665652077696c6c206578636565646044820152692073616c65507269636560b01b60648201526084016200040b565b6001600160a01b038216620004e25760405162461bcd60e51b815260206004820152601960248201527f455243323938313a20696e76616c69642072656365697665720000000000000060448201526064016200040b565b604080518082019091526001600160a01b039092168083526001600160601b039091166020909201829052600160a01b90910217600455565b8280548282559060005260206000209081019282156200055e579160200282015b828111156200055e578251829060ff169055916020019190600101906200053c565b506200056c929150620005ed565b5090565b8280546200057e9062000761565b90600052602060002090601f016020900481019282620005a257600085556200055e565b82601f10620005bd57805160ff19168380011785556200055e565b828001600101855582156200055e579182015b828111156200055e578251825591602001919060010190620005d0565b5b808211156200056c5760008155600101620005ee565b80516001600160a01b03811681146200061c57600080fd5b919050565b634e487b7160e01b600052604160045260246000fd5b600080600080600060a086880312156200065057600080fd5b6200065b8662000604565b945060206200066c81880162000604565b94506200067c6040880162000604565b60608801519094506001600160401b03808211156200069a57600080fd5b818901915089601f830112620006af57600080fd5b815181811115620006c457620006c462000621565b604051601f8201601f19908116603f01168101908382118183101715620006ef57620006ef62000621565b816040528281528c868487010111156200070857600080fd5b600093505b828410156200072c57848401860151818501870152928501926200070d565b828411156200073e5760008684830101525b809750505050505050620007556080870162000604565b90509295509295909350565b600181811c908216806200077657607f821691505b602082108114156200079857634e487b7160e01b600052602260045260246000fd5b50919050565b6080516141a2620007c86000396000818161060301528181610f3d015261247f01526141a26000f3fe6080604052600436106102e35760003560e01c80637bdf252511610190578063a36ff4d8116100dc578063cf5380b411610095578063f242432a1161006f578063f242432a1461091f578063f2fde38b1461093f578063f710ee5f1461095f578063ff1240211461097557600080fd5b8063cf5380b4146108aa578063d870b230146108c0578063e985e9c5146108d657600080fd5b8063a36ff4d8146107d8578063bba8bba4146107f8578063bd85b03914610818578063bf90fb4e14610845578063c4ae316814610865578063cab3a16b1461087a57600080fd5b80638da5cb5b1161014957806395d89b411161012357806395d89b411461076357806396b8c99014610790578063a0712d68146107a5578063a22cb465146107b857600080fd5b80638da5cb5b1461070557806390e414e3146107235780639246149b1461074357600080fd5b80637bdf25251461063d5780637f74cde21461065d5780637ff9b5961461068a578063805e5c67146106a0578063851244f7146106b557806389476069146106e557600080fd5b80632eb2c2d61161024f5780634e71d92d1161020857806355f804b3116101e257806355f804b31461059b5780635c975abb146105bb578063715018a6146105dc57806371bab666146105f157600080fd5b80634e71d92d146105425780634f558e791461055757806351b323f01461058657600080fd5b80632eb2c2d6146104945780632f1bbbb3146104b45780633718d90a146104ca5780633ccfd60b146104ea57806340a1706f146104ff5780634e1273f41461051557600080fd5b80630e89341c116102a15780630e89341c146103de57806313c1fa31146103fe5780631bb47c5314610414578063232a7f601461042a5780632a55205a1461043f5780632ab4d0521461047e57600080fd5b8062fdd58e146102e857806301ffc9a71461031b578063027b955c1461034b57806302fa7c471461036d57806306fdde031461038d57806307b9fc57146103c8575b600080fd5b3480156102f457600080fd5b5061030861030336600461330f565b610995565b6040519081526020015b60405180910390f35b34801561032757600080fd5b5061033b610336366004613351565b610a2c565b6040519015158152602001610312565b34801561035757600080fd5b5061036b610366366004613375565b610a4c565b005b34801561037957600080fd5b5061036b61038836600461338e565b610c10565b34801561039957600080fd5b5060408051808201909152600981526854455354205a4f4e4560b81b60208201525b604051610312919061342b565b3480156103d457600080fd5b50610308600a5481565b3480156103ea57600080fd5b506103bb6103f9366004613375565b610c48565b34801561040a57600080fd5b5061030860135481565b34801561042057600080fd5b50610308600e5481565b34801561043657600080fd5b5061036b610c7c565b34801561044b57600080fd5b5061045f61045a36600461343e565b610def565b604080516001600160a01b039093168352602083019190915201610312565b34801561048a57600080fd5b5061030861138881565b3480156104a057600080fd5b5061036b6104af3660046135b6565b610e9b565b3480156104c057600080fd5b5061030860145481565b3480156104d657600080fd5b5061036b6104e5366004613664565b610f32565b3480156104f657600080fd5b5061036b61105d565b34801561050b57600080fd5b5061030860125481565b34801561052157600080fd5b5061053561053036600461374f565b6111c9565b60405161031291906137ee565b34801561054e57600080fd5b5061036b6112f3565b34801561056357600080fd5b5061033b610572366004613375565b600090815260036020526040902054151590565b34801561059257600080fd5b506103bb61161b565b3480156105a757600080fd5b5061036b6105b6366004613801565b6116a9565b3480156105c757600080fd5b5060175461033b90600160a01b900460ff1681565b3480156105e857600080fd5b5061036b6116e6565b3480156105fd57600080fd5b506106257f000000000000000000000000000000000000000000000000000000000000000081565b6040516001600160a01b039091168152602001610312565b34801561064957600080fd5b5061036b61065836600461384a565b61171c565b34801561066957600080fd5b50610308610678366004613375565b601f6020526000908152604090205481565b34801561069657600080fd5b50610308600d5481565b3480156106ac57600080fd5b5061036b61177a565b3480156106c157600080fd5b5061033b6106d0366004613375565b600c6020526000908152604090205460ff1681565b3480156106f157600080fd5b5061036b61070036600461388c565b6118d6565b34801561071157600080fd5b506006546001600160a01b0316610625565b34801561072f57600080fd5b5061036b61073e366004613375565b611a43565b34801561074f57600080fd5b5061036b61075e3660046138a9565b611a72565b34801561076f57600080fd5b50604080518082019091526004815263151154d560e21b60208201526103bb565b34801561079c57600080fd5b5061036b611bc2565b61036b6107b3366004613375565b611e77565b3480156107c457600080fd5b5061036b6107d3366004613905565b611fb5565b3480156107e457600080fd5b50600854610625906001600160a01b031681565b34801561080457600080fd5b50601754610625906001600160a01b031681565b34801561082457600080fd5b50610308610833366004613375565b60009081526003602052604090205490565b34801561085157600080fd5b50600954610625906001600160a01b031681565b34801561087157600080fd5b5061036b611fc0565b34801561088657600080fd5b5061033b610895366004613375565b601e6020526000908152604090205460ff1681565b3480156108b657600080fd5b50610308600f5481565b3480156108cc57600080fd5b5061030860115481565b3480156108e257600080fd5b5061033b6108f1366004613933565b6001600160a01b03918216600090815260016020908152604080832093909416825291909152205460ff1690565b34801561092b57600080fd5b5061036b61093a366004613961565b61200b565b34801561094b57600080fd5b5061036b61095a36600461388c565b612092565b34801561096b57600080fd5b5061030860105481565b34801561098157600080fd5b5061036b61099036600461388c565b61212a565b60006001600160a01b038316610a065760405162461bcd60e51b815260206004820152602b60248201527f455243313135353a2062616c616e636520717565727920666f7220746865207a60448201526a65726f206164647265737360a81b60648201526084015b60405180910390fd5b506000908152602081815260408083206001600160a01b03949094168352929052205490565b6000610a3782612176565b80610a465750610a46826121c6565b92915050565b60026007541415610a6f5760405162461bcd60e51b81526004016109fd906139ca565b6002600755601754600160a01b900460ff1615610a9e5760405162461bcd60e51b81526004016109fd90613a01565b6000610aab336001610995565b905060008111610acd5760405162461bcd60e51b81526004016109fd90613a2a565b80821115610b1d5760405162461bcd60e51b815260206004820152601d60248201527f52657175657374696e67206d6f7265207468616e20796f75206861766500000060448201526064016109fd565b610b29336001846121eb565b60005b82811015610bc5576000610b3e612308565b90506000601a82601554610b529190613a65565b610b5c9190613a93565b90506000610b6b826002613a65565b9050610b89338260016040518060200160405280600081525061233c565b6000818152601f60205260408120805460019290610ba8908490613a65565b925050819055505050508080610bbd90613aa7565b915050610b2c565b50610bce61241c565b60408051338152602081018490527ff275159ffe8a469d860cee2da4889e6860cdcc657577ff70a4323b91f48ee2a4910160405180910390a150506001600755565b6006546001600160a01b03163314610c3a5760405162461bcd60e51b81526004016109fd90613ac2565b610c448282612543565b5050565b6060601c610c5583612640565b604051602001610c66929190613b4e565b6040516020818303038152906040529050919050565b60026007541415610c9f5760405162461bcd60e51b81526004016109fd906139ca565b6002600755601754600160a01b900460ff1615610cce5760405162461bcd60e51b81526004016109fd90613a01565b6000610cdb336001610995565b905060008111610cfd5760405162461bcd60e51b81526004016109fd90613a2a565b610d09336001836121eb565b60005b81811015610da5576000610d1e612308565b90506000601a82601554610d329190613a65565b610d3c9190613a93565b90506000610d4b826002613a65565b9050610d69338260016040518060200160405280600081525061233c565b6000818152601f60205260408120805460019290610d88908490613a65565b925050819055505050508080610d9d90613aa7565b915050610d0c565b50610dae61241c565b60408051338152602081018390527ff275159ffe8a469d860cee2da4889e6860cdcc657577ff70a4323b91f48ee2a4910160405180910390a1506001600755565b60008281526005602090815260408083208151808301909252546001600160a01b038116808352600160a01b9091046001600160601b0316928201929092528291610e645750604080518082019091526004546001600160a01b0381168252600160a01b90046001600160601b031660208201525b602081015160009061271090610e83906001600160601b031687613c09565b610e8d9190613c28565b915196919550909350505050565b6001600160a01b038516331480610eb75750610eb785336108f1565b610f1e5760405162461bcd60e51b815260206004820152603260248201527f455243313135353a207472616e736665722063616c6c6572206973206e6f74206044820152711bdddb995c881b9bdc88185c1c1c9bdd995960721b60648201526084016109fd565b610f2b8585858585612746565b5050505050565b336001600160a01b037f00000000000000000000000000000000000000000000000000000000000000001614610fa35760405162461bcd60e51b8152602060048201526016602482015275043616c6c6572206e6f74204169726e6f6465205252560541b60448201526064016109fd565b6000838152600c602052604090205460ff16610ff85760405162461bcd60e51b81526020600482015260146024820152732932b8bab2b9ba1024a2103737ba1035b737bbb760611b60448201526064016109fd565b6000838152600c60205260408120805460ff1916905561101a82840184613375565b600b81905560405181815290915084907f1ca47bacd454c26163f84eff4aa514e291ba9fa67ad6029e39567c122bbed30f9060200160405180910390a250505050565b6006546001600160a01b031633146110875760405162461bcd60e51b81526004016109fd90613ac2565b60006064611096476019613c09565b6110a09190613c28565b6017546040519192506000916001600160a01b039091169083908381818185875af1925050503d80600081146110f2576040519150601f19603f3d011682016040523d82523d6000602084013e6110f7565b606091505b505090508061113c5760405162461bcd60e51b81526020600482015260116024820152701899595e9cd85999481b9bdd081cd95b9d607a1b60448201526064016109fd565b604051600090339047908381818185875af1925050503d806000811461117e576040519150601f19603f3d011682016040523d82523d6000602084013e611183565b606091505b50509050806111c45760405162461bcd60e51b815260206004820152600d60248201526c14d85999481b9bdd081cd95b9d609a1b60448201526064016109fd565b505050565b6060815183511461122e5760405162461bcd60e51b815260206004820152602960248201527f455243313135353a206163636f756e747320616e6420696473206c656e677468604482015268040dad2e6dac2e8c6d60bb1b60648201526084016109fd565b6000835167ffffffffffffffff81111561124a5761124a613460565b604051908082528060200260200182016040528015611273578160200160208202803683370190505b50905060005b84518110156112eb576112be85828151811061129757611297613c3c565b60200260200101518583815181106112b1576112b1613c3c565b6020026020010151610995565b8282815181106112d0576112d0613c3c565b60209081029190910101526112e481613aa7565b9050611279565b509392505050565b600260075414156113165760405162461bcd60e51b81526004016109fd906139ca565b6002600755601754600160a01b900460ff16156113455760405162461bcd60e51b81526004016109fd90613a01565b601d546040516370a0823160e01b81523360048201819052916000916001600160a01b03909116906370a082319060240160206040518083038186803b15801561138e57600080fd5b505afa1580156113a2573d6000803e3d6000fd5b505050506040513d601f19601f820116820180604052508101906113c69190613c52565b9050600081116114185760405162461bcd60e51b815260206004820152601d60248201527f596f7520646f6e74206f776e20616e79204e464265657a204e4654277300000060448201526064016109fd565b6000805b828110156114fc57601d54604051632f745c5960e01b81526001600160a01b038681166004830152602482018490526000921690632f745c599060440160206040518083038186803b15801561147157600080fd5b505afa158015611485573d6000803e3d6000fd5b505050506040513d601f19601f820116820180604052508101906114a99190613c52565b6000818152601e602052604090205490915060ff166114e9576114cd600184613a65565b6000828152601e60205260409020805460ff1916600117905592505b50806114f481613aa7565b91505061141c565b506000811161155d5760405162461bcd60e51b815260206004820152602760248201527f596f75206861766520616c726561647920636c61696d656420616c6c2074686560448201526620746f6b656e7360c81b60648201526084016109fd565b600f548160145461156e9190613a65565b111561158c5760405162461bcd60e51b81526004016109fd90613c6b565b6115a8336001836040518060200160405280600081525061233c565b80601160008282546115ba9190613a65565b9250508190555080601460008282546115d39190613a65565b909155505060408051338152602081018490527fdb478bc9d0bc424f3c7966499d4c03f4f2ef75ccf9228d0cdbfc3c03827ae7c6910160405180910390a15050600160075550565b601c805461162890613af7565b80601f016020809104026020016040519081016040528092919081815260200182805461165490613af7565b80156116a15780601f10611676576101008083540402835291602001916116a1565b820191906000526020600020905b81548152906001019060200180831161168457829003601f168201915b505050505081565b6006546001600160a01b031633146116d35760405162461bcd60e51b81526004016109fd90613ac2565b8051610c4490601c906020840190613261565b6006546001600160a01b031633146117105760405162461bcd60e51b81526004016109fd90613ac2565b61171a60006128f0565b565b6006546001600160a01b031633146117465760405162461bcd60e51b81526004016109fd90613ac2565b600880546001600160a01b039485166001600160a01b031991821617909155600a9290925560098054919093169116179055565b6002600754141561179d5760405162461bcd60e51b81526004016109fd906139ca565b6002600755601754600160a01b900460ff16156117cc5760405162461bcd60e51b81526004016109fd90613a01565b60006117d9336001610995565b9050600081116117fb5760405162461bcd60e51b81526004016109fd90613a2a565b611807336001806121eb565b6000611811612942565b9050600061181d612308565b90506000601a61182d8385613a65565b6118379190613a93565b90506000611846826002613a65565b9050611864338260016040518060200160405280600081525061233c565b6000818152601f60205260408120805460019290611883908490613a65565b90915550611891905061241c565b60408051338152600160208201527ff275159ffe8a469d860cee2da4889e6860cdcc657577ff70a4323b91f48ee2a4910160405180910390a150506001600755505050565b6006546001600160a01b031633146119005760405162461bcd60e51b81526004016109fd90613ac2565b6040516370a0823160e01b81523060048201526001600160a01b0382169063a9059cbb90339083906370a082319060240160206040518083038186803b15801561194957600080fd5b505afa15801561195d573d6000803e3d6000fd5b505050506040513d601f19601f820116820180604052508101906119819190613c52565b6040516001600160e01b031960e085901b1681526001600160a01b0390921660048301526024820152604401602060405180830381600087803b1580156119c757600080fd5b505af11580156119db573d6000803e3d6000fd5b505050506040513d601f19601f820116820180604052508101906119ff9190613cb1565b611a405760405162461bcd60e51b81526020600482015260126024820152712ab730b13632903a37903a3930b739b332b960711b60448201526064016109fd565b50565b6006546001600160a01b03163314611a6d5760405162461bcd60e51b81526004016109fd90613ac2565b601055565b6006546001600160a01b03163314611a9c5760405162461bcd60e51b81526004016109fd90613ac2565b600e5482601354611aad9190613a65565b1115611acb5760405162461bcd60e51b81526004016109fd90613cce565b601754600160a01b900460ff1615611af55760405162461bcd60e51b81526004016109fd90613a01565b60005b8351811015611b8157611b35848281518110611b1657611b16613c3c565b602002602001015183856040518060200160405280600081525061233c565b8160011415611b6f578260116000828254611b509190613a65565b925050819055508260136000828254611b699190613a65565b90915550505b80611b7981613aa7565b915050611af8565b507f73dbb7f92f8b435d06fb91bb55aa665a1c8b1be5ac233e372f2d61c41920d0b5838383604051611bb593929190613d18565b60405180910390a1505050565b60026007541415611be55760405162461bcd60e51b81526004016109fd906139ca565b6002600755601054601254611bfb906001613a65565b1115611c195760405162461bcd60e51b81526004016109fd90613c6b565b601754600160a01b900460ff1615611c435760405162461bcd60e51b81526004016109fd90613a01565b60025b601c811015611cb3576000611c5b3383610995565b905060008111611ca05760405162461bcd60e51b815260206004820152601060248201526f139bdd0810dbdb5c1b195d194814d95d60821b60448201526064016109fd565b5080611cab81613aa7565b915050611c46565b50611d5f336018805480602002602001604051908101604052809291908181526020018280548015611d0457602002820191906000526020600020905b815481526020019060010190808311611cf0575b50505050506019805480602002602001604051908101604052809291908181526020018280548015611d5557602002820191906000526020600020905b815481526020019060010190808311611d41575b5050505050612957565b611e1a33601a805480602002602001604051908101604052809291908181526020018280548015611daf57602002820191906000526020600020905b815481526020019060010190808311611d9b575b5050505050601b805480602002602001604051908101604052809291908181526020018280548015611e0057602002820191906000526020600020905b815481526020019060010190808311611dec575b505050505060405180602001604052806000815250612af5565b600160126000828254611e2d9190613a65565b90915550506040517fe93b862dc03db675d6c3139790cda4d2b13d0f6a6e146ce04285ccd18b96250090611e68903390601a90601b90613da3565b60405180910390a16001600755565b601754600160a01b900460ff1615611ea15760405162461bcd60e51b81526004016109fd90613a01565b80600d54611eaf9190613c09565b341015611efe5760405162461bcd60e51b815260206004820152601760248201527f45746865722073656e7420697320696e636f727265637400000000000000000060448201526064016109fd565b600e5481601354611f0f9190613a65565b1115611f2d5760405162461bcd60e51b81526004016109fd90613cce565b611f49336001836040518060200160405280600081525061233c565b8060116000828254611f5b9190613a65565b925050819055508060136000828254611f749190613a65565b909155505060408051338152602081018390527f2d98f59443907c51521f9022d4c683f324b9cc5f1a30ea370edaa8ebe9d31bbd910160405180910390a150565b610c44338383612c4f565b6006546001600160a01b03163314611fea5760405162461bcd60e51b81526004016109fd90613ac2565b6017805460ff60a01b198116600160a01b9182900460ff1615909102179055565b6001600160a01b038516331480612027575061202785336108f1565b6120855760405162461bcd60e51b815260206004820152602960248201527f455243313135353a2063616c6c6572206973206e6f74206f776e6572206e6f7260448201526808185c1c1c9bdd995960ba1b60648201526084016109fd565b610f2b8585858585612d30565b6006546001600160a01b031633146120bc5760405162461bcd60e51b81526004016109fd90613ac2565b6001600160a01b0381166121215760405162461bcd60e51b815260206004820152602660248201527f4f776e61626c653a206e6577206f776e657220697320746865207a65726f206160448201526564647265737360d01b60648201526084016109fd565b611a40816128f0565b6006546001600160a01b031633146121545760405162461bcd60e51b81526004016109fd90613ac2565b601780546001600160a01b0319166001600160a01b0392909216919091179055565b60006001600160e01b03198216636cdb3d1360e11b14806121a757506001600160e01b031982166303a24d0760e21b145b80610a4657506301ffc9a760e01b6001600160e01b0319831614610a46565b60006001600160e01b0319821663152a902d60e11b1480610a465750610a4682612176565b6001600160a01b0383166122115760405162461bcd60e51b81526004016109fd90613de3565b33600061221d84612e68565b9050600061222a84612e68565b905061224a83876000858560405180602001604052806000815250612eb3565b6000858152602081815260408083206001600160a01b038a1684529091529020548481101561228b5760405162461bcd60e51b81526004016109fd90613e26565b6000868152602081815260408083206001600160a01b038b81168086529184528285208a8703905582518b81529384018a90529092908816917fc3d58168c5ae7397731d063d5bbf3d657854427343f4c083240f7aacaa2d0f62910160405180910390a46040805160208101909152600090525b50505050505050565b600080611e5c601654424461231d9190613a65565b6123279190613a65565b6123319190613a93565b601681905592915050565b6001600160a01b0384166123625760405162461bcd60e51b81526004016109fd90613e6a565b33600061236e85612e68565b9050600061237b85612e68565b905061238c83600089858589612eb3565b6000868152602081815260408083206001600160a01b038b168452909152812080548792906123bc908490613a65565b909155505060408051878152602081018790526001600160a01b03808a1692600092918716917fc3d58168c5ae7397731d063d5bbf3d657854427343f4c083240f7aacaa2d0f62910160405180910390a46122ff8360008989898961302c565b600854600a54600954604051636e6be03f60e01b81526001600160a01b0393841660048201526024810192909252306044830181905290831660648301526084820152631b8c6c8560e11b60a482015260e060c4820152600060e48201819052917f00000000000000000000000000000000000000000000000000000000000000001690636e6be03f9061010401602060405180830381600087803b1580156124c457600080fd5b505af11580156124d8573d6000803e3d6000fd5b505050506040513d601f19601f820116820180604052508101906124fc9190613c52565b6000818152600c6020526040808220805460ff191660011790555191925082917fcba2da2f3c0c732a104019a3104936397dde7343964c1518ceb760052e4537b19190a250565b6127106001600160601b03821611156125b15760405162461bcd60e51b815260206004820152602a60248201527f455243323938313a20726f79616c7479206665652077696c6c206578636565646044820152692073616c65507269636560b01b60648201526084016109fd565b6001600160a01b0382166126075760405162461bcd60e51b815260206004820152601960248201527f455243323938313a20696e76616c69642072656365697665720000000000000060448201526064016109fd565b604080518082019091526001600160a01b039092168083526001600160601b039091166020909201829052600160a01b90910217600455565b6060816126645750506040805180820190915260018152600360fc1b602082015290565b8160005b811561268e578061267881613aa7565b91506126879050600a83613c28565b9150612668565b60008167ffffffffffffffff8111156126a9576126a9613460565b6040519080825280601f01601f1916602001820160405280156126d3576020820181803683370190505b5090505b841561273e576126e8600183613eab565b91506126f5600a86613a93565b612700906030613a65565b60f81b81838151811061271557612715613c3c565b60200101906001600160f81b031916908160001a905350612737600a86613c28565b94506126d7565b949350505050565b81518351146127675760405162461bcd60e51b81526004016109fd90613ec2565b6001600160a01b03841661278d5760405162461bcd60e51b81526004016109fd90613f0a565b3361279c818787878787612eb3565b60005b84518110156128825760008582815181106127bc576127bc613c3c565b6020026020010151905060008583815181106127da576127da613c3c565b602090810291909101810151600084815280835260408082206001600160a01b038e16835290935291909120549091508181101561282a5760405162461bcd60e51b81526004016109fd90613f4f565b6000838152602081815260408083206001600160a01b038e8116855292528083208585039055908b16825281208054849290612867908490613a65565b925050819055505050508061287b90613aa7565b905061279f565b50846001600160a01b0316866001600160a01b0316826001600160a01b03167f4a39dc06d4c0dbc64b70af90fd698a233a518aa5d07e595d983b8c0526c8f7fb87876040516128d2929190613f99565b60405180910390a46128e8818787878787613197565b505050505050565b600680546001600160a01b038381166001600160a01b0319831681179093556040519116919082907f8be0079c531659141344cd1fd0a4f28419497f9722a3daafe3b4186f6b6457e090600090a35050565b600061294d600b5490565b6015819055919050565b6001600160a01b03831661297d5760405162461bcd60e51b81526004016109fd90613de3565b805182511461299e5760405162461bcd60e51b81526004016109fd90613ec2565b60003390506129c181856000868660405180602001604052806000815250612eb3565b60005b8351811015612a865760008482815181106129e1576129e1613c3c565b6020026020010151905060008483815181106129ff576129ff613c3c565b602090810291909101810151600084815280835260408082206001600160a01b038c168352909352919091205490915081811015612a4f5760405162461bcd60e51b81526004016109fd90613e26565b6000928352602083815260408085206001600160a01b038b1686529091529092209103905580612a7e81613aa7565b9150506129c4565b5060006001600160a01b0316846001600160a01b0316826001600160a01b03167f4a39dc06d4c0dbc64b70af90fd698a233a518aa5d07e595d983b8c0526c8f7fb8686604051612ad7929190613f99565b60405180910390a46040805160208101909152600090525b50505050565b6001600160a01b038416612b1b5760405162461bcd60e51b81526004016109fd90613e6a565b8151835114612b3c5760405162461bcd60e51b81526004016109fd90613ec2565b33612b4c81600087878787612eb3565b60005b8451811015612be757838181518110612b6a57612b6a613c3c565b6020026020010151600080878481518110612b8757612b87613c3c565b602002602001015181526020019081526020016000206000886001600160a01b03166001600160a01b031681526020019081526020016000206000828254612bcf9190613a65565b90915550819050612bdf81613aa7565b915050612b4f565b50846001600160a01b031660006001600160a01b0316826001600160a01b03167f4a39dc06d4c0dbc64b70af90fd698a233a518aa5d07e595d983b8c0526c8f7fb8787604051612c38929190613f99565b60405180910390a4610f2b81600087878787613197565b816001600160a01b0316836001600160a01b03161415612cc35760405162461bcd60e51b815260206004820152602960248201527f455243313135353a2073657474696e6720617070726f76616c20737461747573604482015268103337b91039b2b63360b91b60648201526084016109fd565b6001600160a01b03838116600081815260016020908152604080832094871680845294825291829020805460ff191686151590811790915591519182527f17307eab39ab6107e8899845ad3d59bd9653f200f220920489ca2b5937696c31910160405180910390a3505050565b6001600160a01b038416612d565760405162461bcd60e51b81526004016109fd90613f0a565b336000612d6285612e68565b90506000612d6f85612e68565b9050612d7f838989858589612eb3565b6000868152602081815260408083206001600160a01b038c16845290915290205485811015612dc05760405162461bcd60e51b81526004016109fd90613f4f565b6000878152602081815260408083206001600160a01b038d8116855292528083208985039055908a16825281208054889290612dfd908490613a65565b909155505060408051888152602081018890526001600160a01b03808b16928c821692918816917fc3d58168c5ae7397731d063d5bbf3d657854427343f4c083240f7aacaa2d0f62910160405180910390a4612e5d848a8a8a8a8a61302c565b505050505050505050565b60408051600180825281830190925260609160009190602080830190803683370190505090508281600081518110612ea257612ea2613c3c565b602090810291909101015292915050565b6001600160a01b038516612f3a5760005b8351811015612f3857828181518110612edf57612edf613c3c565b602002602001015160036000868481518110612efd57612efd613c3c565b602002602001015181526020019081526020016000206000828254612f229190613a65565b90915550612f31905081613aa7565b9050612ec4565b505b6001600160a01b0384166128e85760005b83518110156122ff576000848281518110612f6857612f68613c3c565b602002602001015190506000848381518110612f8657612f86613c3c565b60200260200101519050600060036000848152602001908152602001600020549050818110156130095760405162461bcd60e51b815260206004820152602860248201527f455243313135353a206275726e20616d6f756e74206578636565647320746f74604482015267616c537570706c7960c01b60648201526084016109fd565b6000928352600360205260409092209103905561302581613aa7565b9050612f4b565b6001600160a01b0384163b156128e85760405163f23a6e6160e01b81526001600160a01b0385169063f23a6e61906130709089908990889088908890600401613fbe565b602060405180830381600087803b15801561308a57600080fd5b505af19250505080156130ba575060408051601f3d908101601f191682019092526130b791810190614003565b60015b613167576130c6614020565b806308c379a0141561310057506130db61403c565b806130e65750613102565b8060405162461bcd60e51b81526004016109fd919061342b565b505b60405162461bcd60e51b815260206004820152603460248201527f455243313135353a207472616e7366657220746f206e6f6e20455243313135356044820152732932b1b2b4bb32b91034b6b83632b6b2b73a32b960611b60648201526084016109fd565b6001600160e01b0319811663f23a6e6160e01b146122ff5760405162461bcd60e51b81526004016109fd906140c6565b6001600160a01b0384163b156128e85760405163bc197c8160e01b81526001600160a01b0385169063bc197c81906131db908990899088908890889060040161410e565b602060405180830381600087803b1580156131f557600080fd5b505af1925050508015613225575060408051601f3d908101601f1916820190925261322291810190614003565b60015b613231576130c6614020565b6001600160e01b0319811663bc197c8160e01b146122ff5760405162461bcd60e51b81526004016109fd906140c6565b82805461326d90613af7565b90600052602060002090601f01602090048101928261328f57600085556132d5565b82601f106132a857805160ff19168380011785556132d5565b828001600101855582156132d5579182015b828111156132d55782518255916020019190600101906132ba565b506132e19291506132e5565b5090565b5b808211156132e157600081556001016132e6565b6001600160a01b0381168114611a4057600080fd5b6000806040838503121561332257600080fd5b823561332d816132fa565b946020939093013593505050565b6001600160e01b031981168114611a4057600080fd5b60006020828403121561336357600080fd5b813561336e8161333b565b9392505050565b60006020828403121561338757600080fd5b5035919050565b600080604083850312156133a157600080fd5b82356133ac816132fa565b915060208301356001600160601b03811681146133c857600080fd5b809150509250929050565b60005b838110156133ee5781810151838201526020016133d6565b83811115612aef5750506000910152565b600081518084526134178160208601602086016133d3565b601f01601f19169290920160200192915050565b60208152600061336e60208301846133ff565b6000806040838503121561345157600080fd5b50508035926020909101359150565b634e487b7160e01b600052604160045260246000fd5b601f8201601f1916810167ffffffffffffffff8111828210171561349c5761349c613460565b6040525050565b600067ffffffffffffffff8211156134bd576134bd613460565b5060051b60200190565b600082601f8301126134d857600080fd5b813560206134e5826134a3565b6040516134f28282613476565b83815260059390931b850182019282810191508684111561351257600080fd5b8286015b8481101561352d5780358352918301918301613516565b509695505050505050565b600067ffffffffffffffff83111561355257613552613460565b604051613569601f8501601f191660200182613476565b80915083815284848401111561357e57600080fd5b83836020830137600060208583010152509392505050565b600082601f8301126135a757600080fd5b61336e83833560208501613538565b600080600080600060a086880312156135ce57600080fd5b85356135d9816132fa565b945060208601356135e9816132fa565b9350604086013567ffffffffffffffff8082111561360657600080fd5b61361289838a016134c7565b9450606088013591508082111561362857600080fd5b61363489838a016134c7565b9350608088013591508082111561364a57600080fd5b5061365788828901613596565b9150509295509295909350565b60008060006040848603121561367957600080fd5b83359250602084013567ffffffffffffffff8082111561369857600080fd5b818601915086601f8301126136ac57600080fd5b8135818111156136bb57600080fd5b8760208285010111156136cd57600080fd5b6020830194508093505050509250925092565b600082601f8301126136f157600080fd5b813560206136fe826134a3565b60405161370b8282613476565b83815260059390931b850182019282810191508684111561372b57600080fd5b8286015b8481101561352d578035613742816132fa565b835291830191830161372f565b6000806040838503121561376257600080fd5b823567ffffffffffffffff8082111561377a57600080fd5b613786868387016136e0565b9350602085013591508082111561379c57600080fd5b506137a9858286016134c7565b9150509250929050565b600081518084526020808501945080840160005b838110156137e3578151875295820195908201906001016137c7565b509495945050505050565b60208152600061336e60208301846137b3565b60006020828403121561381357600080fd5b813567ffffffffffffffff81111561382a57600080fd5b8201601f8101841361383b57600080fd5b61273e84823560208401613538565b60008060006060848603121561385f57600080fd5b833561386a816132fa565b9250602084013591506040840135613881816132fa565b809150509250925092565b60006020828403121561389e57600080fd5b813561336e816132fa565b6000806000606084860312156138be57600080fd5b833567ffffffffffffffff8111156138d557600080fd5b6138e1868287016136e0565b9660208601359650604090950135949350505050565b8015158114611a4057600080fd5b6000806040838503121561391857600080fd5b8235613923816132fa565b915060208301356133c8816138f7565b6000806040838503121561394657600080fd5b8235613951816132fa565b915060208301356133c8816132fa565b600080600080600060a0868803121561397957600080fd5b8535613984816132fa565b94506020860135613994816132fa565b93506040860135925060608601359150608086013567ffffffffffffffff8111156139be57600080fd5b61365788828901613596565b6020808252601f908201527f5265656e7472616e637947756172643a207265656e7472616e742063616c6c00604082015260600190565b6020808252600f908201526e10dbdb9d1c9858dd0814185d5cd959608a1b604082015260600190565b6020808252600b908201526a4e6565642061206375626560a81b604082015260600190565b634e487b7160e01b600052601160045260246000fd5b60008219821115613a7857613a78613a4f565b500190565b634e487b7160e01b600052601260045260246000fd5b600082613aa257613aa2613a7d565b500690565b6000600019821415613abb57613abb613a4f565b5060010190565b6020808252818101527f4f776e61626c653a2063616c6c6572206973206e6f7420746865206f776e6572604082015260600190565b600181811c90821680613b0b57607f821691505b60208210811415613b2c57634e487b7160e01b600052602260045260246000fd5b50919050565b60008151613b448185602086016133d3565b9290920192915050565b600080845481600182811c915080831680613b6a57607f831692505b6020808410821415613b8a57634e487b7160e01b86526022600452602486fd5b818015613b9e5760018114613baf57613bdc565b60ff19861689528489019650613bdc565b60008b81526020902060005b86811015613bd45781548b820152908501908301613bbb565b505084890196505b505050505050613c00613bef8286613b32565b64173539b7b760d91b815260050190565b95945050505050565b6000816000190483118215151615613c2357613c23613a4f565b500290565b600082613c3757613c37613a7d565b500490565b634e487b7160e01b600052603260045260246000fd5b600060208284031215613c6457600080fd5b5051919050565b60208082526026908201527f4578636565647320746865206d617820746f74616c20737570706c7920617661604082015265696c61626c6560d01b606082015260800190565b600060208284031215613cc357600080fd5b815161336e816138f7565b6020808252602a908201527f4578636565647320746865206d617820746f74616c20737570706c792061766160408201526934b630b136329028299760b11b606082015260800190565b606080825284519082018190526000906020906080840190828801845b82811015613d5a5781516001600160a01b031684529284019290840190600101613d35565b505050908301949094525060400152919050565b6000815480845260208085019450836000528060002060005b838110156137e357815487529582019560019182019101613d87565b6001600160a01b0384168152606060208201819052600090613dc790830185613d6e565b8281036040840152613dd98185613d6e565b9695505050505050565b60208082526023908201527f455243313135353a206275726e2066726f6d20746865207a65726f206164647260408201526265737360e81b606082015260800190565b60208082526024908201527f455243313135353a206275726e20616d6f756e7420657863656564732062616c604082015263616e636560e01b606082015260800190565b60208082526021908201527f455243313135353a206d696e7420746f20746865207a65726f206164647265736040820152607360f81b606082015260800190565b600082821015613ebd57613ebd613a4f565b500390565b60208082526028908201527f455243313135353a2069647320616e6420616d6f756e7473206c656e677468206040820152670dad2e6dac2e8c6d60c31b606082015260800190565b60208082526025908201527f455243313135353a207472616e7366657220746f20746865207a65726f206164604082015264647265737360d81b606082015260800190565b6020808252602a908201527f455243313135353a20696e73756666696369656e742062616c616e636520666f60408201526939103a3930b739b332b960b11b606082015260800190565b604081526000613fac60408301856137b3565b8281036020840152613c0081856137b3565b6001600160a01b03868116825285166020820152604081018490526060810183905260a060808201819052600090613ff8908301846133ff565b979650505050505050565b60006020828403121561401557600080fd5b815161336e8161333b565b600060033d11156140395760046000803e5060005160e01c5b90565b600060443d101561404a5790565b6040516003193d81016004833e81513d67ffffffffffffffff816024840111818411171561407a57505050505090565b82850191508151818111156140925750505050505090565b843d87010160208285010111156140ac5750505050505090565b6140bb60208286010187613476565b509095945050505050565b60208082526028908201527f455243313135353a204552433131353552656365697665722072656a656374656040820152676420746f6b656e7360c01b606082015260800190565b6001600160a01b0386811682528516602082015260a06040820181905260009061413a908301866137b3565b828103606084015261414c81866137b3565b9050828103608084015261416081856133ff565b9897505050505050505056fea26469706673582212202a3f1cf286ca1416037d74ab7e02dc9dc90c93f20c11fc936292df578a9788c764736f6c63430008090033",
  "linkReferences": {},
  "deployedLinkReferences": {}
}