{
  "_format": "hh-sol-artifact-1",
  "contractName": "TestZone",
  "sourceName": "contracts/BeezCube.sol",
  "abi": [
    {
      "inputs": [
        {
          "internalType": "address",
          "name": "_ogNFBeezContract",
          "type": "address"
        },
        {
          "internalType": "address",
          "name": "_airnodeRrp",
          "type": "address"
        },
        {
          "internalType": "address",
          "name": "_royalty",
          "type": "address"
        },
        {
          "internalType": "string",
          "name": "_cubeNFT",
          "type": "string"
        },
        {
          "internalType": "address",
          "name": "_beezSafe",
          "type": "address"
        }
      ],
      "stateMutability": "nonpayable",
      "type": "constructor"
    },
    {
      "anonymous": false,
      "inputs": [
        {
          "indexed": false,
          "internalType": "address",
          "name": "reciever",
          "type": "address"
        },
        {
          "indexed": false,
          "internalType": "uint256",
          "name": "_amount",
          "type": "uint256"
        },
        {
          "indexed": false,
          "internalType": "uint256",
          "name": "_id",
          "type": "uint256"
        }
      ],
      "name": "AdminMinted",
      "type": "event"
    },
    {
      "anonymous": false,
      "inputs": [
        {
          "indexed": true,
          "internalType": "address",
          "name": "account",
          "type": "address"
        },
        {
          "indexed": true,
          "internalType": "address",
          "name": "operator",
          "type": "address"
        },
        {
          "indexed": false,
          "internalType": "bool",
          "name": "approved",
          "type": "bool"
        }
      ],
      "name": "ApprovalForAll",
      "type": "event"
    },
    {
      "anonymous": false,
      "inputs": [
        {
          "indexed": false,
          "internalType": "address",
          "name": "minter",
          "type": "address"
        },
        {
          "indexed": false,
          "internalType": "uint256",
          "name": "_amount",
          "type": "uint256"
        }
      ],
      "name": "CubeBroken",
      "type": "event"
    },
    {
      "anonymous": false,
      "inputs": [
        {
          "indexed": false,
          "internalType": "address",
          "name": "minter",
          "type": "address"
        },
        {
          "indexed": false,
          "internalType": "uint256",
          "name": "_amount",
          "type": "uint256"
        }
      ],
      "name": "CubeClaimed",
      "type": "event"
    },
    {
      "anonymous": false,
      "inputs": [
        {
          "indexed": false,
          "internalType": "address",
          "name": "minter",
          "type": "address"
        },
        {
          "indexed": false,
          "internalType": "uint256",
          "name": "_amount",
          "type": "uint256"
        }
      ],
      "name": "CubeMinted",
      "type": "event"
    },
    {
      "anonymous": false,
      "inputs": [
        {
          "indexed": false,
          "internalType": "address",
          "name": "minter",
          "type": "address"
        }
      ],
      "name": "DaoCubeCreated",
      "type": "event"
    },
    {
      "anonymous": false,
      "inputs": [
        {
          "indexed": true,
          "internalType": "address",
          "name": "previousOwner",
          "type": "address"
        },
        {
          "indexed": true,
          "internalType": "address",
          "name": "newOwner",
          "type": "address"
        }
      ],
      "name": "OwnershipTransferred",
      "type": "event"
    },
    {
      "anonymous": false,
      "inputs": [
        {
          "indexed": true,
          "internalType": "bytes32",
          "name": "requestId",
          "type": "bytes32"
        },
        {
          "indexed": false,
          "internalType": "uint256",
          "name": "response",
          "type": "uint256"
        }
      ],
      "name": "ReceivedUint256",
      "type": "event"
    },
    {
      "anonymous": false,
      "inputs": [
        {
          "indexed": true,
          "internalType": "bytes32",
          "name": "requestId",
          "type": "bytes32"
        }
      ],
      "name": "RequestedUint256",
      "type": "event"
    },
    {
      "anonymous": false,
      "inputs": [
        {
          "indexed": true,
          "internalType": "address",
          "name": "operator",
          "type": "address"
        },
        {
          "indexed": true,
          "internalType": "address",
          "name": "from",
          "type": "address"
        },
        {
          "indexed": true,
          "internalType": "address",
          "name": "to",
          "type": "address"
        },
        {
          "indexed": false,
          "internalType": "uint256[]",
          "name": "ids",
          "type": "uint256[]"
        },
        {
          "indexed": false,
          "internalType": "uint256[]",
          "name": "values",
          "type": "uint256[]"
        }
      ],
      "name": "TransferBatch",
      "type": "event"
    },
    {
      "anonymous": false,
      "inputs": [
        {
          "indexed": true,
          "internalType": "address",
          "name": "operator",
          "type": "address"
        },
        {
          "indexed": true,
          "internalType": "address",
          "name": "from",
          "type": "address"
        },
        {
          "indexed": true,
          "internalType": "address",
          "name": "to",
          "type": "address"
        },
        {
          "indexed": false,
          "internalType": "uint256",
          "name": "id",
          "type": "uint256"
        },
        {
          "indexed": false,
          "internalType": "uint256",
          "name": "value",
          "type": "uint256"
        }
      ],
      "name": "TransferSingle",
      "type": "event"
    },
    {
      "anonymous": false,
      "inputs": [
        {
          "indexed": false,
          "internalType": "string",
          "name": "value",
          "type": "string"
        },
        {
          "indexed": true,
          "internalType": "uint256",
          "name": "id",
          "type": "uint256"
        }
      ],
      "name": "URI",
      "type": "event"
    },
    {
      "stateMutability": "payable",
      "type": "fallback"
    },
    {
      "inputs": [],
      "name": "CubeNFT",
      "outputs": [
        {
          "internalType": "string",
          "name": "",
          "type": "string"
        }
      ],
      "stateMutability": "view",
      "type": "function"
    },
    {
      "inputs": [],
      "name": "DAOCubesMinted",
      "outputs": [
        {
          "internalType": "uint256",
          "name": "",
          "type": "uint256"
        }
      ],
      "stateMutability": "view",
      "type": "function"
    },
    {
      "inputs": [
        {
          "internalType": "address",
          "name": "_reciever",
          "type": "address"
        },
        {
          "internalType": "uint256",
          "name": "_amount",
          "type": "uint256"
        },
        {
          "internalType": "uint256",
          "name": "_tokenId",
          "type": "uint256"
        }
      ],
      "name": "adminMint",
      "outputs": [],
      "stateMutability": "nonpayable",
      "type": "function"
    },
    {
      "inputs": [],
      "name": "airnode",
      "outputs": [
        {
          "internalType": "address",
          "name": "",
          "type": "address"
        }
      ],
      "stateMutability": "view",
      "type": "function"
    },
    {
      "inputs": [],
      "name": "airnodeRrp",
      "outputs": [
        {
          "internalType": "contract IAirnodeRrpV0",
          "name": "",
          "type": "address"
        }
      ],
      "stateMutability": "view",
      "type": "function"
    },
    {
      "inputs": [
        {
          "internalType": "address",
          "name": "account",
          "type": "address"
        },
        {
          "internalType": "uint256",
          "name": "id",
          "type": "uint256"
        }
      ],
      "name": "balanceOf",
      "outputs": [
        {
          "internalType": "uint256",
          "name": "",
          "type": "uint256"
        }
      ],
      "stateMutability": "view",
      "type": "function"
    },
    {
      "inputs": [
        {
          "internalType": "address[]",
          "name": "accounts",
          "type": "address[]"
        },
        {
          "internalType": "uint256[]",
          "name": "ids",
          "type": "uint256[]"
        }
      ],
      "name": "balanceOfBatch",
      "outputs": [
        {
          "internalType": "uint256[]",
          "name": "",
          "type": "uint256[]"
        }
      ],
      "stateMutability": "view",
      "type": "function"
    },
    {
      "inputs": [],
      "name": "beezSafe",
      "outputs": [
        {
          "internalType": "address",
          "name": "",
          "type": "address"
        }
      ],
      "stateMutability": "view",
      "type": "function"
    },
    {
      "inputs": [],
      "name": "breakOpen",
      "outputs": [],
      "stateMutability": "nonpayable",
      "type": "function"
    },
    {
      "inputs": [
        {
          "internalType": "uint256",
          "name": "_amount",
          "type": "uint256"
        }
      ],
      "name": "bulkBreakOpen",
      "outputs": [],
      "stateMutability": "nonpayable",
      "type": "function"
    },
    {
      "inputs": [],
      "name": "bulkBreakOpenAll",
      "outputs": [],
      "stateMutability": "nonpayable",
      "type": "function"
    },
    {
      "inputs": [],
      "name": "claim",
      "outputs": [],
      "stateMutability": "nonpayable",
      "type": "function"
    },
    {
      "inputs": [],
      "name": "createDAOCube",
      "outputs": [],
      "stateMutability": "nonpayable",
      "type": "function"
    },
    {
      "inputs": [],
      "name": "cubesClaimed",
      "outputs": [
        {
          "internalType": "uint256",
          "name": "",
          "type": "uint256"
        }
      ],
      "stateMutability": "view",
      "type": "function"
    },
    {
      "inputs": [],
      "name": "cubesMinted",
      "outputs": [
        {
          "internalType": "uint256",
          "name": "",
          "type": "uint256"
        }
      ],
      "stateMutability": "view",
      "type": "function"
    },
    {
      "inputs": [],
      "name": "cubesPurchased",
      "outputs": [
        {
          "internalType": "uint256",
          "name": "",
          "type": "uint256"
        }
      ],
      "stateMutability": "view",
      "type": "function"
    },
    {
      "inputs": [],
      "name": "endpointIdUint256",
      "outputs": [
        {
          "internalType": "bytes32",
          "name": "",
          "type": "bytes32"
        }
      ],
      "stateMutability": "view",
      "type": "function"
    },
    {
      "inputs": [
        {
          "internalType": "uint256",
          "name": "id",
          "type": "uint256"
        }
      ],
      "name": "exists",
      "outputs": [
        {
          "internalType": "bool",
          "name": "",
          "type": "bool"
        }
      ],
      "stateMutability": "view",
      "type": "function"
    },
    {
      "inputs": [
        {
          "internalType": "bytes32",
          "name": "",
          "type": "bytes32"
        }
      ],
      "name": "expectingRequestWithIdToBeFulfilled",
      "outputs": [
        {
          "internalType": "bool",
          "name": "",
          "type": "bool"
        }
      ],
      "stateMutability": "view",
      "type": "function"
    },
    {
      "inputs": [
        {
          "internalType": "bytes32",
          "name": "requestId",
          "type": "bytes32"
        },
        {
          "internalType": "bytes",
          "name": "data",
          "type": "bytes"
        }
      ],
      "name": "fulfillUint256",
      "outputs": [],
      "stateMutability": "nonpayable",
      "type": "function"
    },
    {
      "inputs": [
        {
          "internalType": "address",
          "name": "account",
          "type": "address"
        },
        {
          "internalType": "address",
          "name": "operator",
          "type": "address"
        }
      ],
      "name": "isApprovedForAll",
      "outputs": [
        {
          "internalType": "bool",
          "name": "",
          "type": "bool"
        }
      ],
      "stateMutability": "view",
      "type": "function"
    },
    {
      "inputs": [],
      "name": "maxClaims",
      "outputs": [
        {
          "internalType": "uint256",
          "name": "",
          "type": "uint256"
        }
      ],
      "stateMutability": "view",
      "type": "function"
    },
    {
      "inputs": [],
      "name": "maxDAOCube",
      "outputs": [
        {
          "internalType": "uint256",
          "name": "",
          "type": "uint256"
        }
      ],
      "stateMutability": "view",
      "type": "function"
    },
    {
      "inputs": [],
      "name": "maxPurchaseSupply",
      "outputs": [
        {
          "internalType": "uint256",
          "name": "",
          "type": "uint256"
        }
      ],
      "stateMutability": "view",
      "type": "function"
    },
    {
      "inputs": [],
      "name": "maxTotalSupply",
      "outputs": [
        {
          "internalType": "uint256",
          "name": "",
          "type": "uint256"
        }
      ],
      "stateMutability": "view",
      "type": "function"
    },
    {
      "inputs": [
        {
          "internalType": "uint256",
          "name": "amount",
          "type": "uint256"
        }
      ],
      "name": "mint",
      "outputs": [],
      "stateMutability": "payable",
      "type": "function"
    },
    {
      "inputs": [],
      "name": "name",
      "outputs": [
        {
          "internalType": "string",
          "name": "",
          "type": "string"
        }
      ],
      "stateMutability": "pure",
      "type": "function"
    },
    {
      "inputs": [
        {
          "internalType": "uint256",
          "name": "",
          "type": "uint256"
        }
      ],
      "name": "nfbeezClaimed",
      "outputs": [
        {
          "internalType": "bool",
          "name": "",
          "type": "bool"
        }
      ],
      "stateMutability": "view",
      "type": "function"
    },
    {
      "inputs": [],
      "name": "owner",
      "outputs": [
        {
          "internalType": "address",
          "name": "",
          "type": "address"
        }
      ],
      "stateMutability": "view",
      "type": "function"
    },
    {
      "inputs": [],
      "name": "paused",
      "outputs": [
        {
          "internalType": "bool",
          "name": "",
          "type": "bool"
        }
      ],
      "stateMutability": "view",
      "type": "function"
    },
    {
      "inputs": [],
      "name": "renounceOwnership",
      "outputs": [],
      "stateMutability": "nonpayable",
      "type": "function"
    },
    {
      "inputs": [
        {
          "internalType": "uint256",
          "name": "_tokenId",
          "type": "uint256"
        },
        {
          "internalType": "uint256",
          "name": "_salePrice",
          "type": "uint256"
        }
      ],
      "name": "royaltyInfo",
      "outputs": [
        {
          "internalType": "address",
          "name": "",
          "type": "address"
        },
        {
          "internalType": "uint256",
          "name": "",
          "type": "uint256"
        }
      ],
      "stateMutability": "view",
      "type": "function"
    },
    {
      "inputs": [
        {
          "internalType": "address",
          "name": "from",
          "type": "address"
        },
        {
          "internalType": "address",
          "name": "to",
          "type": "address"
        },
        {
          "internalType": "uint256[]",
          "name": "ids",
          "type": "uint256[]"
        },
        {
          "internalType": "uint256[]",
          "name": "amounts",
          "type": "uint256[]"
        },
        {
          "internalType": "bytes",
          "name": "data",
          "type": "bytes"
        }
      ],
      "name": "safeBatchTransferFrom",
      "outputs": [],
      "stateMutability": "nonpayable",
      "type": "function"
    },
    {
      "inputs": [
        {
          "internalType": "address",
          "name": "from",
          "type": "address"
        },
        {
          "internalType": "address",
          "name": "to",
          "type": "address"
        },
        {
          "internalType": "uint256",
          "name": "id",
          "type": "uint256"
        },
        {
          "internalType": "uint256",
          "name": "amount",
          "type": "uint256"
        },
        {
          "internalType": "bytes",
          "name": "data",
          "type": "bytes"
        }
      ],
      "name": "safeTransferFrom",
      "outputs": [],
      "stateMutability": "nonpayable",
      "type": "function"
    },
    {
      "inputs": [],
      "name": "seed",
      "outputs": [
        {
          "internalType": "uint256",
          "name": "",
          "type": "uint256"
        }
      ],
      "stateMutability": "view",
      "type": "function"
    },
    {
      "inputs": [
        {
          "internalType": "address",
          "name": "operator",
          "type": "address"
        },
        {
          "internalType": "bool",
          "name": "approved",
          "type": "bool"
        }
      ],
      "name": "setApprovalForAll",
      "outputs": [],
      "stateMutability": "nonpayable",
      "type": "function"
    },
    {
      "inputs": [
        {
          "internalType": "string",
          "name": "_newBaseURI",
          "type": "string"
        }
      ],
      "name": "setBaseURI",
      "outputs": [],
      "stateMutability": "nonpayable",
      "type": "function"
    },
    {
      "inputs": [
        {
          "internalType": "uint256",
          "name": "_newMax",
          "type": "uint256"
        }
      ],
      "name": "setNewDAOCubeMax",
      "outputs": [],
      "stateMutability": "nonpayable",
      "type": "function"
    },
    {
      "inputs": [
        {
          "internalType": "address",
          "name": "_airnode",
          "type": "address"
        },
        {
          "internalType": "bytes32",
          "name": "_endpointIdUint256",
          "type": "bytes32"
        },
        {
          "internalType": "address",
          "name": "_sponsorWallet",
          "type": "address"
        }
      ],
      "name": "setRequestParameters",
      "outputs": [],
      "stateMutability": "nonpayable",
      "type": "function"
    },
    {
      "inputs": [
        {
          "internalType": "address",
          "name": "_receiver",
          "type": "address"
        },
        {
          "internalType": "uint96",
          "name": "_royaltyFeesInBips",
          "type": "uint96"
        }
      ],
      "name": "setRoyaltyInfo",
      "outputs": [],
      "stateMutability": "nonpayable",
      "type": "function"
    },
    {
      "inputs": [],
      "name": "sponsorWallet",
      "outputs": [
        {
          "internalType": "address",
          "name": "",
          "type": "address"
        }
      ],
      "stateMutability": "view",
      "type": "function"
    },
    {
      "inputs": [
        {
          "internalType": "bytes4",
          "name": "interfaceId",
          "type": "bytes4"
        }
      ],
      "name": "supportsInterface",
      "outputs": [
        {
          "internalType": "bool",
          "name": "",
          "type": "bool"
        }
      ],
      "stateMutability": "view",
      "type": "function"
    },
    {
      "inputs": [],
      "name": "symbol",
      "outputs": [
        {
          "internalType": "string",
          "name": "",
          "type": "string"
        }
      ],
      "stateMutability": "pure",
      "type": "function"
    },
    {
      "inputs": [],
      "name": "togglePause",
      "outputs": [],
      "stateMutability": "nonpayable",
      "type": "function"
    },
    {
      "inputs": [],
      "name": "tokenPrice",
      "outputs": [
        {
          "internalType": "uint256",
          "name": "",
          "type": "uint256"
        }
      ],
      "stateMutability": "view",
      "type": "function"
    },
    {
      "inputs": [
        {
          "internalType": "uint256",
          "name": "",
          "type": "uint256"
        }
      ],
      "name": "tokensMinted",
      "outputs": [
        {
          "internalType": "uint256",
          "name": "",
          "type": "uint256"
        }
      ],
      "stateMutability": "view",
      "type": "function"
    },
    {
      "inputs": [
        {
          "internalType": "uint256",
          "name": "id",
          "type": "uint256"
        }
      ],
      "name": "totalSupply",
      "outputs": [
        {
          "internalType": "uint256",
          "name": "",
          "type": "uint256"
        }
      ],
      "stateMutability": "view",
      "type": "function"
    },
    {
      "inputs": [
        {
          "internalType": "address",
          "name": "newOwner",
          "type": "address"
        }
      ],
      "name": "transferOwnership",
      "outputs": [],
      "stateMutability": "nonpayable",
      "type": "function"
    },
    {
      "inputs": [
        {
          "internalType": "address",
          "name": "_beezSafe",
          "type": "address"
        }
      ],
      "name": "updateBeezWallet",
      "outputs": [],
      "stateMutability": "nonpayable",
      "type": "function"
    },
    {
      "inputs": [
        {
          "internalType": "uint256",
          "name": "_tokenId",
          "type": "uint256"
        }
      ],
      "name": "uri",
      "outputs": [
        {
          "internalType": "string",
          "name": "",
          "type": "string"
        }
      ],
      "stateMutability": "view",
      "type": "function"
    },
    {
      "inputs": [],
      "name": "withdraw",
      "outputs": [],
      "stateMutability": "nonpayable",
      "type": "function"
    },
    {
      "inputs": [
        {
          "internalType": "contract IERC20",
          "name": "token",
          "type": "address"
        }
      ],
      "name": "withdrawToken",
      "outputs": [],
      "stateMutability": "nonpayable",
      "type": "function"
    },
    {
      "stateMutability": "payable",
      "type": "receive"
    }
  ],
  "bytecode": "0x655af3107a4000600d9081556109ab600e9081556109dd600f90815560e160109081556103e0604052600260a0908152600360c052600460e052600561010052600661012052600761014052600861016052600961018052600a6101a052600b6101c052600c6101e0526102009490945261022092909252610240526102605260116102805260126102a05260136102c05260146102e0526015610300526016610320526017610340526018610360819052601961038052601a6103a0819052601b6103c052620000d192906200051b565b506040805161034081018252600180825260208201819052918101829052606081018290526080810182905260a0810182905260c0810182905260e08101829052610100810182905261012081018290526101408101829052610160810182905261018081018290526101a081018290526101c081018290526101e08101829052610200810182905261022081018290526102408101829052610260810182905261028081018290526102a081018290526102c081018290526102e081018290526103008101829052610320810191909152620001b390601990601a6200051b565b5060408051608081018252601c8152601d6020820152601e91810191909152601f6060820152620001e990601a9060046200051b565b506040805160808101825260018082526020820181905291810182905260608101919091526200021e90601b9060046200051b565b503480156200022c57600080fd5b5060405162004821380380620048218339810160408190526200024f9162000637565b8380836200025d8162000349565b50620002693362000362565b600160078190556001600160a01b0382166080819052604051632b77c09f60e21b815230600482015260248101929092529063addf027c90604401600060405180830381600087803b158015620002bf57600080fd5b505af1158015620002d4573d6000803e3d6000fd5b5050601d80546001600160a01b0319166001600160a01b038b16179055506101f4925062000307915085905082620003b4565b82516200031c90601c90602086019062000570565b5050601780546001600160a01b0319166001600160a01b0392909216919091179055506200079e92505050565b80516200035e90600290602084019062000570565b5050565b600680546001600160a01b038381166001600160a01b0319831681179093556040519116919082907f8be0079c531659141344cd1fd0a4f28419497f9722a3daafe3b4186f6b6457e090600090a35050565b6006546001600160a01b03163314620004145760405162461bcd60e51b815260206004820181905260248201527f4f776e61626c653a2063616c6c6572206973206e6f7420746865206f776e657260448201526064015b60405180910390fd5b6200035e82826127106001600160601b03821611156200048a5760405162461bcd60e51b815260206004820152602a60248201527f455243323938313a20726f79616c7479206665652077696c6c206578636565646044820152692073616c65507269636560b01b60648201526084016200040b565b6001600160a01b038216620004e25760405162461bcd60e51b815260206004820152601960248201527f455243323938313a20696e76616c69642072656365697665720000000000000060448201526064016200040b565b604080518082019091526001600160a01b039092168083526001600160601b039091166020909201829052600160a01b90910217600455565b8280548282559060005260206000209081019282156200055e579160200282015b828111156200055e578251829060ff169055916020019190600101906200053c565b506200056c929150620005ed565b5090565b8280546200057e9062000761565b90600052602060002090601f016020900481019282620005a257600085556200055e565b82601f10620005bd57805160ff19168380011785556200055e565b828001600101855582156200055e579182015b828111156200055e578251825591602001919060010190620005d0565b5b808211156200056c5760008155600101620005ee565b80516001600160a01b03811681146200061c57600080fd5b919050565b634e487b7160e01b600052604160045260246000fd5b600080600080600060a086880312156200065057600080fd5b6200065b8662000604565b945060206200066c81880162000604565b94506200067c6040880162000604565b60608801519094506001600160401b03808211156200069a57600080fd5b818901915089601f830112620006af57600080fd5b815181811115620006c457620006c462000621565b604051601f8201601f19908116603f01168101908382118183101715620006ef57620006ef62000621565b816040528281528c868487010111156200070857600080fd5b600093505b828410156200072c57848401860151818501870152928501926200070d565b828411156200073e5760008684830101525b809750505050505050620007556080870162000604565b90509295509295909350565b600181811c908216806200077657607f821691505b602082108114156200079857634e487b7160e01b600052602260045260246000fd5b50919050565b608051614059620007c86000396000818161061f0152818161103c015261241a01526140596000f3fe6080604052600436106102dd5760003560e01c80637bdf25251161017e578063a36ff4d8116100d3578063cf5380b41161008f578063f242432a1161006c578063f242432a14610931578063f2fde38b14610951578063f710ee5f14610971578063ff1240211461098757005b8063cf5380b4146108bc578063d870b230146108d2578063e985e9c5146108e857005b8063a36ff4d8146107ea578063bba8bba41461080a578063bd85b0391461082a578063bf90fb4e14610857578063c4ae316814610877578063cab3a16b1461088c57005b8063894760691161013a57806395d89b411161011757806395d89b411461077557806396b8c990146107a2578063a0712d68146107b7578063a22cb465146107ca57005b806389476069146107175780638da5cb5b1461073757806390e414e31461075557005b80637bdf2525146106595780637d94792a146106795780637f74cde21461068f5780637ff9b596146106bc578063805e5c67146106d2578063851244f7146106e757005b80632eb2c2d6116102345780634e71d92d116101f057806355f804b3116101cd57806355f804b3146105b75780635c975abb146105d7578063715018a6146105f857806371bab6661461060d57005b80634e71d92d1461055e5780634f558e791461057357806351b323f0146105a257005b80632eb2c2d6146104b05780632f1bbbb3146104d05780633718d90a146104e65780633ccfd60b1461050657806340a1706f1461051b5780634e1273f41461053157005b806307b9fc571161029b5780631bb47c53116102785780631bb47c5314610430578063232a7f60146104465780632a55205a1461045b5780632ab4d0521461049a57005b806307b9fc57146103e45780630e89341c146103fa57806313c1fa311461041a57005b80624a84cb146102e6578062fdd58e1461030657806301ffc9a714610339578063027b955c1461036957806302fa7c471461038957806306fdde03146103a957005b366102e457005b005b3480156102f257600080fd5b506102e46103013660046132fa565b6109a7565b34801561031257600080fd5b5061032661032136600461332f565b610aa8565b6040519081526020015b60405180910390f35b34801561034557600080fd5b50610359610354366004613371565b610b3a565b6040519015158152602001610330565b34801561037557600080fd5b506102e4610384366004613395565b610b4b565b34801561039557600080fd5b506102e46103a43660046133ae565b610d0f565b3480156103b557600080fd5b5060408051808201909152600981526854455354205a4f4e4560b81b60208201525b604051610330919061344b565b3480156103f057600080fd5b50610326600a5481565b34801561040657600080fd5b506103d7610415366004613395565b610d47565b34801561042657600080fd5b5061032660135481565b34801561043c57600080fd5b50610326600e5481565b34801561045257600080fd5b506102e4610d7b565b34801561046757600080fd5b5061047b61047636600461345e565b610eee565b604080516001600160a01b039093168352602083019190915201610330565b3480156104a657600080fd5b5061032661138881565b3480156104bc57600080fd5b506102e46104cb3660046135d6565b610f9a565b3480156104dc57600080fd5b5061032660145481565b3480156104f257600080fd5b506102e4610501366004613684565b611031565b34801561051257600080fd5b506102e461115c565b34801561052757600080fd5b5061032660125481565b34801561053d57600080fd5b5061055161054c366004613700565b6112c8565b6040516103309190613808565b34801561056a57600080fd5b506102e46113f2565b34801561057f57600080fd5b5061035961058e366004613395565b600090815260036020526040902054151590565b3480156105ae57600080fd5b506103d761171a565b3480156105c357600080fd5b506102e46105d236600461381b565b6117a8565b3480156105e357600080fd5b5060175461035990600160a01b900460ff1681565b34801561060457600080fd5b506102e46117e5565b34801561061957600080fd5b506106417f000000000000000000000000000000000000000000000000000000000000000081565b6040516001600160a01b039091168152602001610330565b34801561066557600080fd5b506102e4610674366004613864565b61181b565b34801561068557600080fd5b5061032660155481565b34801561069b57600080fd5b506103266106aa366004613395565b601f6020526000908152604090205481565b3480156106c857600080fd5b50610326600d5481565b3480156106de57600080fd5b506102e4611879565b3480156106f357600080fd5b50610359610702366004613395565b600c6020526000908152604090205460ff1681565b34801561072357600080fd5b506102e46107323660046138a6565b6119d5565b34801561074357600080fd5b506006546001600160a01b0316610641565b34801561076157600080fd5b506102e4610770366004613395565b611b42565b34801561078157600080fd5b50604080518082019091526004815263151154d560e21b60208201526103d7565b3480156107ae57600080fd5b506102e4611b71565b6102e46107c5366004613395565b611e1b565b3480156107d657600080fd5b506102e46107e53660046138d1565b611f9c565b3480156107f657600080fd5b50600854610641906001600160a01b031681565b34801561081657600080fd5b50601754610641906001600160a01b031681565b34801561083657600080fd5b50610326610845366004613395565b60009081526003602052604090205490565b34801561086357600080fd5b50600954610641906001600160a01b031681565b34801561088357600080fd5b506102e4611fa7565b34801561089857600080fd5b506103596108a7366004613395565b601e6020526000908152604090205460ff1681565b3480156108c857600080fd5b50610326600f5481565b3480156108de57600080fd5b5061032660115481565b3480156108f457600080fd5b506103596109033660046138ff565b6001600160a01b03918216600090815260016020908152604080832093909416825291909152205460ff1690565b34801561093d57600080fd5b506102e461094c36600461392d565b611ff2565b34801561095d57600080fd5b506102e461096c3660046138a6565b612079565b34801561097d57600080fd5b5061032660105481565b34801561099357600080fd5b506102e46109a23660046138a6565b612111565b6006546001600160a01b031633146109da5760405162461bcd60e51b81526004016109d190613996565b60405180910390fd5b601754600160a01b900460ff1615610a045760405162461bcd60e51b81526004016109d1906139cb565b610a1f8382846040518060200160405280600081525061215d565b8060011415610a59578160116000828254610a3a9190613a0a565b925050819055508160136000828254610a539190613a0a565b90915550505b604080516001600160a01b0385168152602081018490529081018290527f9ea69fe563383aa6c77c5d921052ea81ff8e9bbdcc9aa2bfebfa25a014d3a7f09060600160405180910390a1505050565b60006001600160a01b038316610b145760405162461bcd60e51b815260206004820152602b60248201527f455243313135353a2062616c616e636520717565727920666f7220746865207a60448201526a65726f206164647265737360a81b60648201526084016109d1565b506000908152602081815260408083206001600160a01b03949094168352929052205490565b6000610b4582612246565b92915050565b60026007541415610b6e5760405162461bcd60e51b81526004016109d190613a22565b6002600755601754600160a01b900460ff1615610b9d5760405162461bcd60e51b81526004016109d1906139cb565b6000610baa336001610aa8565b905060008111610bcc5760405162461bcd60e51b81526004016109d190613a59565b80821115610c1c5760405162461bcd60e51b815260206004820152601d60248201527f52657175657374696e67206d6f7265207468616e20796f75206861766500000060448201526064016109d1565b610c283360018461226b565b60005b82811015610cc4576000610c3d612383565b90506000601a82601554610c519190613a0a565b610c5b9190613a94565b90506000610c6a826002613a0a565b9050610c88338260016040518060200160405280600081525061215d565b6000818152601f60205260408120805460019290610ca7908490613a0a565b925050819055505050508080610cbc90613aa8565b915050610c2b565b50610ccd6123b7565b60408051338152602081018490527ff275159ffe8a469d860cee2da4889e6860cdcc657577ff70a4323b91f48ee2a4910160405180910390a150506001600755565b6006546001600160a01b03163314610d395760405162461bcd60e51b81526004016109d190613996565b610d4382826124de565b5050565b6060601c610d54836125db565b604051602001610d65929190613b1a565b6040516020818303038152906040529050919050565b60026007541415610d9e5760405162461bcd60e51b81526004016109d190613a22565b6002600755601754600160a01b900460ff1615610dcd5760405162461bcd60e51b81526004016109d1906139cb565b6000610dda336001610aa8565b905060008111610dfc5760405162461bcd60e51b81526004016109d190613a59565b610e083360018361226b565b60005b81811015610ea4576000610e1d612383565b90506000601a82601554610e319190613a0a565b610e3b9190613a94565b90506000610e4a826002613a0a565b9050610e68338260016040518060200160405280600081525061215d565b6000818152601f60205260408120805460019290610e87908490613a0a565b925050819055505050508080610e9c90613aa8565b915050610e0b565b50610ead6123b7565b60408051338152602081018390527ff275159ffe8a469d860cee2da4889e6860cdcc657577ff70a4323b91f48ee2a4910160405180910390a1506001600755565b60008281526005602090815260408083208151808301909252546001600160a01b038116808352600160a01b9091046001600160601b0316928201929092528291610f635750604080518082019091526004546001600160a01b0381168252600160a01b90046001600160601b031660208201525b602081015160009061271090610f82906001600160601b031687613bd5565b610f8c9190613bf4565b915196919550909350505050565b6001600160a01b038516331480610fb65750610fb68533610903565b61101d5760405162461bcd60e51b815260206004820152603260248201527f455243313135353a207472616e736665722063616c6c6572206973206e6f74206044820152711bdddb995c881b9bdc88185c1c1c9bdd995960721b60648201526084016109d1565b61102a85858585856126e1565b5050505050565b336001600160a01b037f000000000000000000000000000000000000000000000000000000000000000016146110a25760405162461bcd60e51b8152602060048201526016602482015275043616c6c6572206e6f74204169726e6f6465205252560541b60448201526064016109d1565b6000838152600c602052604090205460ff166110f75760405162461bcd60e51b81526020600482015260146024820152732932b8bab2b9ba1024a2103737ba1035b737bbb760611b60448201526064016109d1565b6000838152600c60205260408120805460ff1916905561111982840184613395565b600b81905560405181815290915084907f1ca47bacd454c26163f84eff4aa514e291ba9fa67ad6029e39567c122bbed30f9060200160405180910390a250505050565b6006546001600160a01b031633146111865760405162461bcd60e51b81526004016109d190613996565b60006064611195476019613bd5565b61119f9190613bf4565b6017546040519192506000916001600160a01b039091169083908381818185875af1925050503d80600081146111f1576040519150601f19603f3d011682016040523d82523d6000602084013e6111f6565b606091505b505090508061123b5760405162461bcd60e51b81526020600482015260116024820152701899595e9cd85999481b9bdd081cd95b9d607a1b60448201526064016109d1565b604051600090339047908381818185875af1925050503d806000811461127d576040519150601f19603f3d011682016040523d82523d6000602084013e611282565b606091505b50509050806112c35760405162461bcd60e51b815260206004820152600d60248201526c14d85999481b9bdd081cd95b9d609a1b60448201526064016109d1565b505050565b6060815183511461132d5760405162461bcd60e51b815260206004820152602960248201527f455243313135353a206163636f756e747320616e6420696473206c656e677468604482015268040dad2e6dac2e8c6d60bb1b60648201526084016109d1565b6000835167ffffffffffffffff81111561134957611349613480565b604051908082528060200260200182016040528015611372578160200160208202803683370190505b50905060005b84518110156113ea576113bd85828151811061139657611396613c08565b60200260200101518583815181106113b0576113b0613c08565b6020026020010151610aa8565b8282815181106113cf576113cf613c08565b60209081029190910101526113e381613aa8565b9050611378565b509392505050565b600260075414156114155760405162461bcd60e51b81526004016109d190613a22565b6002600755601754600160a01b900460ff16156114445760405162461bcd60e51b81526004016109d1906139cb565b601d546040516370a0823160e01b81523360048201819052916000916001600160a01b03909116906370a082319060240160206040518083038186803b15801561148d57600080fd5b505afa1580156114a1573d6000803e3d6000fd5b505050506040513d601f19601f820116820180604052508101906114c59190613c1e565b9050600081116115175760405162461bcd60e51b815260206004820152601d60248201527f596f7520646f6e74206f776e20616e79204e464265657a204e4654277300000060448201526064016109d1565b6000805b828110156115fb57601d54604051632f745c5960e01b81526001600160a01b038681166004830152602482018490526000921690632f745c599060440160206040518083038186803b15801561157057600080fd5b505afa158015611584573d6000803e3d6000fd5b505050506040513d601f19601f820116820180604052508101906115a89190613c1e565b6000818152601e602052604090205490915060ff166115e8576115cc600184613a0a565b6000828152601e60205260409020805460ff1916600117905592505b50806115f381613aa8565b91505061151b565b506000811161165c5760405162461bcd60e51b815260206004820152602760248201527f596f75206861766520616c726561647920636c61696d656420616c6c2074686560448201526620746f6b656e7360c81b60648201526084016109d1565b600f548160145461166d9190613a0a565b111561168b5760405162461bcd60e51b81526004016109d190613c37565b6116a7336001836040518060200160405280600081525061215d565b80601160008282546116b99190613a0a565b9250508190555080601460008282546116d29190613a0a565b909155505060408051338152602081018490527fdb478bc9d0bc424f3c7966499d4c03f4f2ef75ccf9228d0cdbfc3c03827ae7c6910160405180910390a15050600160075550565b601c805461172790613ac3565b80601f016020809104026020016040519081016040528092919081815260200182805461175390613ac3565b80156117a05780601f10611775576101008083540402835291602001916117a0565b820191906000526020600020905b81548152906001019060200180831161178357829003601f168201915b505050505081565b6006546001600160a01b031633146117d25760405162461bcd60e51b81526004016109d190613996565b8051610d4390601c90602084019061324c565b6006546001600160a01b0316331461180f5760405162461bcd60e51b81526004016109d190613996565b611819600061288b565b565b6006546001600160a01b031633146118455760405162461bcd60e51b81526004016109d190613996565b600880546001600160a01b039485166001600160a01b031991821617909155600a9290925560098054919093169116179055565b6002600754141561189c5760405162461bcd60e51b81526004016109d190613a22565b6002600755601754600160a01b900460ff16156118cb5760405162461bcd60e51b81526004016109d1906139cb565b60006118d8336001610aa8565b9050600081116118fa5760405162461bcd60e51b81526004016109d190613a59565b6119063360018061226b565b60006119106128dd565b9050600061191c612383565b90506000601a61192c8385613a0a565b6119369190613a94565b90506000611945826002613a0a565b9050611963338260016040518060200160405280600081525061215d565b6000818152601f60205260408120805460019290611982908490613a0a565b9091555061199090506123b7565b60408051338152600160208201527ff275159ffe8a469d860cee2da4889e6860cdcc657577ff70a4323b91f48ee2a4910160405180910390a150506001600755505050565b6006546001600160a01b031633146119ff5760405162461bcd60e51b81526004016109d190613996565b6040516370a0823160e01b81523060048201526001600160a01b0382169063a9059cbb90339083906370a082319060240160206040518083038186803b158015611a4857600080fd5b505afa158015611a5c573d6000803e3d6000fd5b505050506040513d601f19601f82011682018060405250810190611a809190613c1e565b6040516001600160e01b031960e085901b1681526001600160a01b0390921660048301526024820152604401602060405180830381600087803b158015611ac657600080fd5b505af1158015611ada573d6000803e3d6000fd5b505050506040513d601f19601f82011682018060405250810190611afe9190613c7d565b611b3f5760405162461bcd60e51b81526020600482015260126024820152712ab730b13632903a37903a3930b739b332b960711b60448201526064016109d1565b50565b6006546001600160a01b03163314611b6c5760405162461bcd60e51b81526004016109d190613996565b601055565b60026007541415611b945760405162461bcd60e51b81526004016109d190613a22565b6002600755601054601254611baa906001613a0a565b1115611bc85760405162461bcd60e51b81526004016109d190613c37565b601754600160a01b900460ff1615611bf25760405162461bcd60e51b81526004016109d1906139cb565b60025b601c811015611c62576000611c0a3383610aa8565b905060008111611c4f5760405162461bcd60e51b815260206004820152601060248201526f139bdd0810dbdb5c1b195d194814d95d60821b60448201526064016109d1565b5080611c5a81613aa8565b915050611bf5565b50611d0e336018805480602002602001604051908101604052809291908181526020018280548015611cb357602002820191906000526020600020905b815481526020019060010190808311611c9f575b50505050506019805480602002602001604051908101604052809291908181526020018280548015611d0457602002820191906000526020600020905b815481526020019060010190808311611cf0575b50505050506128f2565b611dc933601a805480602002602001604051908101604052809291908181526020018280548015611d5e57602002820191906000526020600020905b815481526020019060010190808311611d4a575b5050505050601b805480602002602001604051908101604052809291908181526020018280548015611daf57602002820191906000526020600020905b815481526020019060010190808311611d9b575b505050505060405180602001604052806000815250612a90565b600160126000828254611ddc9190613a0a565b90915550506040513381527ff555eaf682c6afc0c1cc66c3332c79c5316a2b21513d8166350c02ce98d04d659060200160405180910390a16001600755565b601754600160a01b900460ff1615611e455760405162461bcd60e51b81526004016109d1906139cb565b80600d54611e539190613bd5565b341015611ea25760405162461bcd60e51b815260206004820152601760248201527f45746865722073656e7420697320696e636f727265637400000000000000000060448201526064016109d1565b600e5481601354611eb39190613a0a565b1115611f145760405162461bcd60e51b815260206004820152602a60248201527f4578636565647320746865206d617820746f74616c20737570706c792061766160448201526934b630b136329028299760b11b60648201526084016109d1565b611f30336001836040518060200160405280600081525061215d565b8060116000828254611f429190613a0a565b925050819055508060136000828254611f5b9190613a0a565b909155505060408051338152602081018390527f2d98f59443907c51521f9022d4c683f324b9cc5f1a30ea370edaa8ebe9d31bbd910160405180910390a150565b610d43338383612bea565b6006546001600160a01b03163314611fd15760405162461bcd60e51b81526004016109d190613996565b6017805460ff60a01b198116600160a01b9182900460ff1615909102179055565b6001600160a01b03851633148061200e575061200e8533610903565b61206c5760405162461bcd60e51b815260206004820152602960248201527f455243313135353a2063616c6c6572206973206e6f74206f776e6572206e6f7260448201526808185c1c1c9bdd995960ba1b60648201526084016109d1565b61102a8585858585612ccb565b6006546001600160a01b031633146120a35760405162461bcd60e51b81526004016109d190613996565b6001600160a01b0381166121085760405162461bcd60e51b815260206004820152602660248201527f4f776e61626c653a206e6577206f776e657220697320746865207a65726f206160448201526564647265737360d01b60648201526084016109d1565b611b3f8161288b565b6006546001600160a01b0316331461213b5760405162461bcd60e51b81526004016109d190613996565b601780546001600160a01b0319166001600160a01b0392909216919091179055565b6001600160a01b0384166121835760405162461bcd60e51b81526004016109d190613c9a565b33600061218f85612e03565b9050600061219c85612e03565b90506121ad83600089858589612e4e565b6000868152602081815260408083206001600160a01b038b168452909152812080548792906121dd908490613a0a565b909155505060408051878152602081018790526001600160a01b03808a1692600092918716917fc3d58168c5ae7397731d063d5bbf3d657854427343f4c083240f7aacaa2d0f62910160405180910390a461223d83600089898989612fc7565b50505050505050565b60006001600160e01b0319821663152a902d60e11b1480610b455750610b4582613132565b6001600160a01b0383166122915760405162461bcd60e51b81526004016109d190613cdb565b33600061229d84612e03565b905060006122aa84612e03565b90506122ca83876000858560405180602001604052806000815250612e4e565b6000858152602081815260408083206001600160a01b038a1684529091529020548481101561230b5760405162461bcd60e51b81526004016109d190613d1e565b6000868152602081815260408083206001600160a01b038b81168086529184528285208a8703905582518b81529384018a90529092908816917fc3d58168c5ae7397731d063d5bbf3d657854427343f4c083240f7aacaa2d0f62910160405180910390a460408051602081019091526000905261223d565b600080611e5c60165442446123989190613a0a565b6123a29190613a0a565b6123ac9190613a94565b601681905592915050565b600854600a54600954604051636e6be03f60e01b81526001600160a01b0393841660048201526024810192909252306044830181905290831660648301526084820152631b8c6c8560e11b60a482015260e060c4820152600060e48201819052917f00000000000000000000000000000000000000000000000000000000000000001690636e6be03f9061010401602060405180830381600087803b15801561245f57600080fd5b505af1158015612473573d6000803e3d6000fd5b505050506040513d601f19601f820116820180604052508101906124979190613c1e565b6000818152600c6020526040808220805460ff191660011790555191925082917fcba2da2f3c0c732a104019a3104936397dde7343964c1518ceb760052e4537b19190a250565b6127106001600160601b038216111561254c5760405162461bcd60e51b815260206004820152602a60248201527f455243323938313a20726f79616c7479206665652077696c6c206578636565646044820152692073616c65507269636560b01b60648201526084016109d1565b6001600160a01b0382166125a25760405162461bcd60e51b815260206004820152601960248201527f455243323938313a20696e76616c69642072656365697665720000000000000060448201526064016109d1565b604080518082019091526001600160a01b039092168083526001600160601b039091166020909201829052600160a01b90910217600455565b6060816125ff5750506040805180820190915260018152600360fc1b602082015290565b8160005b8115612629578061261381613aa8565b91506126229050600a83613bf4565b9150612603565b60008167ffffffffffffffff81111561264457612644613480565b6040519080825280601f01601f19166020018201604052801561266e576020820181803683370190505b5090505b84156126d957612683600183613d62565b9150612690600a86613a94565b61269b906030613a0a565b60f81b8183815181106126b0576126b0613c08565b60200101906001600160f81b031916908160001a9053506126d2600a86613bf4565b9450612672565b949350505050565b81518351146127025760405162461bcd60e51b81526004016109d190613d79565b6001600160a01b0384166127285760405162461bcd60e51b81526004016109d190613dc1565b33612737818787878787612e4e565b60005b845181101561281d57600085828151811061275757612757613c08565b60200260200101519050600085838151811061277557612775613c08565b602090810291909101810151600084815280835260408082206001600160a01b038e1683529093529190912054909150818110156127c55760405162461bcd60e51b81526004016109d190613e06565b6000838152602081815260408083206001600160a01b038e8116855292528083208585039055908b16825281208054849290612802908490613a0a565b925050819055505050508061281690613aa8565b905061273a565b50846001600160a01b0316866001600160a01b0316826001600160a01b03167f4a39dc06d4c0dbc64b70af90fd698a233a518aa5d07e595d983b8c0526c8f7fb878760405161286d929190613e50565b60405180910390a4612883818787878787613182565b505050505050565b600680546001600160a01b038381166001600160a01b0319831681179093556040519116919082907f8be0079c531659141344cd1fd0a4f28419497f9722a3daafe3b4186f6b6457e090600090a35050565b60006128e8600b5490565b6015819055919050565b6001600160a01b0383166129185760405162461bcd60e51b81526004016109d190613cdb565b80518251146129395760405162461bcd60e51b81526004016109d190613d79565b600033905061295c81856000868660405180602001604052806000815250612e4e565b60005b8351811015612a2157600084828151811061297c5761297c613c08565b60200260200101519050600084838151811061299a5761299a613c08565b602090810291909101810151600084815280835260408082206001600160a01b038c1683529093529190912054909150818110156129ea5760405162461bcd60e51b81526004016109d190613d1e565b6000928352602083815260408085206001600160a01b038b1686529091529092209103905580612a1981613aa8565b91505061295f565b5060006001600160a01b0316846001600160a01b0316826001600160a01b03167f4a39dc06d4c0dbc64b70af90fd698a233a518aa5d07e595d983b8c0526c8f7fb8686604051612a72929190613e50565b60405180910390a46040805160208101909152600090525b50505050565b6001600160a01b038416612ab65760405162461bcd60e51b81526004016109d190613c9a565b8151835114612ad75760405162461bcd60e51b81526004016109d190613d79565b33612ae781600087878787612e4e565b60005b8451811015612b8257838181518110612b0557612b05613c08565b6020026020010151600080878481518110612b2257612b22613c08565b602002602001015181526020019081526020016000206000886001600160a01b03166001600160a01b031681526020019081526020016000206000828254612b6a9190613a0a565b90915550819050612b7a81613aa8565b915050612aea565b50846001600160a01b031660006001600160a01b0316826001600160a01b03167f4a39dc06d4c0dbc64b70af90fd698a233a518aa5d07e595d983b8c0526c8f7fb8787604051612bd3929190613e50565b60405180910390a461102a81600087878787613182565b816001600160a01b0316836001600160a01b03161415612c5e5760405162461bcd60e51b815260206004820152602960248201527f455243313135353a2073657474696e6720617070726f76616c20737461747573604482015268103337b91039b2b63360b91b60648201526084016109d1565b6001600160a01b03838116600081815260016020908152604080832094871680845294825291829020805460ff191686151590811790915591519182527f17307eab39ab6107e8899845ad3d59bd9653f200f220920489ca2b5937696c31910160405180910390a3505050565b6001600160a01b038416612cf15760405162461bcd60e51b81526004016109d190613dc1565b336000612cfd85612e03565b90506000612d0a85612e03565b9050612d1a838989858589612e4e565b6000868152602081815260408083206001600160a01b038c16845290915290205485811015612d5b5760405162461bcd60e51b81526004016109d190613e06565b6000878152602081815260408083206001600160a01b038d8116855292528083208985039055908a16825281208054889290612d98908490613a0a565b909155505060408051888152602081018890526001600160a01b03808b16928c821692918816917fc3d58168c5ae7397731d063d5bbf3d657854427343f4c083240f7aacaa2d0f62910160405180910390a4612df8848a8a8a8a8a612fc7565b505050505050505050565b60408051600180825281830190925260609160009190602080830190803683370190505090508281600081518110612e3d57612e3d613c08565b602090810291909101015292915050565b6001600160a01b038516612ed55760005b8351811015612ed357828181518110612e7a57612e7a613c08565b602002602001015160036000868481518110612e9857612e98613c08565b602002602001015181526020019081526020016000206000828254612ebd9190613a0a565b90915550612ecc905081613aa8565b9050612e5f565b505b6001600160a01b0384166128835760005b835181101561223d576000848281518110612f0357612f03613c08565b602002602001015190506000848381518110612f2157612f21613c08565b6020026020010151905060006003600084815260200190815260200160002054905081811015612fa45760405162461bcd60e51b815260206004820152602860248201527f455243313135353a206275726e20616d6f756e74206578636565647320746f74604482015267616c537570706c7960c01b60648201526084016109d1565b60009283526003602052604090922091039055612fc081613aa8565b9050612ee6565b6001600160a01b0384163b156128835760405163f23a6e6160e01b81526001600160a01b0385169063f23a6e619061300b9089908990889088908890600401613e75565b602060405180830381600087803b15801561302557600080fd5b505af1925050508015613055575060408051601f3d908101601f1916820190925261305291810190613eba565b60015b61310257613061613ed7565b806308c379a0141561309b5750613076613ef3565b80613081575061309d565b8060405162461bcd60e51b81526004016109d1919061344b565b505b60405162461bcd60e51b815260206004820152603460248201527f455243313135353a207472616e7366657220746f206e6f6e20455243313135356044820152732932b1b2b4bb32b91034b6b83632b6b2b73a32b960611b60648201526084016109d1565b6001600160e01b0319811663f23a6e6160e01b1461223d5760405162461bcd60e51b81526004016109d190613f7d565b60006001600160e01b03198216636cdb3d1360e11b148061316357506001600160e01b031982166303a24d0760e21b145b80610b4557506301ffc9a760e01b6001600160e01b0319831614610b45565b6001600160a01b0384163b156128835760405163bc197c8160e01b81526001600160a01b0385169063bc197c81906131c69089908990889088908890600401613fc5565b602060405180830381600087803b1580156131e057600080fd5b505af1925050508015613210575060408051601f3d908101601f1916820190925261320d91810190613eba565b60015b61321c57613061613ed7565b6001600160e01b0319811663bc197c8160e01b1461223d5760405162461bcd60e51b81526004016109d190613f7d565b82805461325890613ac3565b90600052602060002090601f01602090048101928261327a57600085556132c0565b82601f1061329357805160ff19168380011785556132c0565b828001600101855582156132c0579182015b828111156132c05782518255916020019190600101906132a5565b506132cc9291506132d0565b5090565b5b808211156132cc57600081556001016132d1565b6001600160a01b0381168114611b3f57600080fd5b60008060006060848603121561330f57600080fd5b833561331a816132e5565b95602085013595506040909401359392505050565b6000806040838503121561334257600080fd5b823561334d816132e5565b946020939093013593505050565b6001600160e01b031981168114611b3f57600080fd5b60006020828403121561338357600080fd5b813561338e8161335b565b9392505050565b6000602082840312156133a757600080fd5b5035919050565b600080604083850312156133c157600080fd5b82356133cc816132e5565b915060208301356001600160601b03811681146133e857600080fd5b809150509250929050565b60005b8381101561340e5781810151838201526020016133f6565b83811115612a8a5750506000910152565b600081518084526134378160208601602086016133f3565b601f01601f19169290920160200192915050565b60208152600061338e602083018461341f565b6000806040838503121561347157600080fd5b50508035926020909101359150565b634e487b7160e01b600052604160045260246000fd5b601f8201601f1916810167ffffffffffffffff811182821017156134bc576134bc613480565b6040525050565b600067ffffffffffffffff8211156134dd576134dd613480565b5060051b60200190565b600082601f8301126134f857600080fd5b81356020613505826134c3565b6040516135128282613496565b83815260059390931b850182019282810191508684111561353257600080fd5b8286015b8481101561354d5780358352918301918301613536565b509695505050505050565b600067ffffffffffffffff83111561357257613572613480565b604051613589601f8501601f191660200182613496565b80915083815284848401111561359e57600080fd5b83836020830137600060208583010152509392505050565b600082601f8301126135c757600080fd5b61338e83833560208501613558565b600080600080600060a086880312156135ee57600080fd5b85356135f9816132e5565b94506020860135613609816132e5565b9350604086013567ffffffffffffffff8082111561362657600080fd5b61363289838a016134e7565b9450606088013591508082111561364857600080fd5b61365489838a016134e7565b9350608088013591508082111561366a57600080fd5b50613677888289016135b6565b9150509295509295909350565b60008060006040848603121561369957600080fd5b83359250602084013567ffffffffffffffff808211156136b857600080fd5b818601915086601f8301126136cc57600080fd5b8135818111156136db57600080fd5b8760208285010111156136ed57600080fd5b6020830194508093505050509250925092565b6000806040838503121561371357600080fd5b823567ffffffffffffffff8082111561372b57600080fd5b818501915085601f83011261373f57600080fd5b8135602061374c826134c3565b6040516137598282613496565b83815260059390931b850182019282810191508984111561377957600080fd5b948201945b838610156137a0578535613791816132e5565b8252948201949082019061377e565b965050860135925050808211156137b657600080fd5b506137c3858286016134e7565b9150509250929050565b600081518084526020808501945080840160005b838110156137fd578151875295820195908201906001016137e1565b509495945050505050565b60208152600061338e60208301846137cd565b60006020828403121561382d57600080fd5b813567ffffffffffffffff81111561384457600080fd5b8201601f8101841361385557600080fd5b6126d984823560208401613558565b60008060006060848603121561387957600080fd5b8335613884816132e5565b925060208401359150604084013561389b816132e5565b809150509250925092565b6000602082840312156138b857600080fd5b813561338e816132e5565b8015158114611b3f57600080fd5b600080604083850312156138e457600080fd5b82356138ef816132e5565b915060208301356133e8816138c3565b6000806040838503121561391257600080fd5b823561391d816132e5565b915060208301356133e8816132e5565b600080600080600060a0868803121561394557600080fd5b8535613950816132e5565b94506020860135613960816132e5565b93506040860135925060608601359150608086013567ffffffffffffffff81111561398a57600080fd5b613677888289016135b6565b6020808252818101527f4f776e61626c653a2063616c6c6572206973206e6f7420746865206f776e6572604082015260600190565b6020808252600f908201526e10dbdb9d1c9858dd0814185d5cd959608a1b604082015260600190565b634e487b7160e01b600052601160045260246000fd5b60008219821115613a1d57613a1d6139f4565b500190565b6020808252601f908201527f5265656e7472616e637947756172643a207265656e7472616e742063616c6c00604082015260600190565b6020808252600b908201526a4e6565642061206375626560a81b604082015260600190565b634e487b7160e01b600052601260045260246000fd5b600082613aa357613aa3613a7e565b500690565b6000600019821415613abc57613abc6139f4565b5060010190565b600181811c90821680613ad757607f821691505b60208210811415613af857634e487b7160e01b600052602260045260246000fd5b50919050565b60008151613b108185602086016133f3565b9290920192915050565b600080845481600182811c915080831680613b3657607f831692505b6020808410821415613b5657634e487b7160e01b86526022600452602486fd5b818015613b6a5760018114613b7b57613ba8565b60ff19861689528489019650613ba8565b60008b81526020902060005b86811015613ba05781548b820152908501908301613b87565b505084890196505b505050505050613bcc613bbb8286613afe565b64173539b7b760d91b815260050190565b95945050505050565b6000816000190483118215151615613bef57613bef6139f4565b500290565b600082613c0357613c03613a7e565b500490565b634e487b7160e01b600052603260045260246000fd5b600060208284031215613c3057600080fd5b5051919050565b60208082526026908201527f4578636565647320746865206d617820746f74616c20737570706c7920617661604082015265696c61626c6560d01b606082015260800190565b600060208284031215613c8f57600080fd5b815161338e816138c3565b60208082526021908201527f455243313135353a206d696e7420746f20746865207a65726f206164647265736040820152607360f81b606082015260800190565b60208082526023908201527f455243313135353a206275726e2066726f6d20746865207a65726f206164647260408201526265737360e81b606082015260800190565b60208082526024908201527f455243313135353a206275726e20616d6f756e7420657863656564732062616c604082015263616e636560e01b606082015260800190565b600082821015613d7457613d746139f4565b500390565b60208082526028908201527f455243313135353a2069647320616e6420616d6f756e7473206c656e677468206040820152670dad2e6dac2e8c6d60c31b606082015260800190565b60208082526025908201527f455243313135353a207472616e7366657220746f20746865207a65726f206164604082015264647265737360d81b606082015260800190565b6020808252602a908201527f455243313135353a20696e73756666696369656e742062616c616e636520666f60408201526939103a3930b739b332b960b11b606082015260800190565b604081526000613e6360408301856137cd565b8281036020840152613bcc81856137cd565b6001600160a01b03868116825285166020820152604081018490526060810183905260a060808201819052600090613eaf9083018461341f565b979650505050505050565b600060208284031215613ecc57600080fd5b815161338e8161335b565b600060033d1115613ef05760046000803e5060005160e01c5b90565b600060443d1015613f015790565b6040516003193d81016004833e81513d67ffffffffffffffff8160248401118184111715613f3157505050505090565b8285019150815181811115613f495750505050505090565b843d8701016020828501011115613f635750505050505090565b613f7260208286010187613496565b509095945050505050565b60208082526028908201527f455243313135353a204552433131353552656365697665722072656a656374656040820152676420746f6b656e7360c01b606082015260800190565b6001600160a01b0386811682528516602082015260a060408201819052600090613ff1908301866137cd565b828103606084015261400381866137cd565b90508281036080840152614017818561341f565b9897505050505050505056fea2646970667358221220a5035bb1c730abe29de1d6cb784d54975968a12d882949897a3c25893213ddce64736f6c63430008090033",
  "linkReferences": {},
  "deployedLinkReferences": {}
}