{
    "_format": "hh-sol-artifact-1",
    "contractName": "TestZone",
    "sourceName": "contracts/BeezCube.sol",
    "abi": [
        {
            "inputs": [
                {
                    "internalType": "address",
                    "name": "_ogNFBeezContract",
                    "type": "address"
                },
                {
                    "internalType": "address",
                    "name": "_airnodeRrp",
                    "type": "address"
                },
                {
                    "internalType": "address",
                    "name": "_royalty",
                    "type": "address"
                },
                {
                    "internalType": "string",
                    "name": "_cubeNFT",
                    "type": "string"
                }
            ],
            "stateMutability": "nonpayable",
            "type": "constructor"
        },
        {
            "anonymous": false,
            "inputs": [
                {
                    "indexed": true,
                    "internalType": "address",
                    "name": "account",
                    "type": "address"
                },
                {
                    "indexed": true,
                    "internalType": "address",
                    "name": "operator",
                    "type": "address"
                },
                {
                    "indexed": false,
                    "internalType": "bool",
                    "name": "approved",
                    "type": "bool"
                }
            ],
            "name": "ApprovalForAll",
            "type": "event"
        },
        {
            "anonymous": false,
            "inputs": [
                {
                    "indexed": true,
                    "internalType": "address",
                    "name": "previousOwner",
                    "type": "address"
                },
                {
                    "indexed": true,
                    "internalType": "address",
                    "name": "newOwner",
                    "type": "address"
                }
            ],
            "name": "OwnershipTransferred",
            "type": "event"
        },
        {
            "anonymous": false,
            "inputs": [
                {
                    "indexed": true,
                    "internalType": "bytes32",
                    "name": "requestId",
                    "type": "bytes32"
                },
                {
                    "indexed": false,
                    "internalType": "uint256",
                    "name": "response",
                    "type": "uint256"
                }
            ],
            "name": "ReceivedUint256",
            "type": "event"
        },
        {
            "anonymous": false,
            "inputs": [
                {
                    "indexed": true,
                    "internalType": "bytes32",
                    "name": "requestId",
                    "type": "bytes32"
                }
            ],
            "name": "RequestedUint256",
            "type": "event"
        },
        {
            "anonymous": false,
            "inputs": [
                {
                    "indexed": true,
                    "internalType": "address",
                    "name": "operator",
                    "type": "address"
                },
                {
                    "indexed": true,
                    "internalType": "address",
                    "name": "from",
                    "type": "address"
                },
                {
                    "indexed": true,
                    "internalType": "address",
                    "name": "to",
                    "type": "address"
                },
                {
                    "indexed": false,
                    "internalType": "uint256[]",
                    "name": "ids",
                    "type": "uint256[]"
                },
                {
                    "indexed": false,
                    "internalType": "uint256[]",
                    "name": "values",
                    "type": "uint256[]"
                }
            ],
            "name": "TransferBatch",
            "type": "event"
        },
        {
            "anonymous": false,
            "inputs": [
                {
                    "indexed": true,
                    "internalType": "address",
                    "name": "operator",
                    "type": "address"
                },
                {
                    "indexed": true,
                    "internalType": "address",
                    "name": "from",
                    "type": "address"
                },
                {
                    "indexed": true,
                    "internalType": "address",
                    "name": "to",
                    "type": "address"
                },
                {
                    "indexed": false,
                    "internalType": "uint256",
                    "name": "id",
                    "type": "uint256"
                },
                {
                    "indexed": false,
                    "internalType": "uint256",
                    "name": "value",
                    "type": "uint256"
                }
            ],
            "name": "TransferSingle",
            "type": "event"
        },
        {
            "anonymous": false,
            "inputs": [
                {
                    "indexed": false,
                    "internalType": "string",
                    "name": "value",
                    "type": "string"
                },
                {
                    "indexed": true,
                    "internalType": "uint256",
                    "name": "id",
                    "type": "uint256"
                }
            ],
            "name": "URI",
            "type": "event"
        },
        {
            "stateMutability": "payable",
            "type": "fallback"
        },
        {
            "inputs": [],
            "name": "CubeNFT",
            "outputs": [
                {
                    "internalType": "string",
                    "name": "",
                    "type": "string"
                }
            ],
            "stateMutability": "view",
            "type": "function"
        },
        {
            "inputs": [],
            "name": "DAOCubesMinted",
            "outputs": [
                {
                    "internalType": "uint256",
                    "name": "",
                    "type": "uint256"
                }
            ],
            "stateMutability": "view",
            "type": "function"
        },
        {
            "inputs": [
                {
                    "internalType": "uint256",
                    "name": "_amount",
                    "type": "uint256"
                },
                {
                    "internalType": "uint256",
                    "name": "_tokenId",
                    "type": "uint256"
                }
            ],
            "name": "adminMint",
            "outputs": [],
            "stateMutability": "nonpayable",
            "type": "function"
        },
        {
            "inputs": [],
            "name": "airnode",
            "outputs": [
                {
                    "internalType": "address",
                    "name": "",
                    "type": "address"
                }
            ],
            "stateMutability": "view",
            "type": "function"
        },
        {
            "inputs": [],
            "name": "airnodeRrp",
            "outputs": [
                {
                    "internalType": "contract IAirnodeRrpV0",
                    "name": "",
                    "type": "address"
                }
            ],
            "stateMutability": "view",
            "type": "function"
        },
        {
            "inputs": [
                {
                    "internalType": "address",
                    "name": "account",
                    "type": "address"
                },
                {
                    "internalType": "uint256",
                    "name": "id",
                    "type": "uint256"
                }
            ],
            "name": "balanceOf",
            "outputs": [
                {
                    "internalType": "uint256",
                    "name": "",
                    "type": "uint256"
                }
            ],
            "stateMutability": "view",
            "type": "function"
        },
        {
            "inputs": [
                {
                    "internalType": "address[]",
                    "name": "accounts",
                    "type": "address[]"
                },
                {
                    "internalType": "uint256[]",
                    "name": "ids",
                    "type": "uint256[]"
                }
            ],
            "name": "balanceOfBatch",
            "outputs": [
                {
                    "internalType": "uint256[]",
                    "name": "",
                    "type": "uint256[]"
                }
            ],
            "stateMutability": "view",
            "type": "function"
        },
        {
            "inputs": [],
            "name": "breakOpen",
            "outputs": [],
            "stateMutability": "nonpayable",
            "type": "function"
        },
        {
            "inputs": [
                {
                    "internalType": "uint256",
                    "name": "_amount",
                    "type": "uint256"
                }
            ],
            "name": "bulkBreakOpen",
            "outputs": [],
            "stateMutability": "nonpayable",
            "type": "function"
        },
        {
            "inputs": [],
            "name": "bulkBreakOpenAll",
            "outputs": [],
            "stateMutability": "nonpayable",
            "type": "function"
        },
        {
            "inputs": [],
            "name": "claim",
            "outputs": [],
            "stateMutability": "nonpayable",
            "type": "function"
        },
        {
            "inputs": [],
            "name": "createDAOCube",
            "outputs": [],
            "stateMutability": "nonpayable",
            "type": "function"
        },
        {
            "inputs": [],
            "name": "cubesClaimed",
            "outputs": [
                {
                    "internalType": "uint256",
                    "name": "",
                    "type": "uint256"
                }
            ],
            "stateMutability": "view",
            "type": "function"
        },
        {
            "inputs": [],
            "name": "cubesMinted",
            "outputs": [
                {
                    "internalType": "uint256",
                    "name": "",
                    "type": "uint256"
                }
            ],
            "stateMutability": "view",
            "type": "function"
        },
        {
            "inputs": [],
            "name": "cubesPurchased",
            "outputs": [
                {
                    "internalType": "uint256",
                    "name": "",
                    "type": "uint256"
                }
            ],
            "stateMutability": "view",
            "type": "function"
        },
        {
            "inputs": [],
            "name": "endpointIdUint256",
            "outputs": [
                {
                    "internalType": "bytes32",
                    "name": "",
                    "type": "bytes32"
                }
            ],
            "stateMutability": "view",
            "type": "function"
        },
        {
            "inputs": [
                {
                    "internalType": "uint256",
                    "name": "id",
                    "type": "uint256"
                }
            ],
            "name": "exists",
            "outputs": [
                {
                    "internalType": "bool",
                    "name": "",
                    "type": "bool"
                }
            ],
            "stateMutability": "view",
            "type": "function"
        },
        {
            "inputs": [
                {
                    "internalType": "bytes32",
                    "name": "",
                    "type": "bytes32"
                }
            ],
            "name": "expectingRequestWithIdToBeFulfilled",
            "outputs": [
                {
                    "internalType": "bool",
                    "name": "",
                    "type": "bool"
                }
            ],
            "stateMutability": "view",
            "type": "function"
        },
        {
            "inputs": [
                {
                    "internalType": "bytes32",
                    "name": "requestId",
                    "type": "bytes32"
                },
                {
                    "internalType": "bytes",
                    "name": "data",
                    "type": "bytes"
                }
            ],
            "name": "fulfillUint256",
            "outputs": [],
            "stateMutability": "nonpayable",
            "type": "function"
        },
        {
            "inputs": [
                {
                    "internalType": "address",
                    "name": "account",
                    "type": "address"
                },
                {
                    "internalType": "address",
                    "name": "operator",
                    "type": "address"
                }
            ],
            "name": "isApprovedForAll",
            "outputs": [
                {
                    "internalType": "bool",
                    "name": "",
                    "type": "bool"
                }
            ],
            "stateMutability": "view",
            "type": "function"
        },
        {
            "inputs": [],
            "name": "maxClaims",
            "outputs": [
                {
                    "internalType": "uint256",
                    "name": "",
                    "type": "uint256"
                }
            ],
            "stateMutability": "view",
            "type": "function"
        },
        {
            "inputs": [],
            "name": "maxDAOCube",
            "outputs": [
                {
                    "internalType": "uint256",
                    "name": "",
                    "type": "uint256"
                }
            ],
            "stateMutability": "view",
            "type": "function"
        },
        {
            "inputs": [],
            "name": "maxPurchaseSupply",
            "outputs": [
                {
                    "internalType": "uint256",
                    "name": "",
                    "type": "uint256"
                }
            ],
            "stateMutability": "view",
            "type": "function"
        },
        {
            "inputs": [],
            "name": "maxTotalSupply",
            "outputs": [
                {
                    "internalType": "uint256",
                    "name": "",
                    "type": "uint256"
                }
            ],
            "stateMutability": "view",
            "type": "function"
        },
        {
            "inputs": [
                {
                    "internalType": "uint256",
                    "name": "amount",
                    "type": "uint256"
                }
            ],
            "name": "mint",
            "outputs": [],
            "stateMutability": "payable",
            "type": "function"
        },
        {
            "inputs": [],
            "name": "name",
            "outputs": [
                {
                    "internalType": "string",
                    "name": "",
                    "type": "string"
                }
            ],
            "stateMutability": "pure",
            "type": "function"
        },
        {
            "inputs": [
                {
                    "internalType": "uint256",
                    "name": "",
                    "type": "uint256"
                }
            ],
            "name": "nfbeezClaimed",
            "outputs": [
                {
                    "internalType": "bool",
                    "name": "",
                    "type": "bool"
                }
            ],
            "stateMutability": "view",
            "type": "function"
        },
        {
            "inputs": [],
            "name": "owner",
            "outputs": [
                {
                    "internalType": "address",
                    "name": "",
                    "type": "address"
                }
            ],
            "stateMutability": "view",
            "type": "function"
        },
        {
            "inputs": [],
            "name": "paused",
            "outputs": [
                {
                    "internalType": "bool",
                    "name": "",
                    "type": "bool"
                }
            ],
            "stateMutability": "view",
            "type": "function"
        },
        {
            "inputs": [],
            "name": "renounceOwnership",
            "outputs": [],
            "stateMutability": "nonpayable",
            "type": "function"
        },
        {
            "inputs": [
                {
                    "internalType": "uint256",
                    "name": "_tokenId",
                    "type": "uint256"
                },
                {
                    "internalType": "uint256",
                    "name": "_salePrice",
                    "type": "uint256"
                }
            ],
            "name": "royaltyInfo",
            "outputs": [
                {
                    "internalType": "address",
                    "name": "",
                    "type": "address"
                },
                {
                    "internalType": "uint256",
                    "name": "",
                    "type": "uint256"
                }
            ],
            "stateMutability": "view",
            "type": "function"
        },
        {
            "inputs": [
                {
                    "internalType": "address",
                    "name": "from",
                    "type": "address"
                },
                {
                    "internalType": "address",
                    "name": "to",
                    "type": "address"
                },
                {
                    "internalType": "uint256[]",
                    "name": "ids",
                    "type": "uint256[]"
                },
                {
                    "internalType": "uint256[]",
                    "name": "amounts",
                    "type": "uint256[]"
                },
                {
                    "internalType": "bytes",
                    "name": "data",
                    "type": "bytes"
                }
            ],
            "name": "safeBatchTransferFrom",
            "outputs": [],
            "stateMutability": "nonpayable",
            "type": "function"
        },
        {
            "inputs": [
                {
                    "internalType": "address",
                    "name": "from",
                    "type": "address"
                },
                {
                    "internalType": "address",
                    "name": "to",
                    "type": "address"
                },
                {
                    "internalType": "uint256",
                    "name": "id",
                    "type": "uint256"
                },
                {
                    "internalType": "uint256",
                    "name": "amount",
                    "type": "uint256"
                },
                {
                    "internalType": "bytes",
                    "name": "data",
                    "type": "bytes"
                }
            ],
            "name": "safeTransferFrom",
            "outputs": [],
            "stateMutability": "nonpayable",
            "type": "function"
        },
        {
            "inputs": [
                {
                    "internalType": "address",
                    "name": "operator",
                    "type": "address"
                },
                {
                    "internalType": "bool",
                    "name": "approved",
                    "type": "bool"
                }
            ],
            "name": "setApprovalForAll",
            "outputs": [],
            "stateMutability": "nonpayable",
            "type": "function"
        },
        {
            "inputs": [
                {
                    "internalType": "string",
                    "name": "_newBaseURI",
                    "type": "string"
                }
            ],
            "name": "setBaseURI",
            "outputs": [],
            "stateMutability": "nonpayable",
            "type": "function"
        },
        {
            "inputs": [
                {
                    "internalType": "uint256",
                    "name": "_newMax",
                    "type": "uint256"
                }
            ],
            "name": "setNewDAOCubeMax",
            "outputs": [],
            "stateMutability": "nonpayable",
            "type": "function"
        },
        {
            "inputs": [
                {
                    "internalType": "address",
                    "name": "_airnode",
                    "type": "address"
                },
                {
                    "internalType": "bytes32",
                    "name": "_endpointIdUint256",
                    "type": "bytes32"
                },
                {
                    "internalType": "address",
                    "name": "_sponsorWallet",
                    "type": "address"
                }
            ],
            "name": "setRequestParameters",
            "outputs": [],
            "stateMutability": "nonpayable",
            "type": "function"
        },
        {
            "inputs": [
                {
                    "internalType": "address",
                    "name": "_receiver",
                    "type": "address"
                },
                {
                    "internalType": "uint96",
                    "name": "_royaltyFeesInBips",
                    "type": "uint96"
                }
            ],
            "name": "setRoyaltyInfo",
            "outputs": [],
            "stateMutability": "nonpayable",
            "type": "function"
        },
        {
            "inputs": [],
            "name": "sponsorWallet",
            "outputs": [
                {
                    "internalType": "address",
                    "name": "",
                    "type": "address"
                }
            ],
            "stateMutability": "view",
            "type": "function"
        },
        {
            "inputs": [
                {
                    "internalType": "bytes4",
                    "name": "interfaceId",
                    "type": "bytes4"
                }
            ],
            "name": "supportsInterface",
            "outputs": [
                {
                    "internalType": "bool",
                    "name": "",
                    "type": "bool"
                }
            ],
            "stateMutability": "view",
            "type": "function"
        },
        {
            "inputs": [],
            "name": "symbol",
            "outputs": [
                {
                    "internalType": "string",
                    "name": "",
                    "type": "string"
                }
            ],
            "stateMutability": "pure",
            "type": "function"
        },
        {
            "inputs": [],
            "name": "togglePause",
            "outputs": [],
            "stateMutability": "nonpayable",
            "type": "function"
        },
        {
            "inputs": [],
            "name": "tokenPrice",
            "outputs": [
                {
                    "internalType": "uint256",
                    "name": "",
                    "type": "uint256"
                }
            ],
            "stateMutability": "view",
            "type": "function"
        },
        {
            "inputs": [
                {
                    "internalType": "uint256",
                    "name": "",
                    "type": "uint256"
                }
            ],
            "name": "tokensMinted",
            "outputs": [
                {
                    "internalType": "uint256",
                    "name": "",
                    "type": "uint256"
                }
            ],
            "stateMutability": "view",
            "type": "function"
        },
        {
            "inputs": [
                {
                    "internalType": "uint256",
                    "name": "id",
                    "type": "uint256"
                }
            ],
            "name": "totalSupply",
            "outputs": [
                {
                    "internalType": "uint256",
                    "name": "",
                    "type": "uint256"
                }
            ],
            "stateMutability": "view",
            "type": "function"
        },
        {
            "inputs": [
                {
                    "internalType": "address",
                    "name": "newOwner",
                    "type": "address"
                }
            ],
            "name": "transferOwnership",
            "outputs": [],
            "stateMutability": "nonpayable",
            "type": "function"
        },
        {
            "inputs": [
                {
                    "internalType": "uint256",
                    "name": "_tokenId",
                    "type": "uint256"
                }
            ],
            "name": "uri",
            "outputs": [
                {
                    "internalType": "string",
                    "name": "",
                    "type": "string"
                }
            ],
            "stateMutability": "view",
            "type": "function"
        },
        {
            "inputs": [],
            "name": "withdraw",
            "outputs": [],
            "stateMutability": "nonpayable",
            "type": "function"
        },
        {
            "inputs": [
                {
                    "internalType": "contract IERC20",
                    "name": "token",
                    "type": "address"
                }
            ],
            "name": "withdrawToken",
            "outputs": [],
            "stateMutability": "nonpayable",
            "type": "function"
        },
        {
            "stateMutability": "payable",
            "type": "receive"
        }
    ],
    "bytecode": "0x60a060405266038d7ea4c68000600d556109ab600e556109dd600f5560c86010553480156200002d57600080fd5b5060405162003db538038062003db58339810160408190526200005091620003d4565b8280826200005e8162000129565b506200006a3362000142565b600160078190556001600160a01b0382166080819052604051632b77c09f60e21b815230600482015260248101929092529063addf027c90604401600060405180830381600087803b158015620000c057600080fd5b505af1158015620000d5573d6000803e3d6000fd5b5050601980546001600160a01b0319166001600160a01b038a16179055506101f492506200010891508490508262000194565b81516200011d906018906020850190620002fb565b50505050505062000526565b80516200013e906002906020840190620002fb565b5050565b600680546001600160a01b038381166001600160a01b0319831681179093556040519116919082907f8be0079c531659141344cd1fd0a4f28419497f9722a3daafe3b4186f6b6457e090600090a35050565b6006546001600160a01b03163314620001f45760405162461bcd60e51b815260206004820181905260248201527f4f776e61626c653a2063616c6c6572206973206e6f7420746865206f776e657260448201526064015b60405180910390fd5b6200013e82826127106001600160601b03821611156200026a5760405162461bcd60e51b815260206004820152602a60248201527f455243323938313a20726f79616c7479206665652077696c6c206578636565646044820152692073616c65507269636560b01b6064820152608401620001eb565b6001600160a01b038216620002c25760405162461bcd60e51b815260206004820152601960248201527f455243323938313a20696e76616c6964207265636569766572000000000000006044820152606401620001eb565b604080518082019091526001600160a01b039092168083526001600160601b039091166020909201829052600160a01b90910217600455565b8280546200030990620004e9565b90600052602060002090601f0160209004810192826200032d576000855562000378565b82601f106200034857805160ff191683800117855562000378565b8280016001018555821562000378579182015b82811115620003785782518255916020019190600101906200035b565b50620003869291506200038a565b5090565b5b808211156200038657600081556001016200038b565b80516001600160a01b0381168114620003b957600080fd5b919050565b634e487b7160e01b600052604160045260246000fd5b60008060008060808587031215620003eb57600080fd5b620003f685620003a1565b9350602062000407818701620003a1565b93506200041760408701620003a1565b60608701519093506001600160401b03808211156200043557600080fd5b818801915088601f8301126200044a57600080fd5b8151818111156200045f576200045f620003be565b604051601f8201601f19908116603f011681019083821181831017156200048a576200048a620003be565b816040528281528b86848701011115620004a357600080fd5b600093505b82841015620004c75784840186015181850187015292850192620004a8565b82841115620004d95760008684830101525b989b979a50959850505050505050565b600181811c90821680620004fe57607f821691505b602082108114156200052057634e487b7160e01b600052602260045260246000fd5b50919050565b60805161386562000550600039600081816105b101528181610dac015261285d01526138656000f3fe6080604052600436106102965760003560e01c806371bab66611610166578063a22cb465116100d3578063cf5380b41161008f578063e985e9c51161006c578063e985e9c514610864578063f242432a146108ad578063f2fde38b146108cd578063f710ee5f146108ed57005b8063cf5380b414610818578063d00e40ce1461082e578063d870b2301461084e57005b8063a22cb46514610746578063a36ff4d814610766578063bd85b03914610786578063bf90fb4e146107b3578063c4ae3168146107d3578063cab3a16b146107e857005b8063894760691161012257806389476069146106935780638da5cb5b146106b357806390e414e3146106d157806395d89b41146106f157806396b8c9901461071e578063a0712d681461073357005b806371bab6661461059f5780637bdf2525146105eb5780637f74cde21461060b5780637ff9b59614610638578063805e5c671461064e578063851244f71461066357005b80632eb2c2d6116102045780634e71d92d116101c05780634e71d92d146104f75780634f558e791461050c57806351b323f01461053b57806355f804b3146105505780635c975abb14610570578063715018a61461058a57005b80632eb2c2d6146104495780632f1bbbb3146104695780633718d90a1461047f5780633ccfd60b1461049f57806340a1706f146104b45780634e1273f4146104ca57005b80630e89341c116102535780630e89341c1461039357806313c1fa31146103b35780631bb47c53146103c9578063232a7f60146103df5780632a55205a146103f45780632ab4d0521461043357005b8062fdd58e1461029f57806301ffc9a7146102d2578063027b955c1461030257806302fa7c471461032257806306fdde031461034257806307b9fc571461037d57005b3661029d57005b005b3480156102ab57600080fd5b506102bf6102ba366004612c04565b610903565b6040519081526020015b60405180910390f35b3480156102de57600080fd5b506102f26102ed366004612c46565b61099a565b60405190151581526020016102c9565b34801561030e57600080fd5b5061029d61031d366004612c6a565b6109ab565b34801561032e57600080fd5b5061029d61033d366004612c83565b610af7565b34801561034e57600080fd5b5060408051808201909152600981526854455354205a4f4e4560b81b60208201525b6040516102c99190612d24565b34801561038957600080fd5b506102bf600a5481565b34801561039f57600080fd5b506103706103ae366004612c6a565b610b2f565b3480156103bf57600080fd5b506102bf60135481565b3480156103d557600080fd5b506102bf600e5481565b3480156103eb57600080fd5b5061029d610b63565b34801561040057600080fd5b5061041461040f366004612d37565b610c5e565b604080516001600160a01b0390931683526020830191909152016102c9565b34801561043f57600080fd5b506102bf61138881565b34801561045557600080fd5b5061029d610464366004612eaf565b610d0a565b34801561047557600080fd5b506102bf60145481565b34801561048b57600080fd5b5061029d61049a366004612f5d565b610da1565b3480156104ab57600080fd5b5061029d610ed4565b3480156104c057600080fd5b506102bf60125481565b3480156104d657600080fd5b506104ea6104e5366004612fd9565b610f83565b6040516102c991906130e1565b34801561050357600080fd5b5061029d6110ad565b34801561051857600080fd5b506102f2610527366004612c6a565b600090815260036020526040902054151590565b34801561054757600080fd5b50610370611395565b34801561055c57600080fd5b5061029d61056b3660046130f4565b611423565b34801561057c57600080fd5b506017546102f29060ff1681565b34801561059657600080fd5b5061029d611460565b3480156105ab57600080fd5b506105d37f000000000000000000000000000000000000000000000000000000000000000081565b6040516001600160a01b0390911681526020016102c9565b3480156105f757600080fd5b5061029d61060636600461313d565b611496565b34801561061757600080fd5b506102bf610626366004612c6a565b601b6020526000908152604090205481565b34801561064457600080fd5b506102bf600d5481565b34801561065a57600080fd5b5061029d6114f4565b34801561066f57600080fd5b506102f261067e366004612c6a565b600c6020526000908152604090205460ff1681565b34801561069f57600080fd5b5061029d6106ae36600461317f565b6115e6565b3480156106bf57600080fd5b506006546001600160a01b03166105d3565b3480156106dd57600080fd5b5061029d6106ec366004612c6a565b611753565b3480156106fd57600080fd5b50604080518082019091526004815263151154d560e21b6020820152610370565b34801561072a57600080fd5b5061029d611782565b61029d610741366004612c6a565b6118d4565b34801561075257600080fd5b5061029d6107613660046131aa565b611a19565b34801561077257600080fd5b506008546105d3906001600160a01b031681565b34801561079257600080fd5b506102bf6107a1366004612c6a565b60009081526003602052604090205490565b3480156107bf57600080fd5b506009546105d3906001600160a01b031681565b3480156107df57600080fd5b5061029d611a24565b3480156107f457600080fd5b506102f2610803366004612c6a565b601a6020526000908152604090205460ff1681565b34801561082457600080fd5b506102bf600f5481565b34801561083a57600080fd5b5061029d610849366004612d37565b611a62565b34801561085a57600080fd5b506102bf60115481565b34801561087057600080fd5b506102f261087f3660046131d8565b6001600160a01b03918216600090815260016020908152604080832093909416825291909152205460ff1690565b3480156108b957600080fd5b5061029d6108c8366004613206565b611b28565b3480156108d957600080fd5b5061029d6108e836600461317f565b611baf565b3480156108f957600080fd5b506102bf60105481565b60006001600160a01b0383166109745760405162461bcd60e51b815260206004820152602b60248201527f455243313135353a2062616c616e636520717565727920666f7220746865207a60448201526a65726f206164647265737360a81b60648201526084015b60405180910390fd5b506000908152602081815260408083206001600160a01b03949094168352929052205490565b60006109a582611c47565b92915050565b600260075414156109ce5760405162461bcd60e51b815260040161096b9061326f565b600260075560175460ff16156109f65760405162461bcd60e51b815260040161096b906132a6565b6000610a03336001610903565b905060008111610a255760405162461bcd60e51b815260040161096b906132cf565b80821115610a755760405162461bcd60e51b815260206004820152601d60248201527f52657175657374696e67206d6f7265207468616e20796f752068617665000000604482015260640161096b565b610a8133600184611c6c565b60005b82811015610aed576000610a96611e01565b9050610ab43382600160405180602001604052806000815250611e73565b6000818152601b60205260408120805460019290610ad390849061330a565b90915550829150610ae5905081613322565b915050610a84565b5050600160075550565b6006546001600160a01b03163314610b215760405162461bcd60e51b815260040161096b9061333d565b610b2b8282611f8d565b5050565b60606018610b3c8361208a565b604051602001610b4d9291906133c9565b6040516020818303038152906040529050919050565b60026007541415610b865760405162461bcd60e51b815260040161096b9061326f565b600260075560175460ff1615610bae5760405162461bcd60e51b815260040161096b906132a6565b6000610bbb336001610903565b905060008111610bdd5760405162461bcd60e51b815260040161096b906132cf565b610be933600183611c6c565b60005b81811015610c55576000610bfe611e01565b9050610c1c3382600160405180602001604052806000815250611e73565b6000818152601b60205260408120805460019290610c3b90849061330a565b90915550829150610c4d905081613322565b915050610bec565b50506001600755565b60008281526005602090815260408083208151808301909252546001600160a01b038116808352600160a01b9091046001600160601b0316928201929092528291610cd35750604080518082019091526004546001600160a01b0381168252600160a01b90046001600160601b031660208201525b602081015160009061271090610cf2906001600160601b031687613484565b610cfc91906134b9565b915196919550909350505050565b6001600160a01b038516331480610d265750610d26853361087f565b610d8d5760405162461bcd60e51b815260206004820152603260248201527f455243313135353a207472616e736665722063616c6c6572206973206e6f74206044820152711bdddb995c881b9bdc88185c1c1c9bdd995960721b606482015260840161096b565b610d9a8585858585612190565b5050505050565b336001600160a01b037f00000000000000000000000000000000000000000000000000000000000000001614610e125760405162461bcd60e51b8152602060048201526016602482015275043616c6c6572206e6f74204169726e6f6465205252560541b604482015260640161096b565b6000838152600c602052604090205460ff16610e675760405162461bcd60e51b81526020600482015260146024820152732932b8bab2b9ba1024a2103737ba1035b737bbb760611b604482015260640161096b565b6000838152600c60205260408120805460ff19169055610e8982840184612c6a565b9050610e966019826134cd565b600b5560405181815284907f1ca47bacd454c26163f84eff4aa514e291ba9fa67ad6029e39567c122bbed30f9060200160405180910390a250505050565b6006546001600160a01b03163314610efe5760405162461bcd60e51b815260040161096b9061333d565b60026007541415610f215760405162461bcd60e51b815260040161096b9061326f565b6002600755604051600090339047908381818185875af1925050503d8060008114610f68576040519150601f19603f3d011682016040523d82523d6000602084013e610f6d565b606091505b5050905080610f7b57600080fd5b506001600755565b60608151835114610fe85760405162461bcd60e51b815260206004820152602960248201527f455243313135353a206163636f756e747320616e6420696473206c656e677468604482015268040dad2e6dac2e8c6d60bb1b606482015260840161096b565b6000835167ffffffffffffffff81111561100457611004612d59565b60405190808252806020026020018201604052801561102d578160200160208202803683370190505b50905060005b84518110156110a557611078858281518110611051576110516134e1565b602002602001015185838151811061106b5761106b6134e1565b6020026020010151610903565b82828151811061108a5761108a6134e1565b602090810291909101015261109e81613322565b9050611033565b509392505050565b600260075414156110d05760405162461bcd60e51b815260040161096b9061326f565b600260075560175460ff16156110f85760405162461bcd60e51b815260040161096b906132a6565b6019546040516370a0823160e01b81523360048201819052916000916001600160a01b03909116906370a082319060240160206040518083038186803b15801561114157600080fd5b505afa158015611155573d6000803e3d6000fd5b505050506040513d601f19601f8201168201806040525081019061117991906134f7565b9050600081116111cb5760405162461bcd60e51b815260206004820152601d60248201527f596f7520646f6e74206f776e20616e79204e464265657a204e46542773000000604482015260640161096b565b6000805b828110156112af57601954604051632f745c5960e01b81526001600160a01b038681166004830152602482018490526000921690632f745c599060440160206040518083038186803b15801561122457600080fd5b505afa158015611238573d6000803e3d6000fd5b505050506040513d601f19601f8201168201806040525081019061125c91906134f7565b6000818152601a602052604090205490915060ff1661129c5761128060018461330a565b6000828152601a60205260409020805460ff1916600117905592505b50806112a781613322565b9150506111cf565b50600081116113105760405162461bcd60e51b815260206004820152602760248201527f596f75206861766520616c726561647920636c61696d656420616c6c2074686560448201526620746f6b656e7360c81b606482015260840161096b565b600f5481601454611321919061330a565b111561133f5760405162461bcd60e51b815260040161096b90613510565b61135b3360018360405180602001604052806000815250611e73565b806011600082825461136d919061330a565b925050819055508060146000828254611386919061330a565b90915550506001600755505050565b601880546113a290613372565b80601f01602080910402602001604051908101604052809291908181526020018280546113ce90613372565b801561141b5780601f106113f05761010080835404028352916020019161141b565b820191906000526020600020905b8154815290600101906020018083116113fe57829003601f168201915b505050505081565b6006546001600160a01b0316331461144d5760405162461bcd60e51b815260040161096b9061333d565b8051610b2b906018906020840190612b56565b6006546001600160a01b0316331461148a5760405162461bcd60e51b815260040161096b9061333d565b611494600061237b565b565b6006546001600160a01b031633146114c05760405162461bcd60e51b815260040161096b9061333d565b600880546001600160a01b039485166001600160a01b031991821617909155600a9290925560098054919093169116179055565b600260075414156115175760405162461bcd60e51b815260040161096b9061326f565b600260075560175460ff161561153f5760405162461bcd60e51b815260040161096b906132a6565b600061154c336001610903565b90506000811161156e5760405162461bcd60e51b815260040161096b906132cf565b61157a33600180611c6c565b6000611584611e01565b905060165481141561159b57611598611e01565b90505b6115b73382600160405180602001604052806000815250611e73565b6000818152601b602052604081208054600192906115d690849061330a565b9091555050601655506001600755565b6006546001600160a01b031633146116105760405162461bcd60e51b815260040161096b9061333d565b6040516370a0823160e01b81523060048201526001600160a01b0382169063a9059cbb90339083906370a082319060240160206040518083038186803b15801561165957600080fd5b505afa15801561166d573d6000803e3d6000fd5b505050506040513d601f19601f8201168201806040525081019061169191906134f7565b6040516001600160e01b031960e085901b1681526001600160a01b0390921660048301526024820152604401602060405180830381600087803b1580156116d757600080fd5b505af11580156116eb573d6000803e3d6000fd5b505050506040513d601f19601f8201168201806040525081019061170f9190613544565b6117505760405162461bcd60e51b81526020600482015260126024820152712ab730b13632903a37903a3930b739b332b960711b604482015260640161096b565b50565b6006546001600160a01b0316331461177d5760405162461bcd60e51b815260040161096b9061333d565b601055565b600260075414156117a55760405162461bcd60e51b815260040161096b9061326f565b60026007556010546012546117bb90600161330a565b11156117d95760405162461bcd60e51b815260040161096b90613510565b60175460ff16156117fc5760405162461bcd60e51b815260040161096b906132a6565b60025b601b81101561186c5760006118143383610903565b9050600081116118595760405162461bcd60e51b815260206004820152601060248201526f139bdd0810dbdb5c1b195d194814d95d60821b604482015260640161096b565b508061186481613322565b9150506117ff565b5060025b601b8110156118975761188533826001611c6c565b8061188f81613322565b915050611870565b506118b533601b600160405180602001604052806000815250611e73565b6001601260008282546118c8919061330a565b90915550506001600755565b60175460ff16156118f75760405162461bcd60e51b815260040161096b906132a6565b600081600d546119079190613484565b90506113888260115461191a919061330a565b11156119695760405162461bcd60e51b815260206004820152602a602482015260008051602061381083398151915260448201526934b630b13632902a299760b11b606482015260840161096b565b600e548260115461197a919061330a565b11156119c95760405162461bcd60e51b815260206004820152602a602482015260008051602061381083398151915260448201526934b630b136329028299760b11b606482015260840161096b565b6119e53360018460405180602001604052806000815250611e73565b81601160008282546119f7919061330a565b925050819055508160136000828254611a10919061330a565b90915550505050565b610b2b3383836123cd565b6006546001600160a01b03163314611a4e5760405162461bcd60e51b815260040161096b9061333d565b6017805460ff19811660ff90911615179055565b6006546001600160a01b03163314611a8c5760405162461bcd60e51b815260040161096b9061333d565b60175460ff1615611aaf5760405162461bcd60e51b815260040161096b906132a6565b61138882601154611ac0919061330a565b1115611ade5760405162461bcd60e51b815260040161096b90613561565b600e5482601154611aef919061330a565b1115611b0d5760405162461bcd60e51b815260040161096b90613561565b6119e533828460405180602001604052806000815250611e73565b6001600160a01b038516331480611b445750611b44853361087f565b611ba25760405162461bcd60e51b815260206004820152602960248201527f455243313135353a2063616c6c6572206973206e6f74206f776e6572206e6f7260448201526808185c1c1c9bdd995960ba1b606482015260840161096b565b610d9a85858585856124ae565b6006546001600160a01b03163314611bd95760405162461bcd60e51b815260040161096b9061333d565b6001600160a01b038116611c3e5760405162461bcd60e51b815260206004820152602660248201527f4f776e61626c653a206e6577206f776e657220697320746865207a65726f206160448201526564647265737360d01b606482015260840161096b565b6117508161237b565b60006001600160e01b0319821663152a902d60e11b14806109a557506109a5826125e6565b6001600160a01b038316611cce5760405162461bcd60e51b815260206004820152602360248201527f455243313135353a206275726e2066726f6d20746865207a65726f206164647260448201526265737360e81b606482015260840161096b565b336000611cda84612636565b90506000611ce784612636565b9050611d0783876000858560405180602001604052806000815250612681565b6000858152602081815260408083206001600160a01b038a16845290915290205484811015611d845760405162461bcd60e51b8152602060048201526024808201527f455243313135353a206275726e20616d6f756e7420657863656564732062616c604482015263616e636560e01b606482015260840161096b565b6000868152602081815260408083206001600160a01b038b81168086529184528285208a8703905582518b81529384018a90529092908816917fc3d58168c5ae7397731d063d5bbf3d657854427343f4c083240f7aacaa2d0f62910160405180910390a46040805160208101909152600090525b50505050505050565b6000611e0b6127fa565b600060196015544244611e1e919061330a565b611e28919061330a565b611e3291906134cd565b90506000611e3f600b5490565b905060006019611e4f838561330a565b611e5991906134cd565b9050611e6681600261330a565b6015819055949350505050565b6001600160a01b038416611ed35760405162461bcd60e51b815260206004820152602160248201527f455243313135353a206d696e7420746f20746865207a65726f206164647265736044820152607360f81b606482015260840161096b565b336000611edf85612636565b90506000611eec85612636565b9050611efd83600089858589612681565b6000868152602081815260408083206001600160a01b038b16845290915281208054879290611f2d90849061330a565b909155505060408051878152602081018790526001600160a01b03808a1692600092918716917fc3d58168c5ae7397731d063d5bbf3d657854427343f4c083240f7aacaa2d0f62910160405180910390a4611df883600089898989612921565b6127106001600160601b0382161115611ffb5760405162461bcd60e51b815260206004820152602a60248201527f455243323938313a20726f79616c7479206665652077696c6c206578636565646044820152692073616c65507269636560b01b606482015260840161096b565b6001600160a01b0382166120515760405162461bcd60e51b815260206004820152601960248201527f455243323938313a20696e76616c696420726563656976657200000000000000604482015260640161096b565b604080518082019091526001600160a01b039092168083526001600160601b039091166020909201829052600160a01b90910217600455565b6060816120ae5750506040805180820190915260018152600360fc1b602082015290565b8160005b81156120d857806120c281613322565b91506120d19050600a836134b9565b91506120b2565b60008167ffffffffffffffff8111156120f3576120f3612d59565b6040519080825280601f01601f19166020018201604052801561211d576020820181803683370190505b5090505b841561218857612132600183613596565b915061213f600a866134cd565b61214a90603061330a565b60f81b81838151811061215f5761215f6134e1565b60200101906001600160f81b031916908160001a905350612181600a866134b9565b9450612121565b949350505050565b81518351146121f25760405162461bcd60e51b815260206004820152602860248201527f455243313135353a2069647320616e6420616d6f756e7473206c656e677468206044820152670dad2e6dac2e8c6d60c31b606482015260840161096b565b6001600160a01b0384166122185760405162461bcd60e51b815260040161096b906135ad565b33612227818787878787612681565b60005b845181101561230d576000858281518110612247576122476134e1565b602002602001015190506000858381518110612265576122656134e1565b602090810291909101810151600084815280835260408082206001600160a01b038e1683529093529190912054909150818110156122b55760405162461bcd60e51b815260040161096b906135f2565b6000838152602081815260408083206001600160a01b038e8116855292528083208585039055908b168252812080548492906122f290849061330a565b925050819055505050508061230690613322565b905061222a565b50846001600160a01b0316866001600160a01b0316826001600160a01b03167f4a39dc06d4c0dbc64b70af90fd698a233a518aa5d07e595d983b8c0526c8f7fb878760405161235d92919061363c565b60405180910390a4612373818787878787612a8c565b505050505050565b600680546001600160a01b038381166001600160a01b0319831681179093556040519116919082907f8be0079c531659141344cd1fd0a4f28419497f9722a3daafe3b4186f6b6457e090600090a35050565b816001600160a01b0316836001600160a01b031614156124415760405162461bcd60e51b815260206004820152602960248201527f455243313135353a2073657474696e6720617070726f76616c20737461747573604482015268103337b91039b2b63360b91b606482015260840161096b565b6001600160a01b03838116600081815260016020908152604080832094871680845294825291829020805460ff191686151590811790915591519182527f17307eab39ab6107e8899845ad3d59bd9653f200f220920489ca2b5937696c31910160405180910390a3505050565b6001600160a01b0384166124d45760405162461bcd60e51b815260040161096b906135ad565b3360006124e085612636565b905060006124ed85612636565b90506124fd838989858589612681565b6000868152602081815260408083206001600160a01b038c1684529091529020548581101561253e5760405162461bcd60e51b815260040161096b906135f2565b6000878152602081815260408083206001600160a01b038d8116855292528083208985039055908a1682528120805488929061257b90849061330a565b909155505060408051888152602081018890526001600160a01b03808b16928c821692918816917fc3d58168c5ae7397731d063d5bbf3d657854427343f4c083240f7aacaa2d0f62910160405180910390a46125db848a8a8a8a8a612921565b505050505050505050565b60006001600160e01b03198216636cdb3d1360e11b148061261757506001600160e01b031982166303a24d0760e21b145b806109a557506301ffc9a760e01b6001600160e01b03198316146109a5565b60408051600180825281830190925260609160009190602080830190803683370190505090508281600081518110612670576126706134e1565b602090810291909101015292915050565b6001600160a01b0385166127085760005b8351811015612706578281815181106126ad576126ad6134e1565b6020026020010151600360008684815181106126cb576126cb6134e1565b6020026020010151815260200190815260200160002060008282546126f0919061330a565b909155506126ff905081613322565b9050612692565b505b6001600160a01b0384166123735760005b8351811015611df8576000848281518110612736576127366134e1565b602002602001015190506000848381518110612754576127546134e1565b60200260200101519050600060036000848152602001908152602001600020549050818110156127d75760405162461bcd60e51b815260206004820152602860248201527f455243313135353a206275726e20616d6f756e74206578636565647320746f74604482015267616c537570706c7960c01b606482015260840161096b565b600092835260036020526040909220910390556127f381613322565b9050612719565b600854600a54600954604051636e6be03f60e01b81526001600160a01b0393841660048201526024810192909252306044830181905290831660648301526084820152631b8c6c8560e11b60a482015260e060c4820152600060e48201819052917f00000000000000000000000000000000000000000000000000000000000000001690636e6be03f9061010401602060405180830381600087803b1580156128a257600080fd5b505af11580156128b6573d6000803e3d6000fd5b505050506040513d601f19601f820116820180604052508101906128da91906134f7565b6000818152600c6020526040808220805460ff191660011790555191925082917fcba2da2f3c0c732a104019a3104936397dde7343964c1518ceb760052e4537b19190a250565b6001600160a01b0384163b156123735760405163f23a6e6160e01b81526001600160a01b0385169063f23a6e61906129659089908990889088908890600401613661565b602060405180830381600087803b15801561297f57600080fd5b505af19250505080156129af575060408051601f3d908101601f191682019092526129ac918101906136a6565b60015b612a5c576129bb6136c3565b806308c379a014156129f557506129d06136df565b806129db57506129f7565b8060405162461bcd60e51b815260040161096b9190612d24565b505b60405162461bcd60e51b815260206004820152603460248201527f455243313135353a207472616e7366657220746f206e6f6e20455243313135356044820152732932b1b2b4bb32b91034b6b83632b6b2b73a32b960611b606482015260840161096b565b6001600160e01b0319811663f23a6e6160e01b14611df85760405162461bcd60e51b815260040161096b90613769565b6001600160a01b0384163b156123735760405163bc197c8160e01b81526001600160a01b0385169063bc197c8190612ad090899089908890889088906004016137b1565b602060405180830381600087803b158015612aea57600080fd5b505af1925050508015612b1a575060408051601f3d908101601f19168201909252612b17918101906136a6565b60015b612b26576129bb6136c3565b6001600160e01b0319811663bc197c8160e01b14611df85760405162461bcd60e51b815260040161096b90613769565b828054612b6290613372565b90600052602060002090601f016020900481019282612b845760008555612bca565b82601f10612b9d57805160ff1916838001178555612bca565b82800160010185558215612bca579182015b82811115612bca578251825591602001919060010190612baf565b50612bd6929150612bda565b5090565b5b80821115612bd65760008155600101612bdb565b6001600160a01b038116811461175057600080fd5b60008060408385031215612c1757600080fd5b8235612c2281612bef565b946020939093013593505050565b6001600160e01b03198116811461175057600080fd5b600060208284031215612c5857600080fd5b8135612c6381612c30565b9392505050565b600060208284031215612c7c57600080fd5b5035919050565b60008060408385031215612c9657600080fd5b8235612ca181612bef565b915060208301356001600160601b0381168114612cbd57600080fd5b809150509250929050565b60005b83811015612ce3578181015183820152602001612ccb565b83811115612cf2576000848401525b50505050565b60008151808452612d10816020860160208601612cc8565b601f01601f19169290920160200192915050565b602081526000612c636020830184612cf8565b60008060408385031215612d4a57600080fd5b50508035926020909101359150565b634e487b7160e01b600052604160045260246000fd5b601f8201601f1916810167ffffffffffffffff81118282101715612d9557612d95612d59565b6040525050565b600067ffffffffffffffff821115612db657612db6612d59565b5060051b60200190565b600082601f830112612dd157600080fd5b81356020612dde82612d9c565b604051612deb8282612d6f565b83815260059390931b8501820192828101915086841115612e0b57600080fd5b8286015b84811015612e265780358352918301918301612e0f565b509695505050505050565b600067ffffffffffffffff831115612e4b57612e4b612d59565b604051612e62601f8501601f191660200182612d6f565b809150838152848484011115612e7757600080fd5b83836020830137600060208583010152509392505050565b600082601f830112612ea057600080fd5b612c6383833560208501612e31565b600080600080600060a08688031215612ec757600080fd5b8535612ed281612bef565b94506020860135612ee281612bef565b9350604086013567ffffffffffffffff80821115612eff57600080fd5b612f0b89838a01612dc0565b94506060880135915080821115612f2157600080fd5b612f2d89838a01612dc0565b93506080880135915080821115612f4357600080fd5b50612f5088828901612e8f565b9150509295509295909350565b600080600060408486031215612f7257600080fd5b83359250602084013567ffffffffffffffff80821115612f9157600080fd5b818601915086601f830112612fa557600080fd5b813581811115612fb457600080fd5b876020828501011115612fc657600080fd5b6020830194508093505050509250925092565b60008060408385031215612fec57600080fd5b823567ffffffffffffffff8082111561300457600080fd5b818501915085601f83011261301857600080fd5b8135602061302582612d9c565b6040516130328282612d6f565b83815260059390931b850182019282810191508984111561305257600080fd5b948201945b8386101561307957853561306a81612bef565b82529482019490820190613057565b9650508601359250508082111561308f57600080fd5b5061309c85828601612dc0565b9150509250929050565b600081518084526020808501945080840160005b838110156130d6578151875295820195908201906001016130ba565b509495945050505050565b602081526000612c6360208301846130a6565b60006020828403121561310657600080fd5b813567ffffffffffffffff81111561311d57600080fd5b8201601f8101841361312e57600080fd5b61218884823560208401612e31565b60008060006060848603121561315257600080fd5b833561315d81612bef565b925060208401359150604084013561317481612bef565b809150509250925092565b60006020828403121561319157600080fd5b8135612c6381612bef565b801515811461175057600080fd5b600080604083850312156131bd57600080fd5b82356131c881612bef565b91506020830135612cbd8161319c565b600080604083850312156131eb57600080fd5b82356131f681612bef565b91506020830135612cbd81612bef565b600080600080600060a0868803121561321e57600080fd5b853561322981612bef565b9450602086013561323981612bef565b93506040860135925060608601359150608086013567ffffffffffffffff81111561326357600080fd5b612f5088828901612e8f565b6020808252601f908201527f5265656e7472616e637947756172643a207265656e7472616e742063616c6c00604082015260600190565b6020808252600f908201526e10dbdb9d1c9858dd0814185d5cd959608a1b604082015260600190565b6020808252600b908201526a4e6565642061206375626560a81b604082015260600190565b634e487b7160e01b600052601160045260246000fd5b6000821982111561331d5761331d6132f4565b500190565b6000600019821415613336576133366132f4565b5060010190565b6020808252818101527f4f776e61626c653a2063616c6c6572206973206e6f7420746865206f776e6572604082015260600190565b600181811c9082168061338657607f821691505b602082108114156133a757634e487b7160e01b600052602260045260246000fd5b50919050565b600081516133bf818560208601612cc8565b9290920192915050565b600080845481600182811c9150808316806133e557607f831692505b602080841082141561340557634e487b7160e01b86526022600452602486fd5b818015613419576001811461342a57613457565b60ff19861689528489019650613457565b60008b81526020902060005b8681101561344f5781548b820152908501908301613436565b505084890196505b50505050505061347b61346a82866133ad565b64173539b7b760d91b815260050190565b95945050505050565b600081600019048311821515161561349e5761349e6132f4565b500290565b634e487b7160e01b600052601260045260246000fd5b6000826134c8576134c86134a3565b500490565b6000826134dc576134dc6134a3565b500690565b634e487b7160e01b600052603260045260246000fd5b60006020828403121561350957600080fd5b5051919050565b6020808252602690820152600080516020613810833981519152604082015265696c61626c6560d01b606082015260800190565b60006020828403121561355657600080fd5b8151612c638161319c565b602080825260279082015260008051602061381083398151915260408201526634b630b136329760c91b606082015260800190565b6000828210156135a8576135a86132f4565b500390565b60208082526025908201527f455243313135353a207472616e7366657220746f20746865207a65726f206164604082015264647265737360d81b606082015260800190565b6020808252602a908201527f455243313135353a20696e73756666696369656e742062616c616e636520666f60408201526939103a3930b739b332b960b11b606082015260800190565b60408152600061364f60408301856130a6565b828103602084015261347b81856130a6565b6001600160a01b03868116825285166020820152604081018490526060810183905260a06080820181905260009061369b90830184612cf8565b979650505050505050565b6000602082840312156136b857600080fd5b8151612c6381612c30565b600060033d11156136dc5760046000803e5060005160e01c5b90565b600060443d10156136ed5790565b6040516003193d81016004833e81513d67ffffffffffffffff816024840111818411171561371d57505050505090565b82850191508151818111156137355750505050505090565b843d870101602082850101111561374f5750505050505090565b61375e60208286010187612d6f565b509095945050505050565b60208082526028908201527f455243313135353a204552433131353552656365697665722072656a656374656040820152676420746f6b656e7360c01b606082015260800190565b6001600160a01b0386811682528516602082015260a0604082018190526000906137dd908301866130a6565b82810360608401526137ef81866130a6565b905082810360808401526138038185612cf8565b9897505050505050505056fe4578636565647320746865206d617820746f74616c20737570706c7920617661a26469706673582212202dcbd0269426f93bdcfdbd7b17e985f9c0c28d334657d796a690c767c204a01664736f6c63430008090033",
    "linkReferences": {},
    "deployedLinkReferences": {}
}